{
	"contracts/Decentralized_Marketplace.sol": {
		"DecentralizedMarketplace": {
			"abi": [
				{
					"anonymous": false,
					"inputs": [
						{
							"indexed": true,
							"internalType": "address",
							"name": "seller",
							"type": "address"
						},
						{
							"indexed": false,
							"internalType": "uint256",
							"name": "itemIndex",
							"type": "uint256"
						}
					],
					"name": "ItemDeleted",
					"type": "event"
				},
				{
					"anonymous": false,
					"inputs": [
						{
							"indexed": true,
							"internalType": "address",
							"name": "seller",
							"type": "address"
						},
						{
							"indexed": false,
							"internalType": "uint256",
							"name": "itemIndex",
							"type": "uint256"
						},
						{
							"indexed": false,
							"internalType": "string",
							"name": "name",
							"type": "string"
						},
						{
							"indexed": false,
							"internalType": "uint256",
							"name": "price",
							"type": "uint256"
						},
						{
							"indexed": false,
							"internalType": "uint256",
							"name": "quantity",
							"type": "uint256"
						}
					],
					"name": "ItemEdited",
					"type": "event"
				},
				{
					"anonymous": false,
					"inputs": [
						{
							"indexed": true,
							"internalType": "address",
							"name": "seller",
							"type": "address"
						},
						{
							"indexed": false,
							"internalType": "string",
							"name": "name",
							"type": "string"
						},
						{
							"indexed": false,
							"internalType": "uint256",
							"name": "price",
							"type": "uint256"
						},
						{
							"indexed": false,
							"internalType": "uint256",
							"name": "quantity",
							"type": "uint256"
						}
					],
					"name": "ItemListed",
					"type": "event"
				},
				{
					"anonymous": false,
					"inputs": [
						{
							"indexed": true,
							"internalType": "address",
							"name": "buyer",
							"type": "address"
						},
						{
							"indexed": true,
							"internalType": "address",
							"name": "seller",
							"type": "address"
						},
						{
							"indexed": false,
							"internalType": "uint256",
							"name": "itemIndex",
							"type": "uint256"
						},
						{
							"indexed": false,
							"internalType": "uint256",
							"name": "quantity",
							"type": "uint256"
						}
					],
					"name": "ItemPurchased",
					"type": "event"
				},
				{
					"inputs": [
						{
							"internalType": "uint256",
							"name": "_itemIndex",
							"type": "uint256"
						}
					],
					"name": "deleteItem",
					"outputs": [],
					"stateMutability": "nonpayable",
					"type": "function"
				},
				{
					"inputs": [
						{
							"internalType": "uint256",
							"name": "_itemIndex",
							"type": "uint256"
						},
						{
							"internalType": "string",
							"name": "_name",
							"type": "string"
						},
						{
							"internalType": "string",
							"name": "_description",
							"type": "string"
						},
						{
							"internalType": "uint256",
							"name": "_price",
							"type": "uint256"
						},
						{
							"internalType": "uint256",
							"name": "_quantity",
							"type": "uint256"
						}
					],
					"name": "editItem",
					"outputs": [],
					"stateMutability": "nonpayable",
					"type": "function"
				},
				{
					"inputs": [
						{
							"internalType": "address",
							"name": "_seller",
							"type": "address"
						}
					],
					"name": "getSellerItems",
					"outputs": [
						{
							"components": [
								{
									"internalType": "string",
									"name": "name",
									"type": "string"
								},
								{
									"internalType": "string",
									"name": "description",
									"type": "string"
								},
								{
									"internalType": "uint256",
									"name": "price",
									"type": "uint256"
								},
								{
									"internalType": "uint256",
									"name": "quantity",
									"type": "uint256"
								}
							],
							"internalType": "struct MarketplaceBase.Item[]",
							"name": "",
							"type": "tuple[]"
						}
					],
					"stateMutability": "view",
					"type": "function"
				},
				{
					"inputs": [
						{
							"internalType": "string",
							"name": "_name",
							"type": "string"
						},
						{
							"internalType": "string",
							"name": "_description",
							"type": "string"
						},
						{
							"internalType": "uint256",
							"name": "_price",
							"type": "uint256"
						},
						{
							"internalType": "uint256",
							"name": "_quantity",
							"type": "uint256"
						}
					],
					"name": "listItem",
					"outputs": [],
					"stateMutability": "nonpayable",
					"type": "function"
				},
				{
					"inputs": [
						{
							"internalType": "address",
							"name": "_seller",
							"type": "address"
						},
						{
							"internalType": "uint256",
							"name": "_itemIndex",
							"type": "uint256"
						},
						{
							"internalType": "uint256",
							"name": "_quantity",
							"type": "uint256"
						}
					],
					"name": "purchaseItem",
					"outputs": [],
					"stateMutability": "payable",
					"type": "function"
				},
				{
					"inputs": [
						{
							"internalType": "address",
							"name": "",
							"type": "address"
						},
						{
							"internalType": "uint256",
							"name": "",
							"type": "uint256"
						}
					],
					"name": "sellerItems",
					"outputs": [
						{
							"internalType": "string",
							"name": "name",
							"type": "string"
						},
						{
							"internalType": "string",
							"name": "description",
							"type": "string"
						},
						{
							"internalType": "uint256",
							"name": "price",
							"type": "uint256"
						},
						{
							"internalType": "uint256",
							"name": "quantity",
							"type": "uint256"
						}
					],
					"stateMutability": "view",
					"type": "function"
				}
			],
			"devdoc": {
				"kind": "dev",
				"methods": {},
				"version": 1
			},
			"evm": {
				"assembly": "    /* \"contracts/Decentralized_Marketplace.sol\":882:4563  contract DecentralizedMarketplace is MarketplaceBase {... */\n  mstore(0x40, 0x80)\n  callvalue\n  dup1\n  iszero\n  tag_1\n  jumpi\n  0x00\n  dup1\n  revert\ntag_1:\n  pop\n  dataSize(sub_0)\n  dup1\n  dataOffset(sub_0)\n  0x00\n  codecopy\n  0x00\n  return\nstop\n\nsub_0: assembly {\n        /* \"contracts/Decentralized_Marketplace.sol\":882:4563  contract DecentralizedMarketplace is MarketplaceBase {... */\n      mstore(0x40, 0x80)\n      jumpi(tag_1, lt(calldatasize, 0x04))\n      shr(0xe0, calldataload(0x00))\n      dup1\n      0x2c02338f\n      eq\n      tag_2\n      jumpi\n      dup1\n      0x654fc833\n      eq\n      tag_3\n      jumpi\n      dup1\n      0xca339212\n      eq\n      tag_4\n      jumpi\n      dup1\n      0xd3cbb62b\n      eq\n      tag_5\n      jumpi\n      dup1\n      0xec4ceeea\n      eq\n      tag_6\n      jumpi\n      dup1\n      0xfe6a30ca\n      eq\n      tag_7\n      jumpi\n    tag_1:\n      0x00\n      dup1\n      revert\n        /* \"contracts/Decentralized_Marketplace.sol\":370:415  mapping(address => Item[]) public sellerItems */\n    tag_2:\n      callvalue\n      dup1\n      iszero\n      tag_8\n      jumpi\n      0x00\n      dup1\n      revert\n    tag_8:\n      pop\n      tag_9\n      0x04\n      dup1\n      calldatasize\n      sub\n      dup2\n      add\n      swap1\n      tag_10\n      swap2\n      swap1\n      tag_11\n      jump\t// in\n    tag_10:\n      tag_12\n      jump\t// in\n    tag_9:\n      mload(0x40)\n      tag_13\n      swap5\n      swap4\n      swap3\n      swap2\n      swap1\n      tag_14\n      jump\t// in\n    tag_13:\n      mload(0x40)\n      dup1\n      swap2\n      sub\n      swap1\n      return\n        /* \"contracts/Decentralized_Marketplace.sol\":3236:3613  function deleteItem(uint256 _itemIndex) public onlyItemOwner(_itemIndex) {... */\n    tag_3:\n      callvalue\n      dup1\n      iszero\n      tag_15\n      jumpi\n      0x00\n      dup1\n      revert\n    tag_15:\n      pop\n      tag_16\n      0x04\n      dup1\n      calldatasize\n      sub\n      dup2\n      add\n      swap1\n      tag_17\n      swap2\n      swap1\n      tag_18\n      jump\t// in\n    tag_17:\n      tag_19\n      jump\t// in\n    tag_16:\n      stop\n        /* \"contracts/Decentralized_Marketplace.sol\":2402:3193  function editItem(... */\n    tag_4:\n      callvalue\n      dup1\n      iszero\n      tag_20\n      jumpi\n      0x00\n      dup1\n      revert\n    tag_20:\n      pop\n      tag_21\n      0x04\n      dup1\n      calldatasize\n      sub\n      dup2\n      add\n      swap1\n      tag_22\n      swap2\n      swap1\n      tag_23\n      jump\t// in\n    tag_22:\n      tag_24\n      jump\t// in\n    tag_21:\n      stop\n        /* \"contracts/Decentralized_Marketplace.sol\":3676:3799  function getSellerItems(address _seller) public view returns (Item[] memory) {... */\n    tag_5:\n      callvalue\n      dup1\n      iszero\n      tag_25\n      jumpi\n      0x00\n      dup1\n      revert\n    tag_25:\n      pop\n      tag_26\n      0x04\n      dup1\n      calldatasize\n      sub\n      dup2\n      add\n      swap1\n      tag_27\n      swap2\n      swap1\n      tag_28\n      jump\t// in\n    tag_27:\n      tag_29\n      jump\t// in\n    tag_26:\n      mload(0x40)\n      tag_30\n      swap2\n      swap1\n      tag_31\n      jump\t// in\n    tag_30:\n      mload(0x40)\n      dup1\n      swap2\n      sub\n      swap1\n      return\n        /* \"contracts/Decentralized_Marketplace.sol\":1540:2352  function listItem(... */\n    tag_6:\n      callvalue\n      dup1\n      iszero\n      tag_32\n      jumpi\n      0x00\n      dup1\n      revert\n    tag_32:\n      pop\n      tag_33\n      0x04\n      dup1\n      calldatasize\n      sub\n      dup2\n      add\n      swap1\n      tag_34\n      swap2\n      swap1\n      tag_35\n      jump\t// in\n    tag_34:\n      tag_36\n      jump\t// in\n    tag_33:\n      stop\n        /* \"contracts/Decentralized_Marketplace.sol\":3844:4560  function purchaseItem(address _seller, uint256 _itemIndex, uint256 _quantity) public payable {... */\n    tag_7:\n      tag_37\n      0x04\n      dup1\n      calldatasize\n      sub\n      dup2\n      add\n      swap1\n      tag_38\n      swap2\n      swap1\n      tag_39\n      jump\t// in\n    tag_38:\n      tag_40\n      jump\t// in\n    tag_37:\n      stop\n        /* \"contracts/Decentralized_Marketplace.sol\":370:415  mapping(address => Item[]) public sellerItems */\n    tag_12:\n      mstore(0x20, 0x00)\n      dup2\n      0x00\n      mstore\n      keccak256(0x00, 0x40)\n      dup2\n      dup2\n      sload\n      dup2\n      lt\n      tag_41\n      jumpi\n      0x00\n      dup1\n      revert\n    tag_41:\n      swap1\n      0x00\n      mstore\n      keccak256(0x00, 0x20)\n      swap1\n      0x04\n      mul\n      add\n      0x00\n      swap2\n      pop\n      swap2\n      pop\n      pop\n      dup1\n      0x00\n      add\n      dup1\n      sload\n      tag_43\n      swap1\n      tag_44\n      jump\t// in\n    tag_43:\n      dup1\n      0x1f\n      add\n      0x20\n      dup1\n      swap2\n      div\n      mul\n      0x20\n      add\n      mload(0x40)\n      swap1\n      dup2\n      add\n      0x40\n      mstore\n      dup1\n      swap3\n      swap2\n      swap1\n      dup2\n      dup2\n      mstore\n      0x20\n      add\n      dup3\n      dup1\n      sload\n      tag_45\n      swap1\n      tag_44\n      jump\t// in\n    tag_45:\n      dup1\n      iszero\n      tag_46\n      jumpi\n      dup1\n      0x1f\n      lt\n      tag_47\n      jumpi\n      0x0100\n      dup1\n      dup4\n      sload\n      div\n      mul\n      dup4\n      mstore\n      swap2\n      0x20\n      add\n      swap2\n      jump(tag_46)\n    tag_47:\n      dup3\n      add\n      swap2\n      swap1\n      0x00\n      mstore\n      keccak256(0x00, 0x20)\n      swap1\n    tag_48:\n      dup2\n      sload\n      dup2\n      mstore\n      swap1\n      0x01\n      add\n      swap1\n      0x20\n      add\n      dup1\n      dup4\n      gt\n      tag_48\n      jumpi\n      dup3\n      swap1\n      sub\n      0x1f\n      and\n      dup3\n      add\n      swap2\n    tag_46:\n      pop\n      pop\n      pop\n      pop\n      pop\n      swap1\n      dup1\n      0x01\n      add\n      dup1\n      sload\n      tag_49\n      swap1\n      tag_44\n      jump\t// in\n    tag_49:\n      dup1\n      0x1f\n      add\n      0x20\n      dup1\n      swap2\n      div\n      mul\n      0x20\n      add\n      mload(0x40)\n      swap1\n      dup2\n      add\n      0x40\n      mstore\n      dup1\n      swap3\n      swap2\n      swap1\n      dup2\n      dup2\n      mstore\n      0x20\n      add\n      dup3\n      dup1\n      sload\n      tag_50\n      swap1\n      tag_44\n      jump\t// in\n    tag_50:\n      dup1\n      iszero\n      tag_51\n      jumpi\n      dup1\n      0x1f\n      lt\n      tag_52\n      jumpi\n      0x0100\n      dup1\n      dup4\n      sload\n      div\n      mul\n      dup4\n      mstore\n      swap2\n      0x20\n      add\n      swap2\n      jump(tag_51)\n    tag_52:\n      dup3\n      add\n      swap2\n      swap1\n      0x00\n      mstore\n      keccak256(0x00, 0x20)\n      swap1\n    tag_53:\n      dup2\n      sload\n      dup2\n      mstore\n      swap1\n      0x01\n      add\n      swap1\n      0x20\n      add\n      dup1\n      dup4\n      gt\n      tag_53\n      jumpi\n      dup3\n      swap1\n      sub\n      0x1f\n      and\n      dup3\n      add\n      swap2\n    tag_51:\n      pop\n      pop\n      pop\n      pop\n      pop\n      swap1\n      dup1\n      0x02\n      add\n      sload\n      swap1\n      dup1\n      0x03\n      add\n      sload\n      swap1\n      pop\n      dup5\n      jump\t// out\n        /* \"contracts/Decentralized_Marketplace.sol\":3236:3613  function deleteItem(uint256 _itemIndex) public onlyItemOwner(_itemIndex) {... */\n    tag_19:\n        /* \"contracts/Decentralized_Marketplace.sol\":3297:3307  _itemIndex */\n      dup1\n        /* \"contracts/Decentralized_Marketplace.sol\":752:763  sellerItems */\n      0x00\n        /* \"contracts/Decentralized_Marketplace.sol\":752:775  sellerItems[msg.sender] */\n      dup1\n        /* \"contracts/Decentralized_Marketplace.sol\":764:774  msg.sender */\n      caller\n        /* \"contracts/Decentralized_Marketplace.sol\":752:775  sellerItems[msg.sender] */\n      0xffffffffffffffffffffffffffffffffffffffff\n      and\n      0xffffffffffffffffffffffffffffffffffffffff\n      and\n      dup2\n      mstore\n      0x20\n      add\n      swap1\n      dup2\n      mstore\n      0x20\n      add\n      0x00\n      keccak256\n        /* \"contracts/Decentralized_Marketplace.sol\":752:782  sellerItems[msg.sender].length */\n      dup1\n      sload\n      swap1\n      pop\n        /* \"contracts/Decentralized_Marketplace.sol\":739:749  _itemIndex */\n      dup2\n        /* \"contracts/Decentralized_Marketplace.sol\":739:782  _itemIndex < sellerItems[msg.sender].length */\n      lt\n        /* \"contracts/Decentralized_Marketplace.sol\":731:805  require(_itemIndex < sellerItems[msg.sender].length, \"Invalid item index\") */\n      tag_55\n      jumpi\n      mload(0x40)\n      0x08c379a000000000000000000000000000000000000000000000000000000000\n      dup2\n      mstore\n      0x04\n      add\n      tag_56\n      swap1\n      tag_57\n      jump\t// in\n    tag_56:\n      mload(0x40)\n      dup1\n      swap2\n      sub\n      swap1\n      revert\n    tag_55:\n        /* \"contracts/Decentralized_Marketplace.sol\":3320:3337  uint256 lastIndex */\n      0x00\n        /* \"contracts/Decentralized_Marketplace.sol\":3373:3374  1 */\n      0x01\n        /* \"contracts/Decentralized_Marketplace.sol\":3340:3351  sellerItems */\n      0x00\n        /* \"contracts/Decentralized_Marketplace.sol\":3340:3363  sellerItems[msg.sender] */\n      dup1\n        /* \"contracts/Decentralized_Marketplace.sol\":3352:3362  msg.sender */\n      caller\n        /* \"contracts/Decentralized_Marketplace.sol\":3340:3363  sellerItems[msg.sender] */\n      0xffffffffffffffffffffffffffffffffffffffff\n      and\n      0xffffffffffffffffffffffffffffffffffffffff\n      and\n      dup2\n      mstore\n      0x20\n      add\n      swap1\n      dup2\n      mstore\n      0x20\n      add\n      0x00\n      keccak256\n        /* \"contracts/Decentralized_Marketplace.sol\":3340:3370  sellerItems[msg.sender].length */\n      dup1\n      sload\n      swap1\n      pop\n        /* \"contracts/Decentralized_Marketplace.sol\":3340:3374  sellerItems[msg.sender].length - 1 */\n      tag_59\n      swap2\n      swap1\n      tag_60\n      jump\t// in\n    tag_59:\n        /* \"contracts/Decentralized_Marketplace.sol\":3320:3374  uint256 lastIndex = sellerItems[msg.sender].length - 1 */\n      swap1\n      pop\n        /* \"contracts/Decentralized_Marketplace.sol\":3403:3412  lastIndex */\n      dup1\n        /* \"contracts/Decentralized_Marketplace.sol\":3389:3399  _itemIndex */\n      dup4\n        /* \"contracts/Decentralized_Marketplace.sol\":3389:3412  _itemIndex != lastIndex */\n      eq\n        /* \"contracts/Decentralized_Marketplace.sol\":3385:3513  if (_itemIndex != lastIndex) {... */\n      tag_61\n      jumpi\n        /* \"contracts/Decentralized_Marketplace.sol\":3467:3478  sellerItems */\n      0x00\n        /* \"contracts/Decentralized_Marketplace.sol\":3467:3490  sellerItems[msg.sender] */\n      dup1\n        /* \"contracts/Decentralized_Marketplace.sol\":3479:3489  msg.sender */\n      caller\n        /* \"contracts/Decentralized_Marketplace.sol\":3467:3490  sellerItems[msg.sender] */\n      0xffffffffffffffffffffffffffffffffffffffff\n      and\n      0xffffffffffffffffffffffffffffffffffffffff\n      and\n      dup2\n      mstore\n      0x20\n      add\n      swap1\n      dup2\n      mstore\n      0x20\n      add\n      0x00\n      keccak256\n        /* \"contracts/Decentralized_Marketplace.sol\":3491:3500  lastIndex */\n      dup2\n        /* \"contracts/Decentralized_Marketplace.sol\":3467:3501  sellerItems[msg.sender][lastIndex] */\n      dup2\n      sload\n      dup2\n      lt\n      tag_62\n      jumpi\n      tag_63\n      tag_64\n      jump\t// in\n    tag_63:\n    tag_62:\n      swap1\n      0x00\n      mstore\n      keccak256(0x00, 0x20)\n      swap1\n      0x04\n      mul\n      add\n        /* \"contracts/Decentralized_Marketplace.sol\":3429:3440  sellerItems */\n      0x00\n        /* \"contracts/Decentralized_Marketplace.sol\":3429:3452  sellerItems[msg.sender] */\n      dup1\n        /* \"contracts/Decentralized_Marketplace.sol\":3441:3451  msg.sender */\n      caller\n        /* \"contracts/Decentralized_Marketplace.sol\":3429:3452  sellerItems[msg.sender] */\n      0xffffffffffffffffffffffffffffffffffffffff\n      and\n      0xffffffffffffffffffffffffffffffffffffffff\n      and\n      dup2\n      mstore\n      0x20\n      add\n      swap1\n      dup2\n      mstore\n      0x20\n      add\n      0x00\n      keccak256\n        /* \"contracts/Decentralized_Marketplace.sol\":3453:3463  _itemIndex */\n      dup5\n        /* \"contracts/Decentralized_Marketplace.sol\":3429:3464  sellerItems[msg.sender][_itemIndex] */\n      dup2\n      sload\n      dup2\n      lt\n      tag_66\n      jumpi\n      tag_67\n      tag_64\n      jump\t// in\n    tag_67:\n    tag_66:\n      swap1\n      0x00\n      mstore\n      keccak256(0x00, 0x20)\n      swap1\n      0x04\n      mul\n      add\n        /* \"contracts/Decentralized_Marketplace.sol\":3429:3501  sellerItems[msg.sender][_itemIndex] = sellerItems[msg.sender][lastIndex] */\n      0x00\n      dup3\n      add\n      dup2\n      0x00\n      add\n      swap1\n      dup2\n      tag_69\n      swap2\n      swap1\n      tag_70\n      jump\t// in\n    tag_69:\n      pop\n      0x01\n      dup3\n      add\n      dup2\n      0x01\n      add\n      swap1\n      dup2\n      tag_71\n      swap2\n      swap1\n      tag_70\n      jump\t// in\n    tag_71:\n      pop\n      0x02\n      dup3\n      add\n      sload\n      dup2\n      0x02\n      add\n      sstore\n      0x03\n      dup3\n      add\n      sload\n      dup2\n      0x03\n      add\n      sstore\n      swap1\n      pop\n      pop\n        /* \"contracts/Decentralized_Marketplace.sol\":3385:3513  if (_itemIndex != lastIndex) {... */\n    tag_61:\n        /* \"contracts/Decentralized_Marketplace.sol\":3523:3534  sellerItems */\n      0x00\n        /* \"contracts/Decentralized_Marketplace.sol\":3523:3546  sellerItems[msg.sender] */\n      dup1\n        /* \"contracts/Decentralized_Marketplace.sol\":3535:3545  msg.sender */\n      caller\n        /* \"contracts/Decentralized_Marketplace.sol\":3523:3546  sellerItems[msg.sender] */\n      0xffffffffffffffffffffffffffffffffffffffff\n      and\n      0xffffffffffffffffffffffffffffffffffffffff\n      and\n      dup2\n      mstore\n      0x20\n      add\n      swap1\n      dup2\n      mstore\n      0x20\n      add\n      0x00\n      keccak256\n        /* \"contracts/Decentralized_Marketplace.sol\":3523:3552  sellerItems[msg.sender].pop() */\n      dup1\n      sload\n      dup1\n      tag_72\n      jumpi\n      tag_73\n      tag_74\n      jump\t// in\n    tag_73:\n    tag_72:\n      0x01\n      swap1\n      sub\n      dup2\n      dup2\n      swap1\n      0x00\n      mstore\n      keccak256(0x00, 0x20)\n      swap1\n      0x04\n      mul\n      add\n      0x00\n      dup1\n      dup3\n      add\n      0x00\n      tag_76\n      swap2\n      swap1\n      tag_77\n      jump\t// in\n    tag_76:\n      0x01\n      dup3\n      add\n      0x00\n      tag_78\n      swap2\n      swap1\n      tag_77\n      jump\t// in\n    tag_78:\n      0x02\n      dup3\n      add\n      0x00\n      swap1\n      sstore\n      0x03\n      dup3\n      add\n      0x00\n      swap1\n      sstore\n      pop\n      pop\n      swap1\n      sstore\n        /* \"contracts/Decentralized_Marketplace.sol\":3582:3592  msg.sender */\n      caller\n        /* \"contracts/Decentralized_Marketplace.sol\":3570:3605  ItemDeleted(msg.sender, _itemIndex) */\n      0xffffffffffffffffffffffffffffffffffffffff\n      and\n      0x21c5ff13f7a7163d7cd6a98d82517de93dcc833b527ad63a5550894be16070c8\n        /* \"contracts/Decentralized_Marketplace.sol\":3594:3604  _itemIndex */\n      dup5\n        /* \"contracts/Decentralized_Marketplace.sol\":3570:3605  ItemDeleted(msg.sender, _itemIndex) */\n      mload(0x40)\n      tag_79\n      swap2\n      swap1\n      tag_80\n      jump\t// in\n    tag_79:\n      mload(0x40)\n      dup1\n      swap2\n      sub\n      swap1\n      log2\n        /* \"contracts/Decentralized_Marketplace.sol\":3309:3613  {... */\n      pop\n        /* \"contracts/Decentralized_Marketplace.sol\":3236:3613  function deleteItem(uint256 _itemIndex) public onlyItemOwner(_itemIndex) {... */\n      pop\n      pop\n      jump\t// out\n        /* \"contracts/Decentralized_Marketplace.sol\":2402:3193  function editItem(... */\n    tag_24:\n        /* \"contracts/Decentralized_Marketplace.sol\":2597:2607  _itemIndex */\n      dup5\n        /* \"contracts/Decentralized_Marketplace.sol\":752:763  sellerItems */\n      0x00\n        /* \"contracts/Decentralized_Marketplace.sol\":752:775  sellerItems[msg.sender] */\n      dup1\n        /* \"contracts/Decentralized_Marketplace.sol\":764:774  msg.sender */\n      caller\n        /* \"contracts/Decentralized_Marketplace.sol\":752:775  sellerItems[msg.sender] */\n      0xffffffffffffffffffffffffffffffffffffffff\n      and\n      0xffffffffffffffffffffffffffffffffffffffff\n      and\n      dup2\n      mstore\n      0x20\n      add\n      swap1\n      dup2\n      mstore\n      0x20\n      add\n      0x00\n      keccak256\n        /* \"contracts/Decentralized_Marketplace.sol\":752:782  sellerItems[msg.sender].length */\n      dup1\n      sload\n      swap1\n      pop\n        /* \"contracts/Decentralized_Marketplace.sol\":739:749  _itemIndex */\n      dup2\n        /* \"contracts/Decentralized_Marketplace.sol\":739:782  _itemIndex < sellerItems[msg.sender].length */\n      lt\n        /* \"contracts/Decentralized_Marketplace.sol\":731:805  require(_itemIndex < sellerItems[msg.sender].length, \"Invalid item index\") */\n      tag_82\n      jumpi\n      mload(0x40)\n      0x08c379a000000000000000000000000000000000000000000000000000000000\n      dup2\n      mstore\n      0x04\n      add\n      tag_83\n      swap1\n      tag_57\n      jump\t// in\n    tag_83:\n      mload(0x40)\n      dup1\n      swap2\n      sub\n      swap1\n      revert\n    tag_82:\n        /* \"contracts/Decentralized_Marketplace.sol\":2650:2651  0 */\n      0x00\n        /* \"contracts/Decentralized_Marketplace.sol\":2634:2639  _name */\n      dup6\n        /* \"contracts/Decentralized_Marketplace.sol\":2628:2647  bytes(_name).length */\n      mload\n        /* \"contracts/Decentralized_Marketplace.sol\":2628:2651  bytes(_name).length > 0 */\n      gt\n        /* \"contracts/Decentralized_Marketplace.sol\":2620:2681  require(bytes(_name).length > 0, \"Item name cannot be empty\") */\n      tag_85\n      jumpi\n      mload(0x40)\n      0x08c379a000000000000000000000000000000000000000000000000000000000\n      dup2\n      mstore\n      0x04\n      add\n      tag_86\n      swap1\n      tag_87\n      jump\t// in\n    tag_86:\n      mload(0x40)\n      dup1\n      swap2\n      sub\n      swap1\n      revert\n    tag_85:\n        /* \"contracts/Decentralized_Marketplace.sol\":2729:2730  0 */\n      0x00\n        /* \"contracts/Decentralized_Marketplace.sol\":2706:2718  _description */\n      dup5\n        /* \"contracts/Decentralized_Marketplace.sol\":2700:2726  bytes(_description).length */\n      mload\n        /* \"contracts/Decentralized_Marketplace.sol\":2700:2730  bytes(_description).length > 0 */\n      gt\n        /* \"contracts/Decentralized_Marketplace.sol\":2692:2767  require(bytes(_description).length > 0, \"Item description cannot be empty\") */\n      tag_88\n      jumpi\n      mload(0x40)\n      0x08c379a000000000000000000000000000000000000000000000000000000000\n      dup2\n      mstore\n      0x04\n      add\n      tag_89\n      swap1\n      tag_90\n      jump\t// in\n    tag_89:\n      mload(0x40)\n      dup1\n      swap2\n      sub\n      swap1\n      revert\n    tag_88:\n        /* \"contracts/Decentralized_Marketplace.sol\":2795:2796  0 */\n      0x00\n        /* \"contracts/Decentralized_Marketplace.sol\":2786:2792  _price */\n      dup4\n        /* \"contracts/Decentralized_Marketplace.sol\":2786:2796  _price > 0 */\n      gt\n        /* \"contracts/Decentralized_Marketplace.sol\":2778:2832  require(_price > 0, \"Price must be greater than zero\") */\n      tag_91\n      jumpi\n      mload(0x40)\n      0x08c379a000000000000000000000000000000000000000000000000000000000\n      dup2\n      mstore\n      0x04\n      add\n      tag_92\n      swap1\n      tag_93\n      jump\t// in\n    tag_92:\n      mload(0x40)\n      dup1\n      swap2\n      sub\n      swap1\n      revert\n    tag_91:\n        /* \"contracts/Decentralized_Marketplace.sol\":2863:2864  0 */\n      0x00\n        /* \"contracts/Decentralized_Marketplace.sol\":2851:2860  _quantity */\n      dup3\n        /* \"contracts/Decentralized_Marketplace.sol\":2851:2864  _quantity > 0 */\n      gt\n        /* \"contracts/Decentralized_Marketplace.sol\":2843:2903  require(_quantity > 0, \"Quantity must be greater than zero\") */\n      tag_94\n      jumpi\n      mload(0x40)\n      0x08c379a000000000000000000000000000000000000000000000000000000000\n      dup2\n      mstore\n      0x04\n      add\n      tag_95\n      swap1\n      tag_96\n      jump\t// in\n    tag_95:\n      mload(0x40)\n      dup1\n      swap2\n      sub\n      swap1\n      revert\n    tag_94:\n        /* \"contracts/Decentralized_Marketplace.sol\":2916:2933  Item storage item */\n      0x00\n        /* \"contracts/Decentralized_Marketplace.sol\":2936:2947  sellerItems */\n      dup1\n        /* \"contracts/Decentralized_Marketplace.sol\":2936:2959  sellerItems[msg.sender] */\n      0x00\n        /* \"contracts/Decentralized_Marketplace.sol\":2948:2958  msg.sender */\n      caller\n        /* \"contracts/Decentralized_Marketplace.sol\":2936:2959  sellerItems[msg.sender] */\n      0xffffffffffffffffffffffffffffffffffffffff\n      and\n      0xffffffffffffffffffffffffffffffffffffffff\n      and\n      dup2\n      mstore\n      0x20\n      add\n      swap1\n      dup2\n      mstore\n      0x20\n      add\n      0x00\n      keccak256\n        /* \"contracts/Decentralized_Marketplace.sol\":2960:2970  _itemIndex */\n      dup8\n        /* \"contracts/Decentralized_Marketplace.sol\":2936:2971  sellerItems[msg.sender][_itemIndex] */\n      dup2\n      sload\n      dup2\n      lt\n      tag_97\n      jumpi\n      tag_98\n      tag_64\n      jump\t// in\n    tag_98:\n    tag_97:\n      swap1\n      0x00\n      mstore\n      keccak256(0x00, 0x20)\n      swap1\n      0x04\n      mul\n      add\n        /* \"contracts/Decentralized_Marketplace.sol\":2916:2971  Item storage item = sellerItems[msg.sender][_itemIndex] */\n      swap1\n      pop\n        /* \"contracts/Decentralized_Marketplace.sol\":2994:2999  _name */\n      dup6\n        /* \"contracts/Decentralized_Marketplace.sol\":2982:2986  item */\n      dup2\n        /* \"contracts/Decentralized_Marketplace.sol\":2982:2991  item.name */\n      0x00\n      add\n        /* \"contracts/Decentralized_Marketplace.sol\":2982:2999  item.name = _name */\n      swap1\n      dup2\n      tag_100\n      swap2\n      swap1\n      tag_101\n      jump\t// in\n    tag_100:\n      pop\n        /* \"contracts/Decentralized_Marketplace.sol\":3029:3041  _description */\n      dup5\n        /* \"contracts/Decentralized_Marketplace.sol\":3010:3014  item */\n      dup2\n        /* \"contracts/Decentralized_Marketplace.sol\":3010:3026  item.description */\n      0x01\n      add\n        /* \"contracts/Decentralized_Marketplace.sol\":3010:3041  item.description = _description */\n      swap1\n      dup2\n      tag_102\n      swap2\n      swap1\n      tag_101\n      jump\t// in\n    tag_102:\n      pop\n        /* \"contracts/Decentralized_Marketplace.sol\":3065:3071  _price */\n      dup4\n        /* \"contracts/Decentralized_Marketplace.sol\":3052:3056  item */\n      dup2\n        /* \"contracts/Decentralized_Marketplace.sol\":3052:3062  item.price */\n      0x02\n      add\n        /* \"contracts/Decentralized_Marketplace.sol\":3052:3071  item.price = _price */\n      dup2\n      swap1\n      sstore\n      pop\n        /* \"contracts/Decentralized_Marketplace.sol\":3098:3107  _quantity */\n      dup3\n        /* \"contracts/Decentralized_Marketplace.sol\":3082:3086  item */\n      dup2\n        /* \"contracts/Decentralized_Marketplace.sol\":3082:3095  item.quantity */\n      0x03\n      add\n        /* \"contracts/Decentralized_Marketplace.sol\":3082:3107  item.quantity = _quantity */\n      dup2\n      swap1\n      sstore\n      pop\n        /* \"contracts/Decentralized_Marketplace.sol\":3136:3146  msg.sender */\n      caller\n        /* \"contracts/Decentralized_Marketplace.sol\":3125:3185  ItemEdited(msg.sender, _itemIndex, _name, _price, _quantity) */\n      0xffffffffffffffffffffffffffffffffffffffff\n      and\n      0x26bebd3959d815dff8c358d75d954372996041bcce5252e42dacaad92b379404\n        /* \"contracts/Decentralized_Marketplace.sol\":3148:3158  _itemIndex */\n      dup9\n        /* \"contracts/Decentralized_Marketplace.sol\":3160:3165  _name */\n      dup9\n        /* \"contracts/Decentralized_Marketplace.sol\":3167:3173  _price */\n      dup8\n        /* \"contracts/Decentralized_Marketplace.sol\":3175:3184  _quantity */\n      dup8\n        /* \"contracts/Decentralized_Marketplace.sol\":3125:3185  ItemEdited(msg.sender, _itemIndex, _name, _price, _quantity) */\n      mload(0x40)\n      tag_103\n      swap5\n      swap4\n      swap3\n      swap2\n      swap1\n      tag_104\n      jump\t// in\n    tag_103:\n      mload(0x40)\n      dup1\n      swap2\n      sub\n      swap1\n      log2\n        /* \"contracts/Decentralized_Marketplace.sol\":2609:3193  {... */\n      pop\n        /* \"contracts/Decentralized_Marketplace.sol\":2402:3193  function editItem(... */\n      pop\n      pop\n      pop\n      pop\n      pop\n      pop\n      jump\t// out\n        /* \"contracts/Decentralized_Marketplace.sol\":3676:3799  function getSellerItems(address _seller) public view returns (Item[] memory) {... */\n    tag_29:\n        /* \"contracts/Decentralized_Marketplace.sol\":3738:3751  Item[] memory */\n      0x60\n        /* \"contracts/Decentralized_Marketplace.sol\":3771:3782  sellerItems */\n      0x00\n        /* \"contracts/Decentralized_Marketplace.sol\":3771:3791  sellerItems[_seller] */\n      dup1\n        /* \"contracts/Decentralized_Marketplace.sol\":3783:3790  _seller */\n      dup4\n        /* \"contracts/Decentralized_Marketplace.sol\":3771:3791  sellerItems[_seller] */\n      0xffffffffffffffffffffffffffffffffffffffff\n      and\n      0xffffffffffffffffffffffffffffffffffffffff\n      and\n      dup2\n      mstore\n      0x20\n      add\n      swap1\n      dup2\n      mstore\n      0x20\n      add\n      0x00\n      keccak256\n        /* \"contracts/Decentralized_Marketplace.sol\":3764:3791  return sellerItems[_seller] */\n      dup1\n      sload\n      dup1\n      0x20\n      mul\n      0x20\n      add\n      mload(0x40)\n      swap1\n      dup2\n      add\n      0x40\n      mstore\n      dup1\n      swap3\n      swap2\n      swap1\n      dup2\n      dup2\n      mstore\n      0x20\n      add\n      0x00\n      swap1\n    tag_106:\n      dup3\n      dup3\n      lt\n      iszero\n      tag_107\n      jumpi\n      dup4\n      dup3\n      swap1\n      0x00\n      mstore\n      keccak256(0x00, 0x20)\n      swap1\n      0x04\n      mul\n      add\n      mload(0x40)\n      dup1\n      0x80\n      add\n      0x40\n      mstore\n      swap1\n      dup2\n      0x00\n      dup3\n      add\n      dup1\n      sload\n      tag_109\n      swap1\n      tag_44\n      jump\t// in\n    tag_109:\n      dup1\n      0x1f\n      add\n      0x20\n      dup1\n      swap2\n      div\n      mul\n      0x20\n      add\n      mload(0x40)\n      swap1\n      dup2\n      add\n      0x40\n      mstore\n      dup1\n      swap3\n      swap2\n      swap1\n      dup2\n      dup2\n      mstore\n      0x20\n      add\n      dup3\n      dup1\n      sload\n      tag_110\n      swap1\n      tag_44\n      jump\t// in\n    tag_110:\n      dup1\n      iszero\n      tag_111\n      jumpi\n      dup1\n      0x1f\n      lt\n      tag_112\n      jumpi\n      0x0100\n      dup1\n      dup4\n      sload\n      div\n      mul\n      dup4\n      mstore\n      swap2\n      0x20\n      add\n      swap2\n      jump(tag_111)\n    tag_112:\n      dup3\n      add\n      swap2\n      swap1\n      0x00\n      mstore\n      keccak256(0x00, 0x20)\n      swap1\n    tag_113:\n      dup2\n      sload\n      dup2\n      mstore\n      swap1\n      0x01\n      add\n      swap1\n      0x20\n      add\n      dup1\n      dup4\n      gt\n      tag_113\n      jumpi\n      dup3\n      swap1\n      sub\n      0x1f\n      and\n      dup3\n      add\n      swap2\n    tag_111:\n      pop\n      pop\n      pop\n      pop\n      pop\n      dup2\n      mstore\n      0x20\n      add\n      0x01\n      dup3\n      add\n      dup1\n      sload\n      tag_114\n      swap1\n      tag_44\n      jump\t// in\n    tag_114:\n      dup1\n      0x1f\n      add\n      0x20\n      dup1\n      swap2\n      div\n      mul\n      0x20\n      add\n      mload(0x40)\n      swap1\n      dup2\n      add\n      0x40\n      mstore\n      dup1\n      swap3\n      swap2\n      swap1\n      dup2\n      dup2\n      mstore\n      0x20\n      add\n      dup3\n      dup1\n      sload\n      tag_115\n      swap1\n      tag_44\n      jump\t// in\n    tag_115:\n      dup1\n      iszero\n      tag_116\n      jumpi\n      dup1\n      0x1f\n      lt\n      tag_117\n      jumpi\n      0x0100\n      dup1\n      dup4\n      sload\n      div\n      mul\n      dup4\n      mstore\n      swap2\n      0x20\n      add\n      swap2\n      jump(tag_116)\n    tag_117:\n      dup3\n      add\n      swap2\n      swap1\n      0x00\n      mstore\n      keccak256(0x00, 0x20)\n      swap1\n    tag_118:\n      dup2\n      sload\n      dup2\n      mstore\n      swap1\n      0x01\n      add\n      swap1\n      0x20\n      add\n      dup1\n      dup4\n      gt\n      tag_118\n      jumpi\n      dup3\n      swap1\n      sub\n      0x1f\n      and\n      dup3\n      add\n      swap2\n    tag_116:\n      pop\n      pop\n      pop\n      pop\n      pop\n      dup2\n      mstore\n      0x20\n      add\n      0x02\n      dup3\n      add\n      sload\n      dup2\n      mstore\n      0x20\n      add\n      0x03\n      dup3\n      add\n      sload\n      dup2\n      mstore\n      pop\n      pop\n      dup2\n      mstore\n      0x20\n      add\n      swap1\n      0x01\n      add\n      swap1\n      jump(tag_106)\n    tag_107:\n      pop\n      pop\n      pop\n      pop\n      swap1\n      pop\n        /* \"contracts/Decentralized_Marketplace.sol\":3676:3799  function getSellerItems(address _seller) public view returns (Item[] memory) {... */\n      swap2\n      swap1\n      pop\n      jump\t// out\n        /* \"contracts/Decentralized_Marketplace.sol\":1540:2352  function listItem(... */\n    tag_36:\n        /* \"contracts/Decentralized_Marketplace.sol\":1733:1734  0 */\n      0x00\n        /* \"contracts/Decentralized_Marketplace.sol\":1717:1722  _name */\n      dup5\n        /* \"contracts/Decentralized_Marketplace.sol\":1711:1730  bytes(_name).length */\n      mload\n        /* \"contracts/Decentralized_Marketplace.sol\":1711:1734  bytes(_name).length > 0 */\n      gt\n        /* \"contracts/Decentralized_Marketplace.sol\":1703:1764  require(bytes(_name).length > 0, \"Item name cannot be empty\") */\n      tag_120\n      jumpi\n      mload(0x40)\n      0x08c379a000000000000000000000000000000000000000000000000000000000\n      dup2\n      mstore\n      0x04\n      add\n      tag_121\n      swap1\n      tag_87\n      jump\t// in\n    tag_121:\n      mload(0x40)\n      dup1\n      swap2\n      sub\n      swap1\n      revert\n    tag_120:\n        /* \"contracts/Decentralized_Marketplace.sol\":1812:1813  0 */\n      0x00\n        /* \"contracts/Decentralized_Marketplace.sol\":1789:1801  _description */\n      dup4\n        /* \"contracts/Decentralized_Marketplace.sol\":1783:1809  bytes(_description).length */\n      mload\n        /* \"contracts/Decentralized_Marketplace.sol\":1783:1813  bytes(_description).length > 0 */\n      gt\n        /* \"contracts/Decentralized_Marketplace.sol\":1775:1850  require(bytes(_description).length > 0, \"Item description cannot be empty\") */\n      tag_122\n      jumpi\n      mload(0x40)\n      0x08c379a000000000000000000000000000000000000000000000000000000000\n      dup2\n      mstore\n      0x04\n      add\n      tag_123\n      swap1\n      tag_90\n      jump\t// in\n    tag_123:\n      mload(0x40)\n      dup1\n      swap2\n      sub\n      swap1\n      revert\n    tag_122:\n        /* \"contracts/Decentralized_Marketplace.sol\":1878:1879  0 */\n      0x00\n        /* \"contracts/Decentralized_Marketplace.sol\":1869:1875  _price */\n      dup3\n        /* \"contracts/Decentralized_Marketplace.sol\":1869:1879  _price > 0 */\n      gt\n        /* \"contracts/Decentralized_Marketplace.sol\":1861:1915  require(_price > 0, \"Price must be greater than zero\") */\n      tag_124\n      jumpi\n      mload(0x40)\n      0x08c379a000000000000000000000000000000000000000000000000000000000\n      dup2\n      mstore\n      0x04\n      add\n      tag_125\n      swap1\n      tag_93\n      jump\t// in\n    tag_125:\n      mload(0x40)\n      dup1\n      swap2\n      sub\n      swap1\n      revert\n    tag_124:\n        /* \"contracts/Decentralized_Marketplace.sol\":1946:1947  0 */\n      0x00\n        /* \"contracts/Decentralized_Marketplace.sol\":1934:1943  _quantity */\n      dup2\n        /* \"contracts/Decentralized_Marketplace.sol\":1934:1947  _quantity > 0 */\n      gt\n        /* \"contracts/Decentralized_Marketplace.sol\":1926:1986  require(_quantity > 0, \"Quantity must be greater than zero\") */\n      tag_126\n      jumpi\n      mload(0x40)\n      0x08c379a000000000000000000000000000000000000000000000000000000000\n      dup2\n      mstore\n      0x04\n      add\n      tag_127\n      swap1\n      tag_96\n      jump\t// in\n    tag_127:\n      mload(0x40)\n      dup1\n      swap2\n      sub\n      swap1\n      revert\n    tag_126:\n        /* \"contracts/Decentralized_Marketplace.sol\":2061:2080  Item memory newItem */\n      0x00\n        /* \"contracts/Decentralized_Marketplace.sol\":2083:2228  Item({... */\n      mload(0x40)\n      dup1\n      0x80\n      add\n      0x40\n      mstore\n      dup1\n        /* \"contracts/Decentralized_Marketplace.sol\":2109:2114  _name */\n      dup7\n        /* \"contracts/Decentralized_Marketplace.sol\":2083:2228  Item({... */\n      dup2\n      mstore\n      0x20\n      add\n        /* \"contracts/Decentralized_Marketplace.sol\":2142:2154  _description */\n      dup6\n        /* \"contracts/Decentralized_Marketplace.sol\":2083:2228  Item({... */\n      dup2\n      mstore\n      0x20\n      add\n        /* \"contracts/Decentralized_Marketplace.sol\":2176:2182  _price */\n      dup5\n        /* \"contracts/Decentralized_Marketplace.sol\":2083:2228  Item({... */\n      dup2\n      mstore\n      0x20\n      add\n        /* \"contracts/Decentralized_Marketplace.sol\":2207:2216  _quantity */\n      dup4\n        /* \"contracts/Decentralized_Marketplace.sol\":2083:2228  Item({... */\n      dup2\n      mstore\n      pop\n        /* \"contracts/Decentralized_Marketplace.sol\":2061:2228  Item memory newItem = Item({... */\n      swap1\n      pop\n        /* \"contracts/Decentralized_Marketplace.sol\":2241:2252  sellerItems */\n      0x00\n        /* \"contracts/Decentralized_Marketplace.sol\":2241:2264  sellerItems[msg.sender] */\n      dup1\n        /* \"contracts/Decentralized_Marketplace.sol\":2253:2263  msg.sender */\n      caller\n        /* \"contracts/Decentralized_Marketplace.sol\":2241:2264  sellerItems[msg.sender] */\n      0xffffffffffffffffffffffffffffffffffffffff\n      and\n      0xffffffffffffffffffffffffffffffffffffffff\n      and\n      dup2\n      mstore\n      0x20\n      add\n      swap1\n      dup2\n      mstore\n      0x20\n      add\n      0x00\n      keccak256\n        /* \"contracts/Decentralized_Marketplace.sol\":2270:2277  newItem */\n      dup2\n        /* \"contracts/Decentralized_Marketplace.sol\":2241:2278  sellerItems[msg.sender].push(newItem) */\n      swap1\n      dup1\n      0x01\n      dup2\n      sload\n      add\n      dup1\n      dup3\n      sstore\n      dup1\n      swap2\n      pop\n      pop\n      0x01\n      swap1\n      sub\n      swap1\n      0x00\n      mstore\n      keccak256(0x00, 0x20)\n      swap1\n      0x04\n      mul\n      add\n      0x00\n      swap1\n      swap2\n      swap1\n      swap2\n      swap1\n      swap2\n      pop\n      0x00\n      dup3\n      add\n      mload\n      dup2\n      0x00\n      add\n      swap1\n      dup2\n      tag_129\n      swap2\n      swap1\n      tag_101\n      jump\t// in\n    tag_129:\n      pop\n      0x20\n      dup3\n      add\n      mload\n      dup2\n      0x01\n      add\n      swap1\n      dup2\n      tag_130\n      swap2\n      swap1\n      tag_101\n      jump\t// in\n    tag_130:\n      pop\n      0x40\n      dup3\n      add\n      mload\n      dup2\n      0x02\n      add\n      sstore\n      0x60\n      dup3\n      add\n      mload\n      dup2\n      0x03\n      add\n      sstore\n      pop\n      pop\n        /* \"contracts/Decentralized_Marketplace.sol\":2307:2317  msg.sender */\n      caller\n        /* \"contracts/Decentralized_Marketplace.sol\":2296:2344  ItemListed(msg.sender, _name, _price, _quantity) */\n      0xffffffffffffffffffffffffffffffffffffffff\n      and\n      0x35562100a34097fd1f91646348c0ceb4042d4282d31931fbc444cf12745f6b07\n        /* \"contracts/Decentralized_Marketplace.sol\":2319:2324  _name */\n      dup7\n        /* \"contracts/Decentralized_Marketplace.sol\":2326:2332  _price */\n      dup6\n        /* \"contracts/Decentralized_Marketplace.sol\":2334:2343  _quantity */\n      dup6\n        /* \"contracts/Decentralized_Marketplace.sol\":2296:2344  ItemListed(msg.sender, _name, _price, _quantity) */\n      mload(0x40)\n      tag_131\n      swap4\n      swap3\n      swap2\n      swap1\n      tag_132\n      jump\t// in\n    tag_131:\n      mload(0x40)\n      dup1\n      swap2\n      sub\n      swap1\n      log2\n        /* \"contracts/Decentralized_Marketplace.sol\":1692:2352  {... */\n      pop\n        /* \"contracts/Decentralized_Marketplace.sol\":1540:2352  function listItem(... */\n      pop\n      pop\n      pop\n      pop\n      jump\t// out\n        /* \"contracts/Decentralized_Marketplace.sol\":3844:4560  function purchaseItem(address _seller, uint256 _itemIndex, uint256 _quantity) public payable {... */\n    tag_40:\n        /* \"contracts/Decentralized_Marketplace.sol\":3968:3969  0 */\n      0x00\n        /* \"contracts/Decentralized_Marketplace.sol\":3956:3965  _quantity */\n      dup2\n        /* \"contracts/Decentralized_Marketplace.sol\":3956:3969  _quantity > 0 */\n      gt\n        /* \"contracts/Decentralized_Marketplace.sol\":3948:4008  require(_quantity > 0, \"Quantity must be greater than zero\") */\n      tag_134\n      jumpi\n      mload(0x40)\n      0x08c379a000000000000000000000000000000000000000000000000000000000\n      dup2\n      mstore\n      0x04\n      add\n      tag_135\n      swap1\n      tag_96\n      jump\t// in\n    tag_135:\n      mload(0x40)\n      dup1\n      swap2\n      sub\n      swap1\n      revert\n    tag_134:\n        /* \"contracts/Decentralized_Marketplace.sol\":4040:4051  sellerItems */\n      0x00\n        /* \"contracts/Decentralized_Marketplace.sol\":4040:4060  sellerItems[_seller] */\n      dup1\n        /* \"contracts/Decentralized_Marketplace.sol\":4052:4059  _seller */\n      dup5\n        /* \"contracts/Decentralized_Marketplace.sol\":4040:4060  sellerItems[_seller] */\n      0xffffffffffffffffffffffffffffffffffffffff\n      and\n      0xffffffffffffffffffffffffffffffffffffffff\n      and\n      dup2\n      mstore\n      0x20\n      add\n      swap1\n      dup2\n      mstore\n      0x20\n      add\n      0x00\n      keccak256\n        /* \"contracts/Decentralized_Marketplace.sol\":4040:4067  sellerItems[_seller].length */\n      dup1\n      sload\n      swap1\n      pop\n        /* \"contracts/Decentralized_Marketplace.sol\":4027:4037  _itemIndex */\n      dup3\n        /* \"contracts/Decentralized_Marketplace.sol\":4027:4067  _itemIndex < sellerItems[_seller].length */\n      lt\n        /* \"contracts/Decentralized_Marketplace.sol\":4019:4090  require(_itemIndex < sellerItems[_seller].length, \"Invalid item index\") */\n      tag_136\n      jumpi\n      mload(0x40)\n      0x08c379a000000000000000000000000000000000000000000000000000000000\n      dup2\n      mstore\n      0x04\n      add\n      tag_137\n      swap1\n      tag_57\n      jump\t// in\n    tag_137:\n      mload(0x40)\n      dup1\n      swap2\n      sub\n      swap1\n      revert\n    tag_136:\n        /* \"contracts/Decentralized_Marketplace.sol\":4103:4120  Item storage item */\n      0x00\n        /* \"contracts/Decentralized_Marketplace.sol\":4123:4134  sellerItems */\n      dup1\n        /* \"contracts/Decentralized_Marketplace.sol\":4123:4143  sellerItems[_seller] */\n      0x00\n        /* \"contracts/Decentralized_Marketplace.sol\":4135:4142  _seller */\n      dup6\n        /* \"contracts/Decentralized_Marketplace.sol\":4123:4143  sellerItems[_seller] */\n      0xffffffffffffffffffffffffffffffffffffffff\n      and\n      0xffffffffffffffffffffffffffffffffffffffff\n      and\n      dup2\n      mstore\n      0x20\n      add\n      swap1\n      dup2\n      mstore\n      0x20\n      add\n      0x00\n      keccak256\n        /* \"contracts/Decentralized_Marketplace.sol\":4144:4154  _itemIndex */\n      dup4\n        /* \"contracts/Decentralized_Marketplace.sol\":4123:4155  sellerItems[_seller][_itemIndex] */\n      dup2\n      sload\n      dup2\n      lt\n      tag_138\n      jumpi\n      tag_139\n      tag_64\n      jump\t// in\n    tag_139:\n    tag_138:\n      swap1\n      0x00\n      mstore\n      keccak256(0x00, 0x20)\n      swap1\n      0x04\n      mul\n      add\n        /* \"contracts/Decentralized_Marketplace.sol\":4103:4155  Item storage item = sellerItems[_seller][_itemIndex] */\n      swap1\n      pop\n        /* \"contracts/Decentralized_Marketplace.sol\":4187:4191  item */\n      dup1\n        /* \"contracts/Decentralized_Marketplace.sol\":4187:4200  item.quantity */\n      0x03\n      add\n      sload\n        /* \"contracts/Decentralized_Marketplace.sol\":4174:4183  _quantity */\n      dup3\n        /* \"contracts/Decentralized_Marketplace.sol\":4174:4200  _quantity <= item.quantity */\n      gt\n      iszero\n        /* \"contracts/Decentralized_Marketplace.sol\":4166:4221  require(_quantity <= item.quantity, \"Not enough stock\") */\n      tag_141\n      jumpi\n      mload(0x40)\n      0x08c379a000000000000000000000000000000000000000000000000000000000\n      dup2\n      mstore\n      0x04\n      add\n      tag_142\n      swap1\n      tag_143\n      jump\t// in\n    tag_142:\n      mload(0x40)\n      dup1\n      swap2\n      sub\n      swap1\n      revert\n    tag_141:\n        /* \"contracts/Decentralized_Marketplace.sol\":4266:4275  _quantity */\n      dup2\n        /* \"contracts/Decentralized_Marketplace.sol\":4253:4257  item */\n      dup2\n        /* \"contracts/Decentralized_Marketplace.sol\":4253:4263  item.price */\n      0x02\n      add\n      sload\n        /* \"contracts/Decentralized_Marketplace.sol\":4253:4275  item.price * _quantity */\n      tag_144\n      swap2\n      swap1\n      tag_145\n      jump\t// in\n    tag_144:\n        /* \"contracts/Decentralized_Marketplace.sol\":4240:4249  msg.value */\n      callvalue\n        /* \"contracts/Decentralized_Marketplace.sol\":4240:4275  msg.value == item.price * _quantity */\n      eq\n        /* \"contracts/Decentralized_Marketplace.sol\":4232:4304  require(msg.value == item.price * _quantity, \"Incorrect payment amount\") */\n      tag_146\n      jumpi\n      mload(0x40)\n      0x08c379a000000000000000000000000000000000000000000000000000000000\n      dup2\n      mstore\n      0x04\n      add\n      tag_147\n      swap1\n      tag_148\n      jump\t// in\n    tag_147:\n      mload(0x40)\n      dup1\n      swap2\n      sub\n      swap1\n      revert\n    tag_146:\n        /* \"contracts/Decentralized_Marketplace.sol\":4368:4375  _seller */\n      dup4\n        /* \"contracts/Decentralized_Marketplace.sol\":4360:4385  payable(_seller).transfer */\n      0xffffffffffffffffffffffffffffffffffffffff\n      and\n        /* \"contracts/Decentralized_Marketplace.sol\":4360:4396  payable(_seller).transfer(msg.value) */\n      0x08fc\n        /* \"contracts/Decentralized_Marketplace.sol\":4386:4395  msg.value */\n      callvalue\n        /* \"contracts/Decentralized_Marketplace.sol\":4360:4396  payable(_seller).transfer(msg.value) */\n      swap1\n      dup2\n      iszero\n      mul\n      swap1\n      mload(0x40)\n      0x00\n      mload(0x40)\n      dup1\n      dup4\n      sub\n      dup2\n      dup6\n      dup9\n      dup9\n      call\n      swap4\n      pop\n      pop\n      pop\n      pop\n      iszero\n      dup1\n      iszero\n      tag_150\n      jumpi\n      returndatasize\n      0x00\n      dup1\n      returndatacopy\n      revert(0x00, returndatasize)\n    tag_150:\n      pop\n        /* \"contracts/Decentralized_Marketplace.sol\":4468:4477  _quantity */\n      dup2\n        /* \"contracts/Decentralized_Marketplace.sol\":4451:4455  item */\n      dup2\n        /* \"contracts/Decentralized_Marketplace.sol\":4451:4464  item.quantity */\n      0x03\n      add\n      0x00\n        /* \"contracts/Decentralized_Marketplace.sol\":4451:4477  item.quantity -= _quantity */\n      dup3\n      dup3\n      sload\n      tag_151\n      swap2\n      swap1\n      tag_60\n      jump\t// in\n    tag_151:\n      swap3\n      pop\n      pop\n      dup2\n      swap1\n      sstore\n      pop\n        /* \"contracts/Decentralized_Marketplace.sol\":4521:4528  _seller */\n      dup4\n        /* \"contracts/Decentralized_Marketplace.sol\":4495:4552  ItemPurchased(msg.sender, _seller, _itemIndex, _quantity) */\n      0xffffffffffffffffffffffffffffffffffffffff\n      and\n        /* \"contracts/Decentralized_Marketplace.sol\":4509:4519  msg.sender */\n      caller\n        /* \"contracts/Decentralized_Marketplace.sol\":4495:4552  ItemPurchased(msg.sender, _seller, _itemIndex, _quantity) */\n      0xffffffffffffffffffffffffffffffffffffffff\n      and\n      0x53d5014fa27fa078ecec13b4311f8520b2192980af8b38cf8e870ed265760464\n        /* \"contracts/Decentralized_Marketplace.sol\":4530:4540  _itemIndex */\n      dup6\n        /* \"contracts/Decentralized_Marketplace.sol\":4542:4551  _quantity */\n      dup6\n        /* \"contracts/Decentralized_Marketplace.sol\":4495:4552  ItemPurchased(msg.sender, _seller, _itemIndex, _quantity) */\n      mload(0x40)\n      tag_152\n      swap3\n      swap2\n      swap1\n      tag_153\n      jump\t// in\n    tag_152:\n      mload(0x40)\n      dup1\n      swap2\n      sub\n      swap1\n      log3\n        /* \"contracts/Decentralized_Marketplace.sol\":3937:4560  {... */\n      pop\n        /* \"contracts/Decentralized_Marketplace.sol\":3844:4560  function purchaseItem(address _seller, uint256 _itemIndex, uint256 _quantity) public payable {... */\n      pop\n      pop\n      pop\n      jump\t// out\n    tag_77:\n      pop\n      dup1\n      sload\n      tag_154\n      swap1\n      tag_44\n      jump\t// in\n    tag_154:\n      0x00\n      dup3\n      sstore\n      dup1\n      0x1f\n      lt\n      tag_156\n      jumpi\n      pop\n      jump(tag_155)\n    tag_156:\n      0x1f\n      add\n      0x20\n      swap1\n      div\n      swap1\n      0x00\n      mstore\n      keccak256(0x00, 0x20)\n      swap1\n      dup2\n      add\n      swap1\n      tag_157\n      swap2\n      swap1\n      tag_158\n      jump\t// in\n    tag_157:\n    tag_155:\n      pop\n      jump\t// out\n    tag_158:\n    tag_159:\n      dup1\n      dup3\n      gt\n      iszero\n      tag_160\n      jumpi\n      0x00\n      dup2\n      0x00\n      swap1\n      sstore\n      pop\n      0x01\n      add\n      jump(tag_159)\n    tag_160:\n      pop\n      swap1\n      jump\t// out\n        /* \"#utility.yul\":7:82   */\n    tag_161:\n        /* \"#utility.yul\":40:46   */\n      0x00\n        /* \"#utility.yul\":73:75   */\n      0x40\n        /* \"#utility.yul\":67:76   */\n      mload\n        /* \"#utility.yul\":57:76   */\n      swap1\n      pop\n        /* \"#utility.yul\":7:82   */\n      swap1\n      jump\t// out\n        /* \"#utility.yul\":88:205   */\n    tag_162:\n        /* \"#utility.yul\":197:198   */\n      0x00\n        /* \"#utility.yul\":194:195   */\n      dup1\n        /* \"#utility.yul\":187:199   */\n      revert\n        /* \"#utility.yul\":211:328   */\n    tag_163:\n        /* \"#utility.yul\":320:321   */\n      0x00\n        /* \"#utility.yul\":317:318   */\n      dup1\n        /* \"#utility.yul\":310:322   */\n      revert\n        /* \"#utility.yul\":334:460   */\n    tag_164:\n        /* \"#utility.yul\":371:378   */\n      0x00\n        /* \"#utility.yul\":411:453   */\n      0xffffffffffffffffffffffffffffffffffffffff\n        /* \"#utility.yul\":404:409   */\n      dup3\n        /* \"#utility.yul\":400:454   */\n      and\n        /* \"#utility.yul\":389:454   */\n      swap1\n      pop\n        /* \"#utility.yul\":334:460   */\n      swap2\n      swap1\n      pop\n      jump\t// out\n        /* \"#utility.yul\":466:562   */\n    tag_165:\n        /* \"#utility.yul\":503:510   */\n      0x00\n        /* \"#utility.yul\":532:556   */\n      tag_234\n        /* \"#utility.yul\":550:555   */\n      dup3\n        /* \"#utility.yul\":532:556   */\n      tag_164\n      jump\t// in\n    tag_234:\n        /* \"#utility.yul\":521:556   */\n      swap1\n      pop\n        /* \"#utility.yul\":466:562   */\n      swap2\n      swap1\n      pop\n      jump\t// out\n        /* \"#utility.yul\":568:690   */\n    tag_166:\n        /* \"#utility.yul\":641:665   */\n      tag_236\n        /* \"#utility.yul\":659:664   */\n      dup2\n        /* \"#utility.yul\":641:665   */\n      tag_165\n      jump\t// in\n    tag_236:\n        /* \"#utility.yul\":634:639   */\n      dup2\n        /* \"#utility.yul\":631:666   */\n      eq\n        /* \"#utility.yul\":621:684   */\n      tag_237\n      jumpi\n        /* \"#utility.yul\":680:681   */\n      0x00\n        /* \"#utility.yul\":677:678   */\n      dup1\n        /* \"#utility.yul\":670:682   */\n      revert\n        /* \"#utility.yul\":621:684   */\n    tag_237:\n        /* \"#utility.yul\":568:690   */\n      pop\n      jump\t// out\n        /* \"#utility.yul\":696:835   */\n    tag_167:\n        /* \"#utility.yul\":742:747   */\n      0x00\n        /* \"#utility.yul\":780:786   */\n      dup2\n        /* \"#utility.yul\":767:787   */\n      calldataload\n        /* \"#utility.yul\":758:787   */\n      swap1\n      pop\n        /* \"#utility.yul\":796:829   */\n      tag_239\n        /* \"#utility.yul\":823:828   */\n      dup2\n        /* \"#utility.yul\":796:829   */\n      tag_166\n      jump\t// in\n    tag_239:\n        /* \"#utility.yul\":696:835   */\n      swap3\n      swap2\n      pop\n      pop\n      jump\t// out\n        /* \"#utility.yul\":841:918   */\n    tag_168:\n        /* \"#utility.yul\":878:885   */\n      0x00\n        /* \"#utility.yul\":907:912   */\n      dup2\n        /* \"#utility.yul\":896:912   */\n      swap1\n      pop\n        /* \"#utility.yul\":841:918   */\n      swap2\n      swap1\n      pop\n      jump\t// out\n        /* \"#utility.yul\":924:1046   */\n    tag_169:\n        /* \"#utility.yul\":997:1021   */\n      tag_242\n        /* \"#utility.yul\":1015:1020   */\n      dup2\n        /* \"#utility.yul\":997:1021   */\n      tag_168\n      jump\t// in\n    tag_242:\n        /* \"#utility.yul\":990:995   */\n      dup2\n        /* \"#utility.yul\":987:1022   */\n      eq\n        /* \"#utility.yul\":977:1040   */\n      tag_243\n      jumpi\n        /* \"#utility.yul\":1036:1037   */\n      0x00\n        /* \"#utility.yul\":1033:1034   */\n      dup1\n        /* \"#utility.yul\":1026:1038   */\n      revert\n        /* \"#utility.yul\":977:1040   */\n    tag_243:\n        /* \"#utility.yul\":924:1046   */\n      pop\n      jump\t// out\n        /* \"#utility.yul\":1052:1191   */\n    tag_170:\n        /* \"#utility.yul\":1098:1103   */\n      0x00\n        /* \"#utility.yul\":1136:1142   */\n      dup2\n        /* \"#utility.yul\":1123:1143   */\n      calldataload\n        /* \"#utility.yul\":1114:1143   */\n      swap1\n      pop\n        /* \"#utility.yul\":1152:1185   */\n      tag_245\n        /* \"#utility.yul\":1179:1184   */\n      dup2\n        /* \"#utility.yul\":1152:1185   */\n      tag_169\n      jump\t// in\n    tag_245:\n        /* \"#utility.yul\":1052:1191   */\n      swap3\n      swap2\n      pop\n      pop\n      jump\t// out\n        /* \"#utility.yul\":1197:1671   */\n    tag_11:\n        /* \"#utility.yul\":1265:1271   */\n      0x00\n        /* \"#utility.yul\":1273:1279   */\n      dup1\n        /* \"#utility.yul\":1322:1324   */\n      0x40\n        /* \"#utility.yul\":1310:1319   */\n      dup4\n        /* \"#utility.yul\":1301:1308   */\n      dup6\n        /* \"#utility.yul\":1297:1320   */\n      sub\n        /* \"#utility.yul\":1293:1325   */\n      slt\n        /* \"#utility.yul\":1290:1409   */\n      iszero\n      tag_247\n      jumpi\n        /* \"#utility.yul\":1328:1407   */\n      tag_248\n      tag_162\n      jump\t// in\n    tag_248:\n        /* \"#utility.yul\":1290:1409   */\n    tag_247:\n        /* \"#utility.yul\":1448:1449   */\n      0x00\n        /* \"#utility.yul\":1473:1526   */\n      tag_249\n        /* \"#utility.yul\":1518:1525   */\n      dup6\n        /* \"#utility.yul\":1509:1515   */\n      dup3\n        /* \"#utility.yul\":1498:1507   */\n      dup7\n        /* \"#utility.yul\":1494:1516   */\n      add\n        /* \"#utility.yul\":1473:1526   */\n      tag_167\n      jump\t// in\n    tag_249:\n        /* \"#utility.yul\":1463:1526   */\n      swap3\n      pop\n        /* \"#utility.yul\":1419:1536   */\n      pop\n        /* \"#utility.yul\":1575:1577   */\n      0x20\n        /* \"#utility.yul\":1601:1654   */\n      tag_250\n        /* \"#utility.yul\":1646:1653   */\n      dup6\n        /* \"#utility.yul\":1637:1643   */\n      dup3\n        /* \"#utility.yul\":1626:1635   */\n      dup7\n        /* \"#utility.yul\":1622:1644   */\n      add\n        /* \"#utility.yul\":1601:1654   */\n      tag_170\n      jump\t// in\n    tag_250:\n        /* \"#utility.yul\":1591:1654   */\n      swap2\n      pop\n        /* \"#utility.yul\":1546:1664   */\n      pop\n        /* \"#utility.yul\":1197:1671   */\n      swap3\n      pop\n      swap3\n      swap1\n      pop\n      jump\t// out\n        /* \"#utility.yul\":1677:1776   */\n    tag_171:\n        /* \"#utility.yul\":1729:1735   */\n      0x00\n        /* \"#utility.yul\":1763:1768   */\n      dup2\n        /* \"#utility.yul\":1757:1769   */\n      mload\n        /* \"#utility.yul\":1747:1769   */\n      swap1\n      pop\n        /* \"#utility.yul\":1677:1776   */\n      swap2\n      swap1\n      pop\n      jump\t// out\n        /* \"#utility.yul\":1782:1951   */\n    tag_172:\n        /* \"#utility.yul\":1866:1877   */\n      0x00\n        /* \"#utility.yul\":1900:1906   */\n      dup3\n        /* \"#utility.yul\":1895:1898   */\n      dup3\n        /* \"#utility.yul\":1888:1907   */\n      mstore\n        /* \"#utility.yul\":1940:1944   */\n      0x20\n        /* \"#utility.yul\":1935:1938   */\n      dup3\n        /* \"#utility.yul\":1931:1945   */\n      add\n        /* \"#utility.yul\":1916:1945   */\n      swap1\n      pop\n        /* \"#utility.yul\":1782:1951   */\n      swap3\n      swap2\n      pop\n      pop\n      jump\t// out\n        /* \"#utility.yul\":1957:2096   */\n    tag_173:\n        /* \"#utility.yul\":2046:2052   */\n      dup3\n        /* \"#utility.yul\":2041:2044   */\n      dup2\n        /* \"#utility.yul\":2036:2039   */\n      dup4\n        /* \"#utility.yul\":2030:2053   */\n      mcopy\n        /* \"#utility.yul\":2087:2088   */\n      0x00\n        /* \"#utility.yul\":2078:2084   */\n      dup4\n        /* \"#utility.yul\":2073:2076   */\n      dup4\n        /* \"#utility.yul\":2069:2085   */\n      add\n        /* \"#utility.yul\":2062:2089   */\n      mstore\n        /* \"#utility.yul\":1957:2096   */\n      pop\n      pop\n      pop\n      jump\t// out\n        /* \"#utility.yul\":2102:2204   */\n    tag_174:\n        /* \"#utility.yul\":2143:2149   */\n      0x00\n        /* \"#utility.yul\":2194:2196   */\n      0x1f\n        /* \"#utility.yul\":2190:2197   */\n      not\n        /* \"#utility.yul\":2185:2187   */\n      0x1f\n        /* \"#utility.yul\":2178:2183   */\n      dup4\n        /* \"#utility.yul\":2174:2188   */\n      add\n        /* \"#utility.yul\":2170:2198   */\n      and\n        /* \"#utility.yul\":2160:2198   */\n      swap1\n      pop\n        /* \"#utility.yul\":2102:2204   */\n      swap2\n      swap1\n      pop\n      jump\t// out\n        /* \"#utility.yul\":2210:2587   */\n    tag_175:\n        /* \"#utility.yul\":2298:2301   */\n      0x00\n        /* \"#utility.yul\":2326:2365   */\n      tag_256\n        /* \"#utility.yul\":2359:2364   */\n      dup3\n        /* \"#utility.yul\":2326:2365   */\n      tag_171\n      jump\t// in\n    tag_256:\n        /* \"#utility.yul\":2381:2452   */\n      tag_257\n        /* \"#utility.yul\":2445:2451   */\n      dup2\n        /* \"#utility.yul\":2440:2443   */\n      dup6\n        /* \"#utility.yul\":2381:2452   */\n      tag_172\n      jump\t// in\n    tag_257:\n        /* \"#utility.yul\":2374:2452   */\n      swap4\n      pop\n        /* \"#utility.yul\":2461:2526   */\n      tag_258\n        /* \"#utility.yul\":2519:2525   */\n      dup2\n        /* \"#utility.yul\":2514:2517   */\n      dup6\n        /* \"#utility.yul\":2507:2511   */\n      0x20\n        /* \"#utility.yul\":2500:2505   */\n      dup7\n        /* \"#utility.yul\":2496:2512   */\n      add\n        /* \"#utility.yul\":2461:2526   */\n      tag_173\n      jump\t// in\n    tag_258:\n        /* \"#utility.yul\":2551:2580   */\n      tag_259\n        /* \"#utility.yul\":2573:2579   */\n      dup2\n        /* \"#utility.yul\":2551:2580   */\n      tag_174\n      jump\t// in\n    tag_259:\n        /* \"#utility.yul\":2546:2549   */\n      dup5\n        /* \"#utility.yul\":2542:2581   */\n      add\n        /* \"#utility.yul\":2535:2581   */\n      swap2\n      pop\n        /* \"#utility.yul\":2302:2587   */\n      pop\n        /* \"#utility.yul\":2210:2587   */\n      swap3\n      swap2\n      pop\n      pop\n      jump\t// out\n        /* \"#utility.yul\":2593:2711   */\n    tag_176:\n        /* \"#utility.yul\":2680:2704   */\n      tag_261\n        /* \"#utility.yul\":2698:2703   */\n      dup2\n        /* \"#utility.yul\":2680:2704   */\n      tag_168\n      jump\t// in\n    tag_261:\n        /* \"#utility.yul\":2675:2678   */\n      dup3\n        /* \"#utility.yul\":2668:2705   */\n      mstore\n        /* \"#utility.yul\":2593:2711   */\n      pop\n      pop\n      jump\t// out\n        /* \"#utility.yul\":2717:3452   */\n    tag_14:\n        /* \"#utility.yul\":2934:2938   */\n      0x00\n        /* \"#utility.yul\":2972:2975   */\n      0x80\n        /* \"#utility.yul\":2961:2970   */\n      dup3\n        /* \"#utility.yul\":2957:2976   */\n      add\n        /* \"#utility.yul\":2949:2976   */\n      swap1\n      pop\n        /* \"#utility.yul\":3022:3031   */\n      dup2\n        /* \"#utility.yul\":3016:3020   */\n      dup2\n        /* \"#utility.yul\":3012:3032   */\n      sub\n        /* \"#utility.yul\":3008:3009   */\n      0x00\n        /* \"#utility.yul\":2997:3006   */\n      dup4\n        /* \"#utility.yul\":2993:3010   */\n      add\n        /* \"#utility.yul\":2986:3033   */\n      mstore\n        /* \"#utility.yul\":3050:3128   */\n      tag_263\n        /* \"#utility.yul\":3123:3127   */\n      dup2\n        /* \"#utility.yul\":3114:3120   */\n      dup8\n        /* \"#utility.yul\":3050:3128   */\n      tag_175\n      jump\t// in\n    tag_263:\n        /* \"#utility.yul\":3042:3128   */\n      swap1\n      pop\n        /* \"#utility.yul\":3175:3184   */\n      dup2\n        /* \"#utility.yul\":3169:3173   */\n      dup2\n        /* \"#utility.yul\":3165:3185   */\n      sub\n        /* \"#utility.yul\":3160:3162   */\n      0x20\n        /* \"#utility.yul\":3149:3158   */\n      dup4\n        /* \"#utility.yul\":3145:3163   */\n      add\n        /* \"#utility.yul\":3138:3186   */\n      mstore\n        /* \"#utility.yul\":3203:3281   */\n      tag_264\n        /* \"#utility.yul\":3276:3280   */\n      dup2\n        /* \"#utility.yul\":3267:3273   */\n      dup7\n        /* \"#utility.yul\":3203:3281   */\n      tag_175\n      jump\t// in\n    tag_264:\n        /* \"#utility.yul\":3195:3281   */\n      swap1\n      pop\n        /* \"#utility.yul\":3291:3363   */\n      tag_265\n        /* \"#utility.yul\":3359:3361   */\n      0x40\n        /* \"#utility.yul\":3348:3357   */\n      dup4\n        /* \"#utility.yul\":3344:3362   */\n      add\n        /* \"#utility.yul\":3335:3341   */\n      dup6\n        /* \"#utility.yul\":3291:3363   */\n      tag_176\n      jump\t// in\n    tag_265:\n        /* \"#utility.yul\":3373:3445   */\n      tag_266\n        /* \"#utility.yul\":3441:3443   */\n      0x60\n        /* \"#utility.yul\":3430:3439   */\n      dup4\n        /* \"#utility.yul\":3426:3444   */\n      add\n        /* \"#utility.yul\":3417:3423   */\n      dup5\n        /* \"#utility.yul\":3373:3445   */\n      tag_176\n      jump\t// in\n    tag_266:\n        /* \"#utility.yul\":2717:3452   */\n      swap6\n      swap5\n      pop\n      pop\n      pop\n      pop\n      pop\n      jump\t// out\n        /* \"#utility.yul\":3458:3787   */\n    tag_18:\n        /* \"#utility.yul\":3517:3523   */\n      0x00\n        /* \"#utility.yul\":3566:3568   */\n      0x20\n        /* \"#utility.yul\":3554:3563   */\n      dup3\n        /* \"#utility.yul\":3545:3552   */\n      dup5\n        /* \"#utility.yul\":3541:3564   */\n      sub\n        /* \"#utility.yul\":3537:3569   */\n      slt\n        /* \"#utility.yul\":3534:3653   */\n      iszero\n      tag_268\n      jumpi\n        /* \"#utility.yul\":3572:3651   */\n      tag_269\n      tag_162\n      jump\t// in\n    tag_269:\n        /* \"#utility.yul\":3534:3653   */\n    tag_268:\n        /* \"#utility.yul\":3692:3693   */\n      0x00\n        /* \"#utility.yul\":3717:3770   */\n      tag_270\n        /* \"#utility.yul\":3762:3769   */\n      dup5\n        /* \"#utility.yul\":3753:3759   */\n      dup3\n        /* \"#utility.yul\":3742:3751   */\n      dup6\n        /* \"#utility.yul\":3738:3760   */\n      add\n        /* \"#utility.yul\":3717:3770   */\n      tag_170\n      jump\t// in\n    tag_270:\n        /* \"#utility.yul\":3707:3770   */\n      swap2\n      pop\n        /* \"#utility.yul\":3663:3780   */\n      pop\n        /* \"#utility.yul\":3458:3787   */\n      swap3\n      swap2\n      pop\n      pop\n      jump\t// out\n        /* \"#utility.yul\":3793:3910   */\n    tag_177:\n        /* \"#utility.yul\":3902:3903   */\n      0x00\n        /* \"#utility.yul\":3899:3900   */\n      dup1\n        /* \"#utility.yul\":3892:3904   */\n      revert\n        /* \"#utility.yul\":3916:4033   */\n    tag_178:\n        /* \"#utility.yul\":4025:4026   */\n      0x00\n        /* \"#utility.yul\":4022:4023   */\n      dup1\n        /* \"#utility.yul\":4015:4027   */\n      revert\n        /* \"#utility.yul\":4039:4219   */\n    tag_179:\n        /* \"#utility.yul\":4087:4164   */\n      0x4e487b7100000000000000000000000000000000000000000000000000000000\n        /* \"#utility.yul\":4084:4085   */\n      0x00\n        /* \"#utility.yul\":4077:4165   */\n      mstore\n        /* \"#utility.yul\":4184:4188   */\n      0x41\n        /* \"#utility.yul\":4181:4182   */\n      0x04\n        /* \"#utility.yul\":4174:4189   */\n      mstore\n        /* \"#utility.yul\":4208:4212   */\n      0x24\n        /* \"#utility.yul\":4205:4206   */\n      0x00\n        /* \"#utility.yul\":4198:4213   */\n      revert\n        /* \"#utility.yul\":4225:4506   */\n    tag_180:\n        /* \"#utility.yul\":4308:4335   */\n      tag_275\n        /* \"#utility.yul\":4330:4334   */\n      dup3\n        /* \"#utility.yul\":4308:4335   */\n      tag_174\n      jump\t// in\n    tag_275:\n        /* \"#utility.yul\":4300:4306   */\n      dup2\n        /* \"#utility.yul\":4296:4336   */\n      add\n        /* \"#utility.yul\":4438:4444   */\n      dup2\n        /* \"#utility.yul\":4426:4436   */\n      dup2\n        /* \"#utility.yul\":4423:4445   */\n      lt\n        /* \"#utility.yul\":4402:4420   */\n      0xffffffffffffffff\n        /* \"#utility.yul\":4390:4400   */\n      dup3\n        /* \"#utility.yul\":4387:4421   */\n      gt\n        /* \"#utility.yul\":4384:4446   */\n      or\n        /* \"#utility.yul\":4381:4469   */\n      iszero\n      tag_276\n      jumpi\n        /* \"#utility.yul\":4449:4467   */\n      tag_277\n      tag_179\n      jump\t// in\n    tag_277:\n        /* \"#utility.yul\":4381:4469   */\n    tag_276:\n        /* \"#utility.yul\":4489:4499   */\n      dup1\n        /* \"#utility.yul\":4485:4487   */\n      0x40\n        /* \"#utility.yul\":4478:4500   */\n      mstore\n        /* \"#utility.yul\":4268:4506   */\n      pop\n        /* \"#utility.yul\":4225:4506   */\n      pop\n      pop\n      jump\t// out\n        /* \"#utility.yul\":4512:4641   */\n    tag_181:\n        /* \"#utility.yul\":4546:4552   */\n      0x00\n        /* \"#utility.yul\":4573:4593   */\n      tag_279\n      tag_161\n      jump\t// in\n    tag_279:\n        /* \"#utility.yul\":4563:4593   */\n      swap1\n      pop\n        /* \"#utility.yul\":4602:4635   */\n      tag_280\n        /* \"#utility.yul\":4630:4634   */\n      dup3\n        /* \"#utility.yul\":4622:4628   */\n      dup3\n        /* \"#utility.yul\":4602:4635   */\n      tag_180\n      jump\t// in\n    tag_280:\n        /* \"#utility.yul\":4512:4641   */\n      swap2\n      swap1\n      pop\n      jump\t// out\n        /* \"#utility.yul\":4647:4955   */\n    tag_182:\n        /* \"#utility.yul\":4709:4713   */\n      0x00\n        /* \"#utility.yul\":4799:4817   */\n      0xffffffffffffffff\n        /* \"#utility.yul\":4791:4797   */\n      dup3\n        /* \"#utility.yul\":4788:4818   */\n      gt\n        /* \"#utility.yul\":4785:4841   */\n      iszero\n      tag_282\n      jumpi\n        /* \"#utility.yul\":4821:4839   */\n      tag_283\n      tag_179\n      jump\t// in\n    tag_283:\n        /* \"#utility.yul\":4785:4841   */\n    tag_282:\n        /* \"#utility.yul\":4859:4888   */\n      tag_284\n        /* \"#utility.yul\":4881:4887   */\n      dup3\n        /* \"#utility.yul\":4859:4888   */\n      tag_174\n      jump\t// in\n    tag_284:\n        /* \"#utility.yul\":4851:4888   */\n      swap1\n      pop\n        /* \"#utility.yul\":4943:4947   */\n      0x20\n        /* \"#utility.yul\":4937:4941   */\n      dup2\n        /* \"#utility.yul\":4933:4948   */\n      add\n        /* \"#utility.yul\":4925:4948   */\n      swap1\n      pop\n        /* \"#utility.yul\":4647:4955   */\n      swap2\n      swap1\n      pop\n      jump\t// out\n        /* \"#utility.yul\":4961:5109   */\n    tag_183:\n        /* \"#utility.yul\":5059:5065   */\n      dup3\n        /* \"#utility.yul\":5054:5057   */\n      dup2\n        /* \"#utility.yul\":5049:5052   */\n      dup4\n        /* \"#utility.yul\":5036:5066   */\n      calldatacopy\n        /* \"#utility.yul\":5100:5101   */\n      0x00\n        /* \"#utility.yul\":5091:5097   */\n      dup4\n        /* \"#utility.yul\":5086:5089   */\n      dup4\n        /* \"#utility.yul\":5082:5098   */\n      add\n        /* \"#utility.yul\":5075:5102   */\n      mstore\n        /* \"#utility.yul\":4961:5109   */\n      pop\n      pop\n      pop\n      jump\t// out\n        /* \"#utility.yul\":5115:5540   */\n    tag_184:\n        /* \"#utility.yul\":5193:5198   */\n      0x00\n        /* \"#utility.yul\":5218:5284   */\n      tag_287\n        /* \"#utility.yul\":5234:5283   */\n      tag_288\n        /* \"#utility.yul\":5276:5282   */\n      dup5\n        /* \"#utility.yul\":5234:5283   */\n      tag_182\n      jump\t// in\n    tag_288:\n        /* \"#utility.yul\":5218:5284   */\n      tag_181\n      jump\t// in\n    tag_287:\n        /* \"#utility.yul\":5209:5284   */\n      swap1\n      pop\n        /* \"#utility.yul\":5307:5313   */\n      dup3\n        /* \"#utility.yul\":5300:5305   */\n      dup2\n        /* \"#utility.yul\":5293:5314   */\n      mstore\n        /* \"#utility.yul\":5345:5349   */\n      0x20\n        /* \"#utility.yul\":5338:5343   */\n      dup2\n        /* \"#utility.yul\":5334:5350   */\n      add\n        /* \"#utility.yul\":5383:5386   */\n      dup5\n        /* \"#utility.yul\":5374:5380   */\n      dup5\n        /* \"#utility.yul\":5369:5372   */\n      dup5\n        /* \"#utility.yul\":5365:5381   */\n      add\n        /* \"#utility.yul\":5362:5387   */\n      gt\n        /* \"#utility.yul\":5359:5471   */\n      iszero\n      tag_289\n      jumpi\n        /* \"#utility.yul\":5390:5469   */\n      tag_290\n      tag_178\n      jump\t// in\n    tag_290:\n        /* \"#utility.yul\":5359:5471   */\n    tag_289:\n        /* \"#utility.yul\":5480:5534   */\n      tag_291\n        /* \"#utility.yul\":5527:5533   */\n      dup5\n        /* \"#utility.yul\":5522:5525   */\n      dup3\n        /* \"#utility.yul\":5517:5520   */\n      dup6\n        /* \"#utility.yul\":5480:5534   */\n      tag_183\n      jump\t// in\n    tag_291:\n        /* \"#utility.yul\":5199:5540   */\n      pop\n        /* \"#utility.yul\":5115:5540   */\n      swap4\n      swap3\n      pop\n      pop\n      pop\n      jump\t// out\n        /* \"#utility.yul\":5560:5900   */\n    tag_185:\n        /* \"#utility.yul\":5616:5621   */\n      0x00\n        /* \"#utility.yul\":5665:5668   */\n      dup3\n        /* \"#utility.yul\":5658:5662   */\n      0x1f\n        /* \"#utility.yul\":5650:5656   */\n      dup4\n        /* \"#utility.yul\":5646:5663   */\n      add\n        /* \"#utility.yul\":5642:5669   */\n      slt\n        /* \"#utility.yul\":5632:5754   */\n      tag_293\n      jumpi\n        /* \"#utility.yul\":5673:5752   */\n      tag_294\n      tag_177\n      jump\t// in\n    tag_294:\n        /* \"#utility.yul\":5632:5754   */\n    tag_293:\n        /* \"#utility.yul\":5790:5796   */\n      dup2\n        /* \"#utility.yul\":5777:5797   */\n      calldataload\n        /* \"#utility.yul\":5815:5894   */\n      tag_295\n        /* \"#utility.yul\":5890:5893   */\n      dup5\n        /* \"#utility.yul\":5882:5888   */\n      dup3\n        /* \"#utility.yul\":5875:5879   */\n      0x20\n        /* \"#utility.yul\":5867:5873   */\n      dup7\n        /* \"#utility.yul\":5863:5880   */\n      add\n        /* \"#utility.yul\":5815:5894   */\n      tag_184\n      jump\t// in\n    tag_295:\n        /* \"#utility.yul\":5806:5894   */\n      swap2\n      pop\n        /* \"#utility.yul\":5622:5900   */\n      pop\n        /* \"#utility.yul\":5560:5900   */\n      swap3\n      swap2\n      pop\n      pop\n      jump\t// out\n        /* \"#utility.yul\":5906:7177   */\n    tag_23:\n        /* \"#utility.yul\":6021:6027   */\n      0x00\n        /* \"#utility.yul\":6029:6035   */\n      dup1\n        /* \"#utility.yul\":6037:6043   */\n      0x00\n        /* \"#utility.yul\":6045:6051   */\n      dup1\n        /* \"#utility.yul\":6053:6059   */\n      0x00\n        /* \"#utility.yul\":6102:6105   */\n      0xa0\n        /* \"#utility.yul\":6090:6099   */\n      dup7\n        /* \"#utility.yul\":6081:6088   */\n      dup9\n        /* \"#utility.yul\":6077:6100   */\n      sub\n        /* \"#utility.yul\":6073:6106   */\n      slt\n        /* \"#utility.yul\":6070:6190   */\n      iszero\n      tag_297\n      jumpi\n        /* \"#utility.yul\":6109:6188   */\n      tag_298\n      tag_162\n      jump\t// in\n    tag_298:\n        /* \"#utility.yul\":6070:6190   */\n    tag_297:\n        /* \"#utility.yul\":6229:6230   */\n      0x00\n        /* \"#utility.yul\":6254:6307   */\n      tag_299\n        /* \"#utility.yul\":6299:6306   */\n      dup9\n        /* \"#utility.yul\":6290:6296   */\n      dup3\n        /* \"#utility.yul\":6279:6288   */\n      dup10\n        /* \"#utility.yul\":6275:6297   */\n      add\n        /* \"#utility.yul\":6254:6307   */\n      tag_170\n      jump\t// in\n    tag_299:\n        /* \"#utility.yul\":6244:6307   */\n      swap6\n      pop\n        /* \"#utility.yul\":6200:6317   */\n      pop\n        /* \"#utility.yul\":6384:6386   */\n      0x20\n        /* \"#utility.yul\":6373:6382   */\n      dup7\n        /* \"#utility.yul\":6369:6387   */\n      add\n        /* \"#utility.yul\":6356:6388   */\n      calldataload\n        /* \"#utility.yul\":6415:6433   */\n      0xffffffffffffffff\n        /* \"#utility.yul\":6407:6413   */\n      dup2\n        /* \"#utility.yul\":6404:6434   */\n      gt\n        /* \"#utility.yul\":6401:6518   */\n      iszero\n      tag_300\n      jumpi\n        /* \"#utility.yul\":6437:6516   */\n      tag_301\n      tag_163\n      jump\t// in\n    tag_301:\n        /* \"#utility.yul\":6401:6518   */\n    tag_300:\n        /* \"#utility.yul\":6542:6605   */\n      tag_302\n        /* \"#utility.yul\":6597:6604   */\n      dup9\n        /* \"#utility.yul\":6588:6594   */\n      dup3\n        /* \"#utility.yul\":6577:6586   */\n      dup10\n        /* \"#utility.yul\":6573:6595   */\n      add\n        /* \"#utility.yul\":6542:6605   */\n      tag_185\n      jump\t// in\n    tag_302:\n        /* \"#utility.yul\":6532:6605   */\n      swap5\n      pop\n        /* \"#utility.yul\":6327:6615   */\n      pop\n        /* \"#utility.yul\":6682:6684   */\n      0x40\n        /* \"#utility.yul\":6671:6680   */\n      dup7\n        /* \"#utility.yul\":6667:6685   */\n      add\n        /* \"#utility.yul\":6654:6686   */\n      calldataload\n        /* \"#utility.yul\":6713:6731   */\n      0xffffffffffffffff\n        /* \"#utility.yul\":6705:6711   */\n      dup2\n        /* \"#utility.yul\":6702:6732   */\n      gt\n        /* \"#utility.yul\":6699:6816   */\n      iszero\n      tag_303\n      jumpi\n        /* \"#utility.yul\":6735:6814   */\n      tag_304\n      tag_163\n      jump\t// in\n    tag_304:\n        /* \"#utility.yul\":6699:6816   */\n    tag_303:\n        /* \"#utility.yul\":6840:6903   */\n      tag_305\n        /* \"#utility.yul\":6895:6902   */\n      dup9\n        /* \"#utility.yul\":6886:6892   */\n      dup3\n        /* \"#utility.yul\":6875:6884   */\n      dup10\n        /* \"#utility.yul\":6871:6893   */\n      add\n        /* \"#utility.yul\":6840:6903   */\n      tag_185\n      jump\t// in\n    tag_305:\n        /* \"#utility.yul\":6830:6903   */\n      swap4\n      pop\n        /* \"#utility.yul\":6625:6913   */\n      pop\n        /* \"#utility.yul\":6952:6954   */\n      0x60\n        /* \"#utility.yul\":6978:7031   */\n      tag_306\n        /* \"#utility.yul\":7023:7030   */\n      dup9\n        /* \"#utility.yul\":7014:7020   */\n      dup3\n        /* \"#utility.yul\":7003:7012   */\n      dup10\n        /* \"#utility.yul\":6999:7021   */\n      add\n        /* \"#utility.yul\":6978:7031   */\n      tag_170\n      jump\t// in\n    tag_306:\n        /* \"#utility.yul\":6968:7031   */\n      swap3\n      pop\n        /* \"#utility.yul\":6923:7041   */\n      pop\n        /* \"#utility.yul\":7080:7083   */\n      0x80\n        /* \"#utility.yul\":7107:7160   */\n      tag_307\n        /* \"#utility.yul\":7152:7159   */\n      dup9\n        /* \"#utility.yul\":7143:7149   */\n      dup3\n        /* \"#utility.yul\":7132:7141   */\n      dup10\n        /* \"#utility.yul\":7128:7150   */\n      add\n        /* \"#utility.yul\":7107:7160   */\n      tag_170\n      jump\t// in\n    tag_307:\n        /* \"#utility.yul\":7097:7160   */\n      swap2\n      pop\n        /* \"#utility.yul\":7051:7170   */\n      pop\n        /* \"#utility.yul\":5906:7177   */\n      swap3\n      swap6\n      pop\n      swap3\n      swap6\n      swap1\n      swap4\n      pop\n      jump\t// out\n        /* \"#utility.yul\":7183:7512   */\n    tag_28:\n        /* \"#utility.yul\":7242:7248   */\n      0x00\n        /* \"#utility.yul\":7291:7293   */\n      0x20\n        /* \"#utility.yul\":7279:7288   */\n      dup3\n        /* \"#utility.yul\":7270:7277   */\n      dup5\n        /* \"#utility.yul\":7266:7289   */\n      sub\n        /* \"#utility.yul\":7262:7294   */\n      slt\n        /* \"#utility.yul\":7259:7378   */\n      iszero\n      tag_309\n      jumpi\n        /* \"#utility.yul\":7297:7376   */\n      tag_310\n      tag_162\n      jump\t// in\n    tag_310:\n        /* \"#utility.yul\":7259:7378   */\n    tag_309:\n        /* \"#utility.yul\":7417:7418   */\n      0x00\n        /* \"#utility.yul\":7442:7495   */\n      tag_311\n        /* \"#utility.yul\":7487:7494   */\n      dup5\n        /* \"#utility.yul\":7478:7484   */\n      dup3\n        /* \"#utility.yul\":7467:7476   */\n      dup6\n        /* \"#utility.yul\":7463:7485   */\n      add\n        /* \"#utility.yul\":7442:7495   */\n      tag_167\n      jump\t// in\n    tag_311:\n        /* \"#utility.yul\":7432:7495   */\n      swap2\n      pop\n        /* \"#utility.yul\":7388:7505   */\n      pop\n        /* \"#utility.yul\":7183:7512   */\n      swap3\n      swap2\n      pop\n      pop\n      jump\t// out\n        /* \"#utility.yul\":7518:7652   */\n    tag_186:\n        /* \"#utility.yul\":7605:7611   */\n      0x00\n        /* \"#utility.yul\":7639:7644   */\n      dup2\n        /* \"#utility.yul\":7633:7645   */\n      mload\n        /* \"#utility.yul\":7623:7645   */\n      swap1\n      pop\n        /* \"#utility.yul\":7518:7652   */\n      swap2\n      swap1\n      pop\n      jump\t// out\n        /* \"#utility.yul\":7658:7862   */\n    tag_187:\n        /* \"#utility.yul\":7777:7788   */\n      0x00\n        /* \"#utility.yul\":7811:7817   */\n      dup3\n        /* \"#utility.yul\":7806:7809   */\n      dup3\n        /* \"#utility.yul\":7799:7818   */\n      mstore\n        /* \"#utility.yul\":7851:7855   */\n      0x20\n        /* \"#utility.yul\":7846:7849   */\n      dup3\n        /* \"#utility.yul\":7842:7856   */\n      add\n        /* \"#utility.yul\":7827:7856   */\n      swap1\n      pop\n        /* \"#utility.yul\":7658:7862   */\n      swap3\n      swap2\n      pop\n      pop\n      jump\t// out\n        /* \"#utility.yul\":7868:8020   */\n    tag_188:\n        /* \"#utility.yul\":7955:7959   */\n      0x00\n        /* \"#utility.yul\":7978:7981   */\n      dup2\n        /* \"#utility.yul\":7970:7981   */\n      swap1\n      pop\n        /* \"#utility.yul\":8008:8012   */\n      0x20\n        /* \"#utility.yul\":8003:8006   */\n      dup3\n        /* \"#utility.yul\":7999:8013   */\n      add\n        /* \"#utility.yul\":7991:8013   */\n      swap1\n      pop\n        /* \"#utility.yul\":7868:8020   */\n      swap2\n      swap1\n      pop\n      jump\t// out\n        /* \"#utility.yul\":8026:8185   */\n    tag_189:\n        /* \"#utility.yul\":8100:8111   */\n      0x00\n        /* \"#utility.yul\":8134:8140   */\n      dup3\n        /* \"#utility.yul\":8129:8132   */\n      dup3\n        /* \"#utility.yul\":8122:8141   */\n      mstore\n        /* \"#utility.yul\":8174:8178   */\n      0x20\n        /* \"#utility.yul\":8169:8172   */\n      dup3\n        /* \"#utility.yul\":8165:8179   */\n      add\n        /* \"#utility.yul\":8150:8179   */\n      swap1\n      pop\n        /* \"#utility.yul\":8026:8185   */\n      swap3\n      swap2\n      pop\n      pop\n      jump\t// out\n        /* \"#utility.yul\":8191:8548   */\n    tag_190:\n        /* \"#utility.yul\":8269:8272   */\n      0x00\n        /* \"#utility.yul\":8297:8336   */\n      tag_317\n        /* \"#utility.yul\":8330:8335   */\n      dup3\n        /* \"#utility.yul\":8297:8336   */\n      tag_171\n      jump\t// in\n    tag_317:\n        /* \"#utility.yul\":8352:8413   */\n      tag_318\n        /* \"#utility.yul\":8406:8412   */\n      dup2\n        /* \"#utility.yul\":8401:8404   */\n      dup6\n        /* \"#utility.yul\":8352:8413   */\n      tag_189\n      jump\t// in\n    tag_318:\n        /* \"#utility.yul\":8345:8413   */\n      swap4\n      pop\n        /* \"#utility.yul\":8422:8487   */\n      tag_319\n        /* \"#utility.yul\":8480:8486   */\n      dup2\n        /* \"#utility.yul\":8475:8478   */\n      dup6\n        /* \"#utility.yul\":8468:8472   */\n      0x20\n        /* \"#utility.yul\":8461:8466   */\n      dup7\n        /* \"#utility.yul\":8457:8473   */\n      add\n        /* \"#utility.yul\":8422:8487   */\n      tag_173\n      jump\t// in\n    tag_319:\n        /* \"#utility.yul\":8512:8541   */\n      tag_320\n        /* \"#utility.yul\":8534:8540   */\n      dup2\n        /* \"#utility.yul\":8512:8541   */\n      tag_174\n      jump\t// in\n    tag_320:\n        /* \"#utility.yul\":8507:8510   */\n      dup5\n        /* \"#utility.yul\":8503:8542   */\n      add\n        /* \"#utility.yul\":8496:8542   */\n      swap2\n      pop\n        /* \"#utility.yul\":8273:8548   */\n      pop\n        /* \"#utility.yul\":8191:8548   */\n      swap3\n      swap2\n      pop\n      pop\n      jump\t// out\n        /* \"#utility.yul\":8554:8662   */\n    tag_191:\n        /* \"#utility.yul\":8631:8655   */\n      tag_322\n        /* \"#utility.yul\":8649:8654   */\n      dup2\n        /* \"#utility.yul\":8631:8655   */\n      tag_168\n      jump\t// in\n    tag_322:\n        /* \"#utility.yul\":8626:8629   */\n      dup3\n        /* \"#utility.yul\":8619:8656   */\n      mstore\n        /* \"#utility.yul\":8554:8662   */\n      pop\n      pop\n      jump\t// out\n        /* \"#utility.yul\":8734:9751   */\n    tag_192:\n        /* \"#utility.yul\":8833:8836   */\n      0x00\n        /* \"#utility.yul\":8869:8873   */\n      0x80\n        /* \"#utility.yul\":8864:8867   */\n      dup4\n        /* \"#utility.yul\":8860:8874   */\n      add\n        /* \"#utility.yul\":8956:8960   */\n      0x00\n        /* \"#utility.yul\":8949:8954   */\n      dup4\n        /* \"#utility.yul\":8945:8961   */\n      add\n        /* \"#utility.yul\":8939:8962   */\n      mload\n        /* \"#utility.yul\":9009:9012   */\n      dup5\n        /* \"#utility.yul\":9003:9007   */\n      dup3\n        /* \"#utility.yul\":8999:9013   */\n      sub\n        /* \"#utility.yul\":8992:8996   */\n      0x00\n        /* \"#utility.yul\":8987:8990   */\n      dup7\n        /* \"#utility.yul\":8983:8997   */\n      add\n        /* \"#utility.yul\":8976:9014   */\n      mstore\n        /* \"#utility.yul\":9035:9108   */\n      tag_324\n        /* \"#utility.yul\":9103:9107   */\n      dup3\n        /* \"#utility.yul\":9089:9101   */\n      dup3\n        /* \"#utility.yul\":9035:9108   */\n      tag_190\n      jump\t// in\n    tag_324:\n        /* \"#utility.yul\":9027:9108   */\n      swap2\n      pop\n        /* \"#utility.yul\":8884:9119   */\n      pop\n        /* \"#utility.yul\":9208:9212   */\n      0x20\n        /* \"#utility.yul\":9201:9206   */\n      dup4\n        /* \"#utility.yul\":9197:9213   */\n      add\n        /* \"#utility.yul\":9191:9214   */\n      mload\n        /* \"#utility.yul\":9261:9264   */\n      dup5\n        /* \"#utility.yul\":9255:9259   */\n      dup3\n        /* \"#utility.yul\":9251:9265   */\n      sub\n        /* \"#utility.yul\":9244:9248   */\n      0x20\n        /* \"#utility.yul\":9239:9242   */\n      dup7\n        /* \"#utility.yul\":9235:9249   */\n      add\n        /* \"#utility.yul\":9228:9266   */\n      mstore\n        /* \"#utility.yul\":9287:9360   */\n      tag_325\n        /* \"#utility.yul\":9355:9359   */\n      dup3\n        /* \"#utility.yul\":9341:9353   */\n      dup3\n        /* \"#utility.yul\":9287:9360   */\n      tag_190\n      jump\t// in\n    tag_325:\n        /* \"#utility.yul\":9279:9360   */\n      swap2\n      pop\n        /* \"#utility.yul\":9129:9371   */\n      pop\n        /* \"#utility.yul\":9454:9458   */\n      0x40\n        /* \"#utility.yul\":9447:9452   */\n      dup4\n        /* \"#utility.yul\":9443:9459   */\n      add\n        /* \"#utility.yul\":9437:9460   */\n      mload\n        /* \"#utility.yul\":9473:9536   */\n      tag_326\n        /* \"#utility.yul\":9530:9534   */\n      0x40\n        /* \"#utility.yul\":9525:9528   */\n      dup7\n        /* \"#utility.yul\":9521:9535   */\n      add\n        /* \"#utility.yul\":9507:9519   */\n      dup3\n        /* \"#utility.yul\":9473:9536   */\n      tag_191\n      jump\t// in\n    tag_326:\n        /* \"#utility.yul\":9381:9546   */\n      pop\n        /* \"#utility.yul\":9632:9636   */\n      0x60\n        /* \"#utility.yul\":9625:9630   */\n      dup4\n        /* \"#utility.yul\":9621:9637   */\n      add\n        /* \"#utility.yul\":9615:9638   */\n      mload\n        /* \"#utility.yul\":9651:9714   */\n      tag_327\n        /* \"#utility.yul\":9708:9712   */\n      0x60\n        /* \"#utility.yul\":9703:9706   */\n      dup7\n        /* \"#utility.yul\":9699:9713   */\n      add\n        /* \"#utility.yul\":9685:9697   */\n      dup3\n        /* \"#utility.yul\":9651:9714   */\n      tag_191\n      jump\t// in\n    tag_327:\n        /* \"#utility.yul\":9556:9724   */\n      pop\n        /* \"#utility.yul\":9741:9745   */\n      dup1\n        /* \"#utility.yul\":9734:9745   */\n      swap2\n      pop\n        /* \"#utility.yul\":8838:9751   */\n      pop\n        /* \"#utility.yul\":8734:9751   */\n      swap3\n      swap2\n      pop\n      pop\n      jump\t// out\n        /* \"#utility.yul\":9757:9993   */\n    tag_193:\n        /* \"#utility.yul\":9866:9876   */\n      0x00\n        /* \"#utility.yul\":9901:9987   */\n      tag_329\n        /* \"#utility.yul\":9983:9986   */\n      dup4\n        /* \"#utility.yul\":9975:9981   */\n      dup4\n        /* \"#utility.yul\":9901:9987   */\n      tag_192\n      jump\t// in\n    tag_329:\n        /* \"#utility.yul\":9887:9987   */\n      swap1\n      pop\n        /* \"#utility.yul\":9757:9993   */\n      swap3\n      swap2\n      pop\n      pop\n      jump\t// out\n        /* \"#utility.yul\":9999:10132   */\n    tag_194:\n        /* \"#utility.yul\":10089:10093   */\n      0x00\n        /* \"#utility.yul\":10121:10125   */\n      0x20\n        /* \"#utility.yul\":10116:10119   */\n      dup3\n        /* \"#utility.yul\":10112:10126   */\n      add\n        /* \"#utility.yul\":10104:10126   */\n      swap1\n      pop\n        /* \"#utility.yul\":9999:10132   */\n      swap2\n      swap1\n      pop\n      jump\t// out\n        /* \"#utility.yul\":10208:11279   */\n    tag_195:\n        /* \"#utility.yul\":10367:10370   */\n      0x00\n        /* \"#utility.yul\":10396:10470   */\n      tag_332\n        /* \"#utility.yul\":10464:10469   */\n      dup3\n        /* \"#utility.yul\":10396:10470   */\n      tag_186\n      jump\t// in\n    tag_332:\n        /* \"#utility.yul\":10486:10592   */\n      tag_333\n        /* \"#utility.yul\":10585:10591   */\n      dup2\n        /* \"#utility.yul\":10580:10583   */\n      dup6\n        /* \"#utility.yul\":10486:10592   */\n      tag_187\n      jump\t// in\n    tag_333:\n        /* \"#utility.yul\":10479:10592   */\n      swap4\n      pop\n        /* \"#utility.yul\":10618:10621   */\n      dup4\n        /* \"#utility.yul\":10663:10667   */\n      0x20\n        /* \"#utility.yul\":10655:10661   */\n      dup3\n        /* \"#utility.yul\":10651:10668   */\n      mul\n        /* \"#utility.yul\":10646:10649   */\n      dup6\n        /* \"#utility.yul\":10642:10669   */\n      add\n        /* \"#utility.yul\":10693:10769   */\n      tag_334\n        /* \"#utility.yul\":10763:10768   */\n      dup6\n        /* \"#utility.yul\":10693:10769   */\n      tag_188\n      jump\t// in\n    tag_334:\n        /* \"#utility.yul\":10792:10799   */\n      dup1\n        /* \"#utility.yul\":10823:10824   */\n      0x00\n        /* \"#utility.yul\":10808:11234   */\n    tag_335:\n        /* \"#utility.yul\":10833:10839   */\n      dup6\n        /* \"#utility.yul\":10830:10831   */\n      dup2\n        /* \"#utility.yul\":10827:10840   */\n      lt\n        /* \"#utility.yul\":10808:11234   */\n      iszero\n      tag_337\n      jumpi\n        /* \"#utility.yul\":10904:10913   */\n      dup5\n        /* \"#utility.yul\":10898:10902   */\n      dup5\n        /* \"#utility.yul\":10894:10914   */\n      sub\n        /* \"#utility.yul\":10889:10892   */\n      dup10\n        /* \"#utility.yul\":10882:10915   */\n      mstore\n        /* \"#utility.yul\":10955:10961   */\n      dup2\n        /* \"#utility.yul\":10949:10962   */\n      mload\n        /* \"#utility.yul\":10983:11087   */\n      tag_338\n        /* \"#utility.yul\":11082:11086   */\n      dup6\n        /* \"#utility.yul\":11067:11080   */\n      dup3\n        /* \"#utility.yul\":10983:11087   */\n      tag_193\n      jump\t// in\n    tag_338:\n        /* \"#utility.yul\":10975:11087   */\n      swap5\n      pop\n        /* \"#utility.yul\":11110:11190   */\n      tag_339\n        /* \"#utility.yul\":11183:11189   */\n      dup4\n        /* \"#utility.yul\":11110:11190   */\n      tag_194\n      jump\t// in\n    tag_339:\n        /* \"#utility.yul\":11100:11190   */\n      swap3\n      pop\n        /* \"#utility.yul\":11219:11223   */\n      0x20\n        /* \"#utility.yul\":11214:11217   */\n      dup11\n        /* \"#utility.yul\":11210:11224   */\n      add\n        /* \"#utility.yul\":11203:11224   */\n      swap10\n      pop\n        /* \"#utility.yul\":10868:11234   */\n      pop\n        /* \"#utility.yul\":10855:10856   */\n      0x01\n        /* \"#utility.yul\":10852:10853   */\n      dup2\n        /* \"#utility.yul\":10848:10857   */\n      add\n        /* \"#utility.yul\":10843:10857   */\n      swap1\n      pop\n        /* \"#utility.yul\":10808:11234   */\n      jump(tag_335)\n    tag_337:\n        /* \"#utility.yul\":10812:10826   */\n      pop\n        /* \"#utility.yul\":11250:11254   */\n      dup3\n        /* \"#utility.yul\":11243:11254   */\n      swap8\n      pop\n        /* \"#utility.yul\":11270:11273   */\n      dup8\n        /* \"#utility.yul\":11263:11273   */\n      swap6\n      pop\n        /* \"#utility.yul\":10372:11279   */\n      pop\n      pop\n      pop\n      pop\n      pop\n        /* \"#utility.yul\":10208:11279   */\n      swap3\n      swap2\n      pop\n      pop\n      jump\t// out\n        /* \"#utility.yul\":11285:11738   */\n    tag_31:\n        /* \"#utility.yul\":11468:11472   */\n      0x00\n        /* \"#utility.yul\":11506:11508   */\n      0x20\n        /* \"#utility.yul\":11495:11504   */\n      dup3\n        /* \"#utility.yul\":11491:11509   */\n      add\n        /* \"#utility.yul\":11483:11509   */\n      swap1\n      pop\n        /* \"#utility.yul\":11555:11564   */\n      dup2\n        /* \"#utility.yul\":11549:11553   */\n      dup2\n        /* \"#utility.yul\":11545:11565   */\n      sub\n        /* \"#utility.yul\":11541:11542   */\n      0x00\n        /* \"#utility.yul\":11530:11539   */\n      dup4\n        /* \"#utility.yul\":11526:11543   */\n      add\n        /* \"#utility.yul\":11519:11566   */\n      mstore\n        /* \"#utility.yul\":11583:11731   */\n      tag_341\n        /* \"#utility.yul\":11726:11730   */\n      dup2\n        /* \"#utility.yul\":11717:11723   */\n      dup5\n        /* \"#utility.yul\":11583:11731   */\n      tag_195\n      jump\t// in\n    tag_341:\n        /* \"#utility.yul\":11575:11731   */\n      swap1\n      pop\n        /* \"#utility.yul\":11285:11738   */\n      swap3\n      swap2\n      pop\n      pop\n      jump\t// out\n        /* \"#utility.yul\":11744:12869   */\n    tag_35:\n        /* \"#utility.yul\":11850:11856   */\n      0x00\n        /* \"#utility.yul\":11858:11864   */\n      dup1\n        /* \"#utility.yul\":11866:11872   */\n      0x00\n        /* \"#utility.yul\":11874:11880   */\n      dup1\n        /* \"#utility.yul\":11923:11926   */\n      0x80\n        /* \"#utility.yul\":11911:11920   */\n      dup6\n        /* \"#utility.yul\":11902:11909   */\n      dup8\n        /* \"#utility.yul\":11898:11921   */\n      sub\n        /* \"#utility.yul\":11894:11927   */\n      slt\n        /* \"#utility.yul\":11891:12011   */\n      iszero\n      tag_343\n      jumpi\n        /* \"#utility.yul\":11930:12009   */\n      tag_344\n      tag_162\n      jump\t// in\n    tag_344:\n        /* \"#utility.yul\":11891:12011   */\n    tag_343:\n        /* \"#utility.yul\":12078:12079   */\n      0x00\n        /* \"#utility.yul\":12067:12076   */\n      dup6\n        /* \"#utility.yul\":12063:12080   */\n      add\n        /* \"#utility.yul\":12050:12081   */\n      calldataload\n        /* \"#utility.yul\":12108:12126   */\n      0xffffffffffffffff\n        /* \"#utility.yul\":12100:12106   */\n      dup2\n        /* \"#utility.yul\":12097:12127   */\n      gt\n        /* \"#utility.yul\":12094:12211   */\n      iszero\n      tag_345\n      jumpi\n        /* \"#utility.yul\":12130:12209   */\n      tag_346\n      tag_163\n      jump\t// in\n    tag_346:\n        /* \"#utility.yul\":12094:12211   */\n    tag_345:\n        /* \"#utility.yul\":12235:12298   */\n      tag_347\n        /* \"#utility.yul\":12290:12297   */\n      dup8\n        /* \"#utility.yul\":12281:12287   */\n      dup3\n        /* \"#utility.yul\":12270:12279   */\n      dup9\n        /* \"#utility.yul\":12266:12288   */\n      add\n        /* \"#utility.yul\":12235:12298   */\n      tag_185\n      jump\t// in\n    tag_347:\n        /* \"#utility.yul\":12225:12298   */\n      swap5\n      pop\n        /* \"#utility.yul\":12021:12308   */\n      pop\n        /* \"#utility.yul\":12375:12377   */\n      0x20\n        /* \"#utility.yul\":12364:12373   */\n      dup6\n        /* \"#utility.yul\":12360:12378   */\n      add\n        /* \"#utility.yul\":12347:12379   */\n      calldataload\n        /* \"#utility.yul\":12406:12424   */\n      0xffffffffffffffff\n        /* \"#utility.yul\":12398:12404   */\n      dup2\n        /* \"#utility.yul\":12395:12425   */\n      gt\n        /* \"#utility.yul\":12392:12509   */\n      iszero\n      tag_348\n      jumpi\n        /* \"#utility.yul\":12428:12507   */\n      tag_349\n      tag_163\n      jump\t// in\n    tag_349:\n        /* \"#utility.yul\":12392:12509   */\n    tag_348:\n        /* \"#utility.yul\":12533:12596   */\n      tag_350\n        /* \"#utility.yul\":12588:12595   */\n      dup8\n        /* \"#utility.yul\":12579:12585   */\n      dup3\n        /* \"#utility.yul\":12568:12577   */\n      dup9\n        /* \"#utility.yul\":12564:12586   */\n      add\n        /* \"#utility.yul\":12533:12596   */\n      tag_185\n      jump\t// in\n    tag_350:\n        /* \"#utility.yul\":12523:12596   */\n      swap4\n      pop\n        /* \"#utility.yul\":12318:12606   */\n      pop\n        /* \"#utility.yul\":12645:12647   */\n      0x40\n        /* \"#utility.yul\":12671:12724   */\n      tag_351\n        /* \"#utility.yul\":12716:12723   */\n      dup8\n        /* \"#utility.yul\":12707:12713   */\n      dup3\n        /* \"#utility.yul\":12696:12705   */\n      dup9\n        /* \"#utility.yul\":12692:12714   */\n      add\n        /* \"#utility.yul\":12671:12724   */\n      tag_170\n      jump\t// in\n    tag_351:\n        /* \"#utility.yul\":12661:12724   */\n      swap3\n      pop\n        /* \"#utility.yul\":12616:12734   */\n      pop\n        /* \"#utility.yul\":12773:12775   */\n      0x60\n        /* \"#utility.yul\":12799:12852   */\n      tag_352\n        /* \"#utility.yul\":12844:12851   */\n      dup8\n        /* \"#utility.yul\":12835:12841   */\n      dup3\n        /* \"#utility.yul\":12824:12833   */\n      dup9\n        /* \"#utility.yul\":12820:12842   */\n      add\n        /* \"#utility.yul\":12799:12852   */\n      tag_170\n      jump\t// in\n    tag_352:\n        /* \"#utility.yul\":12789:12852   */\n      swap2\n      pop\n        /* \"#utility.yul\":12744:12862   */\n      pop\n        /* \"#utility.yul\":11744:12869   */\n      swap3\n      swap6\n      swap2\n      swap5\n      pop\n      swap3\n      pop\n      jump\t// out\n        /* \"#utility.yul\":12875:13494   */\n    tag_39:\n        /* \"#utility.yul\":12952:12958   */\n      0x00\n        /* \"#utility.yul\":12960:12966   */\n      dup1\n        /* \"#utility.yul\":12968:12974   */\n      0x00\n        /* \"#utility.yul\":13017:13019   */\n      0x60\n        /* \"#utility.yul\":13005:13014   */\n      dup5\n        /* \"#utility.yul\":12996:13003   */\n      dup7\n        /* \"#utility.yul\":12992:13015   */\n      sub\n        /* \"#utility.yul\":12988:13020   */\n      slt\n        /* \"#utility.yul\":12985:13104   */\n      iszero\n      tag_354\n      jumpi\n        /* \"#utility.yul\":13023:13102   */\n      tag_355\n      tag_162\n      jump\t// in\n    tag_355:\n        /* \"#utility.yul\":12985:13104   */\n    tag_354:\n        /* \"#utility.yul\":13143:13144   */\n      0x00\n        /* \"#utility.yul\":13168:13221   */\n      tag_356\n        /* \"#utility.yul\":13213:13220   */\n      dup7\n        /* \"#utility.yul\":13204:13210   */\n      dup3\n        /* \"#utility.yul\":13193:13202   */\n      dup8\n        /* \"#utility.yul\":13189:13211   */\n      add\n        /* \"#utility.yul\":13168:13221   */\n      tag_167\n      jump\t// in\n    tag_356:\n        /* \"#utility.yul\":13158:13221   */\n      swap4\n      pop\n        /* \"#utility.yul\":13114:13231   */\n      pop\n        /* \"#utility.yul\":13270:13272   */\n      0x20\n        /* \"#utility.yul\":13296:13349   */\n      tag_357\n        /* \"#utility.yul\":13341:13348   */\n      dup7\n        /* \"#utility.yul\":13332:13338   */\n      dup3\n        /* \"#utility.yul\":13321:13330   */\n      dup8\n        /* \"#utility.yul\":13317:13339   */\n      add\n        /* \"#utility.yul\":13296:13349   */\n      tag_170\n      jump\t// in\n    tag_357:\n        /* \"#utility.yul\":13286:13349   */\n      swap3\n      pop\n        /* \"#utility.yul\":13241:13359   */\n      pop\n        /* \"#utility.yul\":13398:13400   */\n      0x40\n        /* \"#utility.yul\":13424:13477   */\n      tag_358\n        /* \"#utility.yul\":13469:13476   */\n      dup7\n        /* \"#utility.yul\":13460:13466   */\n      dup3\n        /* \"#utility.yul\":13449:13458   */\n      dup8\n        /* \"#utility.yul\":13445:13467   */\n      add\n        /* \"#utility.yul\":13424:13477   */\n      tag_170\n      jump\t// in\n    tag_358:\n        /* \"#utility.yul\":13414:13477   */\n      swap2\n      pop\n        /* \"#utility.yul\":13369:13487   */\n      pop\n        /* \"#utility.yul\":12875:13494   */\n      swap3\n      pop\n      swap3\n      pop\n      swap3\n      jump\t// out\n        /* \"#utility.yul\":13500:13680   */\n    tag_196:\n        /* \"#utility.yul\":13548:13625   */\n      0x4e487b7100000000000000000000000000000000000000000000000000000000\n        /* \"#utility.yul\":13545:13546   */\n      0x00\n        /* \"#utility.yul\":13538:13626   */\n      mstore\n        /* \"#utility.yul\":13645:13649   */\n      0x22\n        /* \"#utility.yul\":13642:13643   */\n      0x04\n        /* \"#utility.yul\":13635:13650   */\n      mstore\n        /* \"#utility.yul\":13669:13673   */\n      0x24\n        /* \"#utility.yul\":13666:13667   */\n      0x00\n        /* \"#utility.yul\":13659:13674   */\n      revert\n        /* \"#utility.yul\":13686:14006   */\n    tag_44:\n        /* \"#utility.yul\":13730:13736   */\n      0x00\n        /* \"#utility.yul\":13767:13768   */\n      0x02\n        /* \"#utility.yul\":13761:13765   */\n      dup3\n        /* \"#utility.yul\":13757:13769   */\n      div\n        /* \"#utility.yul\":13747:13769   */\n      swap1\n      pop\n        /* \"#utility.yul\":13814:13815   */\n      0x01\n        /* \"#utility.yul\":13808:13812   */\n      dup3\n        /* \"#utility.yul\":13804:13816   */\n      and\n        /* \"#utility.yul\":13835:13853   */\n      dup1\n        /* \"#utility.yul\":13825:13906   */\n      tag_361\n      jumpi\n        /* \"#utility.yul\":13891:13895   */\n      0x7f\n        /* \"#utility.yul\":13883:13889   */\n      dup3\n        /* \"#utility.yul\":13879:13896   */\n      and\n        /* \"#utility.yul\":13869:13896   */\n      swap2\n      pop\n        /* \"#utility.yul\":13825:13906   */\n    tag_361:\n        /* \"#utility.yul\":13953:13955   */\n      0x20\n        /* \"#utility.yul\":13945:13951   */\n      dup3\n        /* \"#utility.yul\":13942:13956   */\n      lt\n        /* \"#utility.yul\":13922:13940   */\n      dup2\n        /* \"#utility.yul\":13919:13957   */\n      sub\n        /* \"#utility.yul\":13916:14000   */\n      tag_362\n      jumpi\n        /* \"#utility.yul\":13972:13990   */\n      tag_363\n      tag_196\n      jump\t// in\n    tag_363:\n        /* \"#utility.yul\":13916:14000   */\n    tag_362:\n        /* \"#utility.yul\":13737:14006   */\n      pop\n        /* \"#utility.yul\":13686:14006   */\n      swap2\n      swap1\n      pop\n      jump\t// out\n        /* \"#utility.yul\":14012:14180   */\n    tag_197:\n        /* \"#utility.yul\":14152:14172   */\n      0x496e76616c6964206974656d20696e6465780000000000000000000000000000\n        /* \"#utility.yul\":14148:14149   */\n      0x00\n        /* \"#utility.yul\":14140:14146   */\n      dup3\n        /* \"#utility.yul\":14136:14150   */\n      add\n        /* \"#utility.yul\":14129:14173   */\n      mstore\n        /* \"#utility.yul\":14012:14180   */\n      pop\n      jump\t// out\n        /* \"#utility.yul\":14186:14552   */\n    tag_198:\n        /* \"#utility.yul\":14328:14331   */\n      0x00\n        /* \"#utility.yul\":14349:14416   */\n      tag_366\n        /* \"#utility.yul\":14413:14415   */\n      0x12\n        /* \"#utility.yul\":14408:14411   */\n      dup4\n        /* \"#utility.yul\":14349:14416   */\n      tag_172\n      jump\t// in\n    tag_366:\n        /* \"#utility.yul\":14342:14416   */\n      swap2\n      pop\n        /* \"#utility.yul\":14425:14518   */\n      tag_367\n        /* \"#utility.yul\":14514:14517   */\n      dup3\n        /* \"#utility.yul\":14425:14518   */\n      tag_197\n      jump\t// in\n    tag_367:\n        /* \"#utility.yul\":14543:14545   */\n      0x20\n        /* \"#utility.yul\":14538:14541   */\n      dup3\n        /* \"#utility.yul\":14534:14546   */\n      add\n        /* \"#utility.yul\":14527:14546   */\n      swap1\n      pop\n        /* \"#utility.yul\":14186:14552   */\n      swap2\n      swap1\n      pop\n      jump\t// out\n        /* \"#utility.yul\":14558:14977   */\n    tag_57:\n        /* \"#utility.yul\":14724:14728   */\n      0x00\n        /* \"#utility.yul\":14762:14764   */\n      0x20\n        /* \"#utility.yul\":14751:14760   */\n      dup3\n        /* \"#utility.yul\":14747:14765   */\n      add\n        /* \"#utility.yul\":14739:14765   */\n      swap1\n      pop\n        /* \"#utility.yul\":14811:14820   */\n      dup2\n        /* \"#utility.yul\":14805:14809   */\n      dup2\n        /* \"#utility.yul\":14801:14821   */\n      sub\n        /* \"#utility.yul\":14797:14798   */\n      0x00\n        /* \"#utility.yul\":14786:14795   */\n      dup4\n        /* \"#utility.yul\":14782:14799   */\n      add\n        /* \"#utility.yul\":14775:14822   */\n      mstore\n        /* \"#utility.yul\":14839:14970   */\n      tag_369\n        /* \"#utility.yul\":14965:14969   */\n      dup2\n        /* \"#utility.yul\":14839:14970   */\n      tag_198\n      jump\t// in\n    tag_369:\n        /* \"#utility.yul\":14831:14970   */\n      swap1\n      pop\n        /* \"#utility.yul\":14558:14977   */\n      swap2\n      swap1\n      pop\n      jump\t// out\n        /* \"#utility.yul\":14983:15163   */\n    tag_199:\n        /* \"#utility.yul\":15031:15108   */\n      0x4e487b7100000000000000000000000000000000000000000000000000000000\n        /* \"#utility.yul\":15028:15029   */\n      0x00\n        /* \"#utility.yul\":15021:15109   */\n      mstore\n        /* \"#utility.yul\":15128:15132   */\n      0x11\n        /* \"#utility.yul\":15125:15126   */\n      0x04\n        /* \"#utility.yul\":15118:15133   */\n      mstore\n        /* \"#utility.yul\":15152:15156   */\n      0x24\n        /* \"#utility.yul\":15149:15150   */\n      0x00\n        /* \"#utility.yul\":15142:15157   */\n      revert\n        /* \"#utility.yul\":15169:15363   */\n    tag_60:\n        /* \"#utility.yul\":15209:15213   */\n      0x00\n        /* \"#utility.yul\":15229:15249   */\n      tag_372\n        /* \"#utility.yul\":15247:15248   */\n      dup3\n        /* \"#utility.yul\":15229:15249   */\n      tag_168\n      jump\t// in\n    tag_372:\n        /* \"#utility.yul\":15224:15249   */\n      swap2\n      pop\n        /* \"#utility.yul\":15263:15283   */\n      tag_373\n        /* \"#utility.yul\":15281:15282   */\n      dup4\n        /* \"#utility.yul\":15263:15283   */\n      tag_168\n      jump\t// in\n    tag_373:\n        /* \"#utility.yul\":15258:15283   */\n      swap3\n      pop\n        /* \"#utility.yul\":15307:15308   */\n      dup3\n        /* \"#utility.yul\":15304:15305   */\n      dup3\n        /* \"#utility.yul\":15300:15309   */\n      sub\n        /* \"#utility.yul\":15292:15309   */\n      swap1\n      pop\n        /* \"#utility.yul\":15331:15332   */\n      dup2\n        /* \"#utility.yul\":15325:15329   */\n      dup2\n        /* \"#utility.yul\":15322:15333   */\n      gt\n        /* \"#utility.yul\":15319:15356   */\n      iszero\n      tag_374\n      jumpi\n        /* \"#utility.yul\":15336:15354   */\n      tag_375\n      tag_199\n      jump\t// in\n    tag_375:\n        /* \"#utility.yul\":15319:15356   */\n    tag_374:\n        /* \"#utility.yul\":15169:15363   */\n      swap3\n      swap2\n      pop\n      pop\n      jump\t// out\n        /* \"#utility.yul\":15369:15549   */\n    tag_64:\n        /* \"#utility.yul\":15417:15494   */\n      0x4e487b7100000000000000000000000000000000000000000000000000000000\n        /* \"#utility.yul\":15414:15415   */\n      0x00\n        /* \"#utility.yul\":15407:15495   */\n      mstore\n        /* \"#utility.yul\":15514:15518   */\n      0x32\n        /* \"#utility.yul\":15511:15512   */\n      0x04\n        /* \"#utility.yul\":15504:15519   */\n      mstore\n        /* \"#utility.yul\":15538:15542   */\n      0x24\n        /* \"#utility.yul\":15535:15536   */\n      0x00\n        /* \"#utility.yul\":15528:15543   */\n      revert\n        /* \"#utility.yul\":15555:15704   */\n    tag_200:\n        /* \"#utility.yul\":15604:15610   */\n      0x00\n        /* \"#utility.yul\":15638:15643   */\n      dup2\n        /* \"#utility.yul\":15632:15644   */\n      sload\n        /* \"#utility.yul\":15622:15644   */\n      swap1\n      pop\n        /* \"#utility.yul\":15664:15697   */\n      tag_378\n        /* \"#utility.yul\":15690:15696   */\n      dup2\n        /* \"#utility.yul\":15664:15697   */\n      tag_44\n      jump\t// in\n    tag_378:\n        /* \"#utility.yul\":15654:15697   */\n      swap1\n      pop\n        /* \"#utility.yul\":15555:15704   */\n      swap2\n      swap1\n      pop\n      jump\t// out\n        /* \"#utility.yul\":15710:15851   */\n    tag_201:\n        /* \"#utility.yul\":15759:15763   */\n      0x00\n        /* \"#utility.yul\":15782:15785   */\n      dup2\n        /* \"#utility.yul\":15774:15785   */\n      swap1\n      pop\n        /* \"#utility.yul\":15805:15808   */\n      dup2\n        /* \"#utility.yul\":15802:15803   */\n      0x00\n        /* \"#utility.yul\":15795:15809   */\n      mstore\n        /* \"#utility.yul\":15839:15843   */\n      0x20\n        /* \"#utility.yul\":15836:15837   */\n      0x00\n        /* \"#utility.yul\":15826:15844   */\n      keccak256\n        /* \"#utility.yul\":15818:15844   */\n      swap1\n      pop\n        /* \"#utility.yul\":15710:15851   */\n      swap2\n      swap1\n      pop\n      jump\t// out\n        /* \"#utility.yul\":15857:15950   */\n    tag_202:\n        /* \"#utility.yul\":15894:15900   */\n      0x00\n        /* \"#utility.yul\":15941:15943   */\n      0x20\n        /* \"#utility.yul\":15936:15938   */\n      0x1f\n        /* \"#utility.yul\":15929:15934   */\n      dup4\n        /* \"#utility.yul\":15925:15939   */\n      add\n        /* \"#utility.yul\":15921:15944   */\n      div\n        /* \"#utility.yul\":15911:15944   */\n      swap1\n      pop\n        /* \"#utility.yul\":15857:15950   */\n      swap2\n      swap1\n      pop\n      jump\t// out\n        /* \"#utility.yul\":15956:16063   */\n    tag_203:\n        /* \"#utility.yul\":16000:16008   */\n      0x00\n        /* \"#utility.yul\":16050:16055   */\n      dup3\n        /* \"#utility.yul\":16044:16048   */\n      dup3\n        /* \"#utility.yul\":16040:16056   */\n      shl\n        /* \"#utility.yul\":16019:16056   */\n      swap1\n      pop\n        /* \"#utility.yul\":15956:16063   */\n      swap3\n      swap2\n      pop\n      pop\n      jump\t// out\n        /* \"#utility.yul\":16069:16462   */\n    tag_204:\n        /* \"#utility.yul\":16138:16144   */\n      0x00\n        /* \"#utility.yul\":16188:16189   */\n      0x08\n        /* \"#utility.yul\":16176:16186   */\n      dup4\n        /* \"#utility.yul\":16172:16190   */\n      mul\n        /* \"#utility.yul\":16211:16308   */\n      tag_383\n        /* \"#utility.yul\":16241:16307   */\n      0xffffffffffffffffffffffffffffffffffffffffffffffffffffffffffffffff\n        /* \"#utility.yul\":16230:16239   */\n      dup3\n        /* \"#utility.yul\":16211:16308   */\n      tag_203\n      jump\t// in\n    tag_383:\n        /* \"#utility.yul\":16329:16368   */\n      tag_384\n        /* \"#utility.yul\":16359:16367   */\n      dup7\n        /* \"#utility.yul\":16348:16357   */\n      dup4\n        /* \"#utility.yul\":16329:16368   */\n      tag_203\n      jump\t// in\n    tag_384:\n        /* \"#utility.yul\":16317:16368   */\n      swap6\n      pop\n        /* \"#utility.yul\":16401:16405   */\n      dup1\n        /* \"#utility.yul\":16397:16406   */\n      not\n        /* \"#utility.yul\":16390:16395   */\n      dup5\n        /* \"#utility.yul\":16386:16407   */\n      and\n        /* \"#utility.yul\":16377:16407   */\n      swap4\n      pop\n        /* \"#utility.yul\":16450:16454   */\n      dup1\n        /* \"#utility.yul\":16440:16448   */\n      dup7\n        /* \"#utility.yul\":16436:16455   */\n      and\n        /* \"#utility.yul\":16429:16434   */\n      dup5\n        /* \"#utility.yul\":16426:16456   */\n      or\n        /* \"#utility.yul\":16416:16456   */\n      swap3\n      pop\n        /* \"#utility.yul\":16145:16462   */\n      pop\n      pop\n        /* \"#utility.yul\":16069:16462   */\n      swap4\n      swap3\n      pop\n      pop\n      pop\n      jump\t// out\n        /* \"#utility.yul\":16468:16528   */\n    tag_205:\n        /* \"#utility.yul\":16496:16499   */\n      0x00\n        /* \"#utility.yul\":16517:16522   */\n      dup2\n        /* \"#utility.yul\":16510:16522   */\n      swap1\n      pop\n        /* \"#utility.yul\":16468:16528   */\n      swap2\n      swap1\n      pop\n      jump\t// out\n        /* \"#utility.yul\":16534:16676   */\n    tag_206:\n        /* \"#utility.yul\":16584:16593   */\n      0x00\n        /* \"#utility.yul\":16617:16670   */\n      tag_387\n        /* \"#utility.yul\":16635:16669   */\n      tag_388\n        /* \"#utility.yul\":16644:16668   */\n      tag_389\n        /* \"#utility.yul\":16662:16667   */\n      dup5\n        /* \"#utility.yul\":16644:16668   */\n      tag_168\n      jump\t// in\n    tag_389:\n        /* \"#utility.yul\":16635:16669   */\n      tag_205\n      jump\t// in\n    tag_388:\n        /* \"#utility.yul\":16617:16670   */\n      tag_168\n      jump\t// in\n    tag_387:\n        /* \"#utility.yul\":16604:16670   */\n      swap1\n      pop\n        /* \"#utility.yul\":16534:16676   */\n      swap2\n      swap1\n      pop\n      jump\t// out\n        /* \"#utility.yul\":16682:16757   */\n    tag_207:\n        /* \"#utility.yul\":16725:16728   */\n      0x00\n        /* \"#utility.yul\":16746:16751   */\n      dup2\n        /* \"#utility.yul\":16739:16751   */\n      swap1\n      pop\n        /* \"#utility.yul\":16682:16757   */\n      swap2\n      swap1\n      pop\n      jump\t// out\n        /* \"#utility.yul\":16763:17032   */\n    tag_208:\n        /* \"#utility.yul\":16873:16912   */\n      tag_392\n        /* \"#utility.yul\":16904:16911   */\n      dup4\n        /* \"#utility.yul\":16873:16912   */\n      tag_206\n      jump\t// in\n    tag_392:\n        /* \"#utility.yul\":16934:17025   */\n      tag_393\n        /* \"#utility.yul\":16983:17024   */\n      tag_394\n        /* \"#utility.yul\":17007:17023   */\n      dup3\n        /* \"#utility.yul\":16983:17024   */\n      tag_207\n      jump\t// in\n    tag_394:\n        /* \"#utility.yul\":16975:16981   */\n      dup5\n        /* \"#utility.yul\":16968:16972   */\n      dup5\n        /* \"#utility.yul\":16962:16973   */\n      sload\n        /* \"#utility.yul\":16934:17025   */\n      tag_204\n      jump\t// in\n    tag_393:\n        /* \"#utility.yul\":16928:16932   */\n      dup3\n        /* \"#utility.yul\":16921:17026   */\n      sstore\n        /* \"#utility.yul\":16839:17032   */\n      pop\n        /* \"#utility.yul\":16763:17032   */\n      pop\n      pop\n      pop\n      jump\t// out\n        /* \"#utility.yul\":17038:17111   */\n    tag_209:\n        /* \"#utility.yul\":17083:17086   */\n      0x00\n        /* \"#utility.yul\":17038:17111   */\n      swap1\n      jump\t// out\n        /* \"#utility.yul\":17117:17306   */\n    tag_210:\n        /* \"#utility.yul\":17194:17226   */\n      tag_397\n      tag_209\n      jump\t// in\n    tag_397:\n        /* \"#utility.yul\":17235:17300   */\n      tag_398\n        /* \"#utility.yul\":17293:17299   */\n      dup2\n        /* \"#utility.yul\":17285:17291   */\n      dup5\n        /* \"#utility.yul\":17279:17283   */\n      dup5\n        /* \"#utility.yul\":17235:17300   */\n      tag_208\n      jump\t// in\n    tag_398:\n        /* \"#utility.yul\":17170:17306   */\n      pop\n        /* \"#utility.yul\":17117:17306   */\n      pop\n      pop\n      jump\t// out\n        /* \"#utility.yul\":17312:17498   */\n    tag_211:\n        /* \"#utility.yul\":17372:17492   */\n    tag_400:\n        /* \"#utility.yul\":17389:17392   */\n      dup2\n        /* \"#utility.yul\":17382:17387   */\n      dup2\n        /* \"#utility.yul\":17379:17393   */\n      lt\n        /* \"#utility.yul\":17372:17492   */\n      iszero\n      tag_402\n      jumpi\n        /* \"#utility.yul\":17443:17482   */\n      tag_403\n        /* \"#utility.yul\":17480:17481   */\n      0x00\n        /* \"#utility.yul\":17473:17478   */\n      dup3\n        /* \"#utility.yul\":17443:17482   */\n      tag_210\n      jump\t// in\n    tag_403:\n        /* \"#utility.yul\":17416:17417   */\n      0x01\n        /* \"#utility.yul\":17409:17414   */\n      dup2\n        /* \"#utility.yul\":17405:17418   */\n      add\n        /* \"#utility.yul\":17396:17418   */\n      swap1\n      pop\n        /* \"#utility.yul\":17372:17492   */\n      jump(tag_400)\n    tag_402:\n        /* \"#utility.yul\":17312:17498   */\n      pop\n      pop\n      jump\t// out\n        /* \"#utility.yul\":17504:18047   */\n    tag_212:\n        /* \"#utility.yul\":17605:17607   */\n      0x1f\n        /* \"#utility.yul\":17600:17603   */\n      dup3\n        /* \"#utility.yul\":17597:17608   */\n      gt\n        /* \"#utility.yul\":17594:18040   */\n      iszero\n      tag_405\n      jumpi\n        /* \"#utility.yul\":17639:17677   */\n      tag_406\n        /* \"#utility.yul\":17671:17676   */\n      dup2\n        /* \"#utility.yul\":17639:17677   */\n      tag_201\n      jump\t// in\n    tag_406:\n        /* \"#utility.yul\":17723:17752   */\n      tag_407\n        /* \"#utility.yul\":17741:17751   */\n      dup5\n        /* \"#utility.yul\":17723:17752   */\n      tag_202\n      jump\t// in\n    tag_407:\n        /* \"#utility.yul\":17713:17721   */\n      dup2\n        /* \"#utility.yul\":17709:17753   */\n      add\n        /* \"#utility.yul\":17906:17908   */\n      0x20\n        /* \"#utility.yul\":17894:17904   */\n      dup6\n        /* \"#utility.yul\":17891:17909   */\n      lt\n        /* \"#utility.yul\":17888:17937   */\n      iszero\n      tag_408\n      jumpi\n        /* \"#utility.yul\":17927:17935   */\n      dup2\n        /* \"#utility.yul\":17912:17935   */\n      swap1\n      pop\n        /* \"#utility.yul\":17888:17937   */\n    tag_408:\n        /* \"#utility.yul\":17950:18030   */\n      tag_409\n        /* \"#utility.yul\":18006:18028   */\n      tag_410\n        /* \"#utility.yul\":18024:18027   */\n      dup6\n        /* \"#utility.yul\":18006:18028   */\n      tag_202\n      jump\t// in\n    tag_410:\n        /* \"#utility.yul\":17996:18004   */\n      dup4\n        /* \"#utility.yul\":17992:18029   */\n      add\n        /* \"#utility.yul\":17979:17990   */\n      dup3\n        /* \"#utility.yul\":17950:18030   */\n      tag_211\n      jump\t// in\n    tag_409:\n        /* \"#utility.yul\":17609:18040   */\n      pop\n      pop\n        /* \"#utility.yul\":17594:18040   */\n    tag_405:\n        /* \"#utility.yul\":17504:18047   */\n      pop\n      pop\n      pop\n      jump\t// out\n        /* \"#utility.yul\":18053:18170   */\n    tag_213:\n        /* \"#utility.yul\":18107:18115   */\n      0x00\n        /* \"#utility.yul\":18157:18162   */\n      dup3\n        /* \"#utility.yul\":18151:18155   */\n      dup3\n        /* \"#utility.yul\":18147:18163   */\n      shr\n        /* \"#utility.yul\":18126:18163   */\n      swap1\n      pop\n        /* \"#utility.yul\":18053:18170   */\n      swap3\n      swap2\n      pop\n      pop\n      jump\t// out\n        /* \"#utility.yul\":18176:18345   */\n    tag_214:\n        /* \"#utility.yul\":18220:18226   */\n      0x00\n        /* \"#utility.yul\":18253:18304   */\n      tag_413\n        /* \"#utility.yul\":18301:18302   */\n      0x00\n        /* \"#utility.yul\":18297:18303   */\n      not\n        /* \"#utility.yul\":18289:18294   */\n      dup5\n        /* \"#utility.yul\":18286:18287   */\n      0x08\n        /* \"#utility.yul\":18282:18295   */\n      mul\n        /* \"#utility.yul\":18253:18304   */\n      tag_213\n      jump\t// in\n    tag_413:\n        /* \"#utility.yul\":18249:18305   */\n      not\n        /* \"#utility.yul\":18334:18338   */\n      dup1\n        /* \"#utility.yul\":18328:18332   */\n      dup4\n        /* \"#utility.yul\":18324:18339   */\n      and\n        /* \"#utility.yul\":18314:18339   */\n      swap2\n      pop\n        /* \"#utility.yul\":18227:18345   */\n      pop\n        /* \"#utility.yul\":18176:18345   */\n      swap3\n      swap2\n      pop\n      pop\n      jump\t// out\n        /* \"#utility.yul\":18350:18645   */\n    tag_215:\n        /* \"#utility.yul\":18426:18430   */\n      0x00\n        /* \"#utility.yul\":18572:18601   */\n      tag_415\n        /* \"#utility.yul\":18597:18600   */\n      dup4\n        /* \"#utility.yul\":18591:18595   */\n      dup4\n        /* \"#utility.yul\":18572:18601   */\n      tag_214\n      jump\t// in\n    tag_415:\n        /* \"#utility.yul\":18564:18601   */\n      swap2\n      pop\n        /* \"#utility.yul\":18634:18637   */\n      dup3\n        /* \"#utility.yul\":18631:18632   */\n      0x02\n        /* \"#utility.yul\":18627:18638   */\n      mul\n        /* \"#utility.yul\":18621:18625   */\n      dup3\n        /* \"#utility.yul\":18618:18639   */\n      or\n        /* \"#utility.yul\":18610:18639   */\n      swap1\n      pop\n        /* \"#utility.yul\":18350:18645   */\n      swap3\n      swap2\n      pop\n      pop\n      jump\t// out\n        /* \"#utility.yul\":18650:20101   */\n    tag_70:\n        /* \"#utility.yul\":18761:18764   */\n      dup2\n        /* \"#utility.yul\":18755:18759   */\n      dup2\n        /* \"#utility.yul\":18752:18765   */\n      sub\n        /* \"#utility.yul\":18749:18775   */\n      tag_417\n      jumpi\n        /* \"#utility.yul\":18768:18773   */\n      pop\n      pop\n      jump(tag_416)\n        /* \"#utility.yul\":18749:18775   */\n    tag_417:\n        /* \"#utility.yul\":18799:18833   */\n      tag_418\n        /* \"#utility.yul\":18829:18832   */\n      dup3\n        /* \"#utility.yul\":18799:18833   */\n      tag_200\n      jump\t// in\n    tag_418:\n        /* \"#utility.yul\":18898:18916   */\n      0xffffffffffffffff\n        /* \"#utility.yul\":18890:18896   */\n      dup2\n        /* \"#utility.yul\":18887:18917   */\n      gt\n        /* \"#utility.yul\":18884:18940   */\n      iszero\n      tag_419\n      jumpi\n        /* \"#utility.yul\":18920:18938   */\n      tag_420\n      tag_179\n      jump\t// in\n    tag_420:\n        /* \"#utility.yul\":18884:18940   */\n    tag_419:\n        /* \"#utility.yul\":18964:19002   */\n      tag_421\n        /* \"#utility.yul\":18996:19000   */\n      dup3\n        /* \"#utility.yul\":18990:19001   */\n      sload\n        /* \"#utility.yul\":18964:19002   */\n      tag_44\n      jump\t// in\n    tag_421:\n        /* \"#utility.yul\":19049:19116   */\n      tag_422\n        /* \"#utility.yul\":19109:19115   */\n      dup3\n        /* \"#utility.yul\":19101:19107   */\n      dup3\n        /* \"#utility.yul\":19095:19099   */\n      dup6\n        /* \"#utility.yul\":19049:19116   */\n      tag_212\n      jump\t// in\n    tag_422:\n        /* \"#utility.yul\":19143:19144   */\n      0x00\n        /* \"#utility.yul\":19172:19174   */\n      0x1f\n        /* \"#utility.yul\":19164:19170   */\n      dup4\n        /* \"#utility.yul\":19161:19175   */\n      gt\n        /* \"#utility.yul\":19189:19190   */\n      0x01\n        /* \"#utility.yul\":19184:19856   */\n      dup2\n      eq\n      tag_424\n      jumpi\n        /* \"#utility.yul\":19900:19901   */\n      0x00\n        /* \"#utility.yul\":19917:19923   */\n      dup5\n        /* \"#utility.yul\":19914:19991   */\n      iszero\n      tag_425\n      jumpi\n        /* \"#utility.yul\":19966:19975   */\n      dup3\n        /* \"#utility.yul\":19961:19964   */\n      dup8\n        /* \"#utility.yul\":19957:19976   */\n      add\n        /* \"#utility.yul\":19951:19977   */\n      sload\n        /* \"#utility.yul\":19942:19977   */\n      swap1\n      pop\n        /* \"#utility.yul\":19914:19991   */\n    tag_425:\n        /* \"#utility.yul\":20017:20084   */\n      tag_426\n        /* \"#utility.yul\":20077:20083   */\n      dup6\n        /* \"#utility.yul\":20070:20075   */\n      dup3\n        /* \"#utility.yul\":20017:20084   */\n      tag_215\n      jump\t// in\n    tag_426:\n        /* \"#utility.yul\":20011:20015   */\n      dup7\n        /* \"#utility.yul\":20004:20085   */\n      sstore\n        /* \"#utility.yul\":19873:20095   */\n      pop\n        /* \"#utility.yul\":19154:20095   */\n      jump(tag_423)\n        /* \"#utility.yul\":19184:19856   */\n    tag_424:\n        /* \"#utility.yul\":19236:19240   */\n      0x1f\n        /* \"#utility.yul\":19232:19241   */\n      not\n        /* \"#utility.yul\":19224:19230   */\n      dup5\n        /* \"#utility.yul\":19220:19242   */\n      and\n        /* \"#utility.yul\":19262:19298   */\n      tag_427\n        /* \"#utility.yul\":19294:19297   */\n      dup8\n        /* \"#utility.yul\":19262:19298   */\n      tag_201\n      jump\t// in\n    tag_427:\n        /* \"#utility.yul\":19255:19298   */\n      swap7\n      pop\n        /* \"#utility.yul\":19325:19362   */\n      tag_428\n        /* \"#utility.yul\":19357:19361   */\n      dup7\n        /* \"#utility.yul\":19325:19362   */\n      tag_201\n      jump\t// in\n    tag_428:\n        /* \"#utility.yul\":19384:19385   */\n      0x00\n        /* \"#utility.yul\":19398:19605   */\n    tag_429:\n        /* \"#utility.yul\":19412:19419   */\n      dup3\n        /* \"#utility.yul\":19409:19410   */\n      dup2\n        /* \"#utility.yul\":19406:19420   */\n      lt\n        /* \"#utility.yul\":19398:19605   */\n      iszero\n      tag_431\n      jumpi\n        /* \"#utility.yul\":19491:19500   */\n      dup5\n        /* \"#utility.yul\":19486:19489   */\n      dup10\n        /* \"#utility.yul\":19482:19501   */\n      add\n        /* \"#utility.yul\":19476:19502   */\n      sload\n        /* \"#utility.yul\":19468:19474   */\n      dup3\n        /* \"#utility.yul\":19461:19503   */\n      sstore\n        /* \"#utility.yul\":19542:19543   */\n      0x01\n        /* \"#utility.yul\":19534:19540   */\n      dup3\n        /* \"#utility.yul\":19530:19544   */\n      add\n        /* \"#utility.yul\":19520:19544   */\n      swap2\n      pop\n        /* \"#utility.yul\":19589:19590   */\n      0x01\n        /* \"#utility.yul\":19578:19587   */\n      dup6\n        /* \"#utility.yul\":19574:19591   */\n      add\n        /* \"#utility.yul\":19561:19591   */\n      swap5\n      pop\n        /* \"#utility.yul\":19435:19439   */\n      0x20\n        /* \"#utility.yul\":19432:19433   */\n      dup2\n        /* \"#utility.yul\":19428:19440   */\n      add\n        /* \"#utility.yul\":19423:19440   */\n      swap1\n      pop\n        /* \"#utility.yul\":19398:19605   */\n      jump(tag_429)\n    tag_431:\n        /* \"#utility.yul\":19633:19639   */\n      dup7\n        /* \"#utility.yul\":19624:19631   */\n      dup4\n        /* \"#utility.yul\":19621:19640   */\n      lt\n        /* \"#utility.yul\":19618:19797   */\n      iszero\n      tag_432\n      jumpi\n        /* \"#utility.yul\":19691:19700   */\n      dup5\n        /* \"#utility.yul\":19686:19689   */\n      dup10\n        /* \"#utility.yul\":19682:19701   */\n      add\n        /* \"#utility.yul\":19676:19702   */\n      sload\n        /* \"#utility.yul\":19734:19782   */\n      tag_433\n        /* \"#utility.yul\":19776:19780   */\n      0x1f\n        /* \"#utility.yul\":19768:19774   */\n      dup10\n        /* \"#utility.yul\":19764:19781   */\n      and\n        /* \"#utility.yul\":19753:19762   */\n      dup3\n        /* \"#utility.yul\":19734:19782   */\n      tag_214\n      jump\t// in\n    tag_433:\n        /* \"#utility.yul\":19726:19732   */\n      dup4\n        /* \"#utility.yul\":19719:19783   */\n      sstore\n        /* \"#utility.yul\":19641:19797   */\n      pop\n        /* \"#utility.yul\":19618:19797   */\n    tag_432:\n        /* \"#utility.yul\":19843:19844   */\n      0x01\n        /* \"#utility.yul\":19839:19840   */\n      0x02\n        /* \"#utility.yul\":19831:19837   */\n      dup9\n        /* \"#utility.yul\":19827:19841   */\n      mul\n        /* \"#utility.yul\":19823:19845   */\n      add\n        /* \"#utility.yul\":19817:19821   */\n      dup9\n        /* \"#utility.yul\":19810:19846   */\n      sstore\n        /* \"#utility.yul\":19191:19856   */\n      pop\n      pop\n      pop\n        /* \"#utility.yul\":19154:20095   */\n    tag_423:\n      pop\n        /* \"#utility.yul\":18739:20101   */\n      pop\n      pop\n      pop\n        /* \"#utility.yul\":18650:20101   */\n      pop\n      pop\n    tag_416:\n      jump\t// out\n        /* \"#utility.yul\":20107:20287   */\n    tag_74:\n        /* \"#utility.yul\":20155:20232   */\n      0x4e487b7100000000000000000000000000000000000000000000000000000000\n        /* \"#utility.yul\":20152:20153   */\n      0x00\n        /* \"#utility.yul\":20145:20233   */\n      mstore\n        /* \"#utility.yul\":20252:20256   */\n      0x31\n        /* \"#utility.yul\":20249:20250   */\n      0x04\n        /* \"#utility.yul\":20242:20257   */\n      mstore\n        /* \"#utility.yul\":20276:20280   */\n      0x24\n        /* \"#utility.yul\":20273:20274   */\n      0x00\n        /* \"#utility.yul\":20266:20281   */\n      revert\n        /* \"#utility.yul\":20293:20515   */\n    tag_80:\n        /* \"#utility.yul\":20386:20390   */\n      0x00\n        /* \"#utility.yul\":20424:20426   */\n      0x20\n        /* \"#utility.yul\":20413:20422   */\n      dup3\n        /* \"#utility.yul\":20409:20427   */\n      add\n        /* \"#utility.yul\":20401:20427   */\n      swap1\n      pop\n        /* \"#utility.yul\":20437:20508   */\n      tag_436\n        /* \"#utility.yul\":20505:20506   */\n      0x00\n        /* \"#utility.yul\":20494:20503   */\n      dup4\n        /* \"#utility.yul\":20490:20507   */\n      add\n        /* \"#utility.yul\":20481:20487   */\n      dup5\n        /* \"#utility.yul\":20437:20508   */\n      tag_176\n      jump\t// in\n    tag_436:\n        /* \"#utility.yul\":20293:20515   */\n      swap3\n      swap2\n      pop\n      pop\n      jump\t// out\n        /* \"#utility.yul\":20521:20696   */\n    tag_216:\n        /* \"#utility.yul\":20661:20688   */\n      0x4974656d206e616d652063616e6e6f7420626520656d70747900000000000000\n        /* \"#utility.yul\":20657:20658   */\n      0x00\n        /* \"#utility.yul\":20649:20655   */\n      dup3\n        /* \"#utility.yul\":20645:20659   */\n      add\n        /* \"#utility.yul\":20638:20689   */\n      mstore\n        /* \"#utility.yul\":20521:20696   */\n      pop\n      jump\t// out\n        /* \"#utility.yul\":20702:21068   */\n    tag_217:\n        /* \"#utility.yul\":20844:20847   */\n      0x00\n        /* \"#utility.yul\":20865:20932   */\n      tag_439\n        /* \"#utility.yul\":20929:20931   */\n      0x19\n        /* \"#utility.yul\":20924:20927   */\n      dup4\n        /* \"#utility.yul\":20865:20932   */\n      tag_172\n      jump\t// in\n    tag_439:\n        /* \"#utility.yul\":20858:20932   */\n      swap2\n      pop\n        /* \"#utility.yul\":20941:21034   */\n      tag_440\n        /* \"#utility.yul\":21030:21033   */\n      dup3\n        /* \"#utility.yul\":20941:21034   */\n      tag_216\n      jump\t// in\n    tag_440:\n        /* \"#utility.yul\":21059:21061   */\n      0x20\n        /* \"#utility.yul\":21054:21057   */\n      dup3\n        /* \"#utility.yul\":21050:21062   */\n      add\n        /* \"#utility.yul\":21043:21062   */\n      swap1\n      pop\n        /* \"#utility.yul\":20702:21068   */\n      swap2\n      swap1\n      pop\n      jump\t// out\n        /* \"#utility.yul\":21074:21493   */\n    tag_87:\n        /* \"#utility.yul\":21240:21244   */\n      0x00\n        /* \"#utility.yul\":21278:21280   */\n      0x20\n        /* \"#utility.yul\":21267:21276   */\n      dup3\n        /* \"#utility.yul\":21263:21281   */\n      add\n        /* \"#utility.yul\":21255:21281   */\n      swap1\n      pop\n        /* \"#utility.yul\":21327:21336   */\n      dup2\n        /* \"#utility.yul\":21321:21325   */\n      dup2\n        /* \"#utility.yul\":21317:21337   */\n      sub\n        /* \"#utility.yul\":21313:21314   */\n      0x00\n        /* \"#utility.yul\":21302:21311   */\n      dup4\n        /* \"#utility.yul\":21298:21315   */\n      add\n        /* \"#utility.yul\":21291:21338   */\n      mstore\n        /* \"#utility.yul\":21355:21486   */\n      tag_442\n        /* \"#utility.yul\":21481:21485   */\n      dup2\n        /* \"#utility.yul\":21355:21486   */\n      tag_217\n      jump\t// in\n    tag_442:\n        /* \"#utility.yul\":21347:21486   */\n      swap1\n      pop\n        /* \"#utility.yul\":21074:21493   */\n      swap2\n      swap1\n      pop\n      jump\t// out\n        /* \"#utility.yul\":21499:21681   */\n    tag_218:\n        /* \"#utility.yul\":21639:21673   */\n      0x4974656d206465736372697074696f6e2063616e6e6f7420626520656d707479\n        /* \"#utility.yul\":21635:21636   */\n      0x00\n        /* \"#utility.yul\":21627:21633   */\n      dup3\n        /* \"#utility.yul\":21623:21637   */\n      add\n        /* \"#utility.yul\":21616:21674   */\n      mstore\n        /* \"#utility.yul\":21499:21681   */\n      pop\n      jump\t// out\n        /* \"#utility.yul\":21687:22053   */\n    tag_219:\n        /* \"#utility.yul\":21829:21832   */\n      0x00\n        /* \"#utility.yul\":21850:21917   */\n      tag_445\n        /* \"#utility.yul\":21914:21916   */\n      0x20\n        /* \"#utility.yul\":21909:21912   */\n      dup4\n        /* \"#utility.yul\":21850:21917   */\n      tag_172\n      jump\t// in\n    tag_445:\n        /* \"#utility.yul\":21843:21917   */\n      swap2\n      pop\n        /* \"#utility.yul\":21926:22019   */\n      tag_446\n        /* \"#utility.yul\":22015:22018   */\n      dup3\n        /* \"#utility.yul\":21926:22019   */\n      tag_218\n      jump\t// in\n    tag_446:\n        /* \"#utility.yul\":22044:22046   */\n      0x20\n        /* \"#utility.yul\":22039:22042   */\n      dup3\n        /* \"#utility.yul\":22035:22047   */\n      add\n        /* \"#utility.yul\":22028:22047   */\n      swap1\n      pop\n        /* \"#utility.yul\":21687:22053   */\n      swap2\n      swap1\n      pop\n      jump\t// out\n        /* \"#utility.yul\":22059:22478   */\n    tag_90:\n        /* \"#utility.yul\":22225:22229   */\n      0x00\n        /* \"#utility.yul\":22263:22265   */\n      0x20\n        /* \"#utility.yul\":22252:22261   */\n      dup3\n        /* \"#utility.yul\":22248:22266   */\n      add\n        /* \"#utility.yul\":22240:22266   */\n      swap1\n      pop\n        /* \"#utility.yul\":22312:22321   */\n      dup2\n        /* \"#utility.yul\":22306:22310   */\n      dup2\n        /* \"#utility.yul\":22302:22322   */\n      sub\n        /* \"#utility.yul\":22298:22299   */\n      0x00\n        /* \"#utility.yul\":22287:22296   */\n      dup4\n        /* \"#utility.yul\":22283:22300   */\n      add\n        /* \"#utility.yul\":22276:22323   */\n      mstore\n        /* \"#utility.yul\":22340:22471   */\n      tag_448\n        /* \"#utility.yul\":22466:22470   */\n      dup2\n        /* \"#utility.yul\":22340:22471   */\n      tag_219\n      jump\t// in\n    tag_448:\n        /* \"#utility.yul\":22332:22471   */\n      swap1\n      pop\n        /* \"#utility.yul\":22059:22478   */\n      swap2\n      swap1\n      pop\n      jump\t// out\n        /* \"#utility.yul\":22484:22665   */\n    tag_220:\n        /* \"#utility.yul\":22624:22657   */\n      0x5072696365206d7573742062652067726561746572207468616e207a65726f00\n        /* \"#utility.yul\":22620:22621   */\n      0x00\n        /* \"#utility.yul\":22612:22618   */\n      dup3\n        /* \"#utility.yul\":22608:22622   */\n      add\n        /* \"#utility.yul\":22601:22658   */\n      mstore\n        /* \"#utility.yul\":22484:22665   */\n      pop\n      jump\t// out\n        /* \"#utility.yul\":22671:23037   */\n    tag_221:\n        /* \"#utility.yul\":22813:22816   */\n      0x00\n        /* \"#utility.yul\":22834:22901   */\n      tag_451\n        /* \"#utility.yul\":22898:22900   */\n      0x1f\n        /* \"#utility.yul\":22893:22896   */\n      dup4\n        /* \"#utility.yul\":22834:22901   */\n      tag_172\n      jump\t// in\n    tag_451:\n        /* \"#utility.yul\":22827:22901   */\n      swap2\n      pop\n        /* \"#utility.yul\":22910:23003   */\n      tag_452\n        /* \"#utility.yul\":22999:23002   */\n      dup3\n        /* \"#utility.yul\":22910:23003   */\n      tag_220\n      jump\t// in\n    tag_452:\n        /* \"#utility.yul\":23028:23030   */\n      0x20\n        /* \"#utility.yul\":23023:23026   */\n      dup3\n        /* \"#utility.yul\":23019:23031   */\n      add\n        /* \"#utility.yul\":23012:23031   */\n      swap1\n      pop\n        /* \"#utility.yul\":22671:23037   */\n      swap2\n      swap1\n      pop\n      jump\t// out\n        /* \"#utility.yul\":23043:23462   */\n    tag_93:\n        /* \"#utility.yul\":23209:23213   */\n      0x00\n        /* \"#utility.yul\":23247:23249   */\n      0x20\n        /* \"#utility.yul\":23236:23245   */\n      dup3\n        /* \"#utility.yul\":23232:23250   */\n      add\n        /* \"#utility.yul\":23224:23250   */\n      swap1\n      pop\n        /* \"#utility.yul\":23296:23305   */\n      dup2\n        /* \"#utility.yul\":23290:23294   */\n      dup2\n        /* \"#utility.yul\":23286:23306   */\n      sub\n        /* \"#utility.yul\":23282:23283   */\n      0x00\n        /* \"#utility.yul\":23271:23280   */\n      dup4\n        /* \"#utility.yul\":23267:23284   */\n      add\n        /* \"#utility.yul\":23260:23307   */\n      mstore\n        /* \"#utility.yul\":23324:23455   */\n      tag_454\n        /* \"#utility.yul\":23450:23454   */\n      dup2\n        /* \"#utility.yul\":23324:23455   */\n      tag_221\n      jump\t// in\n    tag_454:\n        /* \"#utility.yul\":23316:23455   */\n      swap1\n      pop\n        /* \"#utility.yul\":23043:23462   */\n      swap2\n      swap1\n      pop\n      jump\t// out\n        /* \"#utility.yul\":23468:23689   */\n    tag_222:\n        /* \"#utility.yul\":23608:23642   */\n      0x5175616e74697479206d7573742062652067726561746572207468616e207a65\n        /* \"#utility.yul\":23604:23605   */\n      0x00\n        /* \"#utility.yul\":23596:23602   */\n      dup3\n        /* \"#utility.yul\":23592:23606   */\n      add\n        /* \"#utility.yul\":23585:23643   */\n      mstore\n        /* \"#utility.yul\":23677:23681   */\n      0x726f000000000000000000000000000000000000000000000000000000000000\n        /* \"#utility.yul\":23672:23674   */\n      0x20\n        /* \"#utility.yul\":23664:23670   */\n      dup3\n        /* \"#utility.yul\":23660:23675   */\n      add\n        /* \"#utility.yul\":23653:23682   */\n      mstore\n        /* \"#utility.yul\":23468:23689   */\n      pop\n      jump\t// out\n        /* \"#utility.yul\":23695:24061   */\n    tag_223:\n        /* \"#utility.yul\":23837:23840   */\n      0x00\n        /* \"#utility.yul\":23858:23925   */\n      tag_457\n        /* \"#utility.yul\":23922:23924   */\n      0x22\n        /* \"#utility.yul\":23917:23920   */\n      dup4\n        /* \"#utility.yul\":23858:23925   */\n      tag_172\n      jump\t// in\n    tag_457:\n        /* \"#utility.yul\":23851:23925   */\n      swap2\n      pop\n        /* \"#utility.yul\":23934:24027   */\n      tag_458\n        /* \"#utility.yul\":24023:24026   */\n      dup3\n        /* \"#utility.yul\":23934:24027   */\n      tag_222\n      jump\t// in\n    tag_458:\n        /* \"#utility.yul\":24052:24054   */\n      0x40\n        /* \"#utility.yul\":24047:24050   */\n      dup3\n        /* \"#utility.yul\":24043:24055   */\n      add\n        /* \"#utility.yul\":24036:24055   */\n      swap1\n      pop\n        /* \"#utility.yul\":23695:24061   */\n      swap2\n      swap1\n      pop\n      jump\t// out\n        /* \"#utility.yul\":24067:24486   */\n    tag_96:\n        /* \"#utility.yul\":24233:24237   */\n      0x00\n        /* \"#utility.yul\":24271:24273   */\n      0x20\n        /* \"#utility.yul\":24260:24269   */\n      dup3\n        /* \"#utility.yul\":24256:24274   */\n      add\n        /* \"#utility.yul\":24248:24274   */\n      swap1\n      pop\n        /* \"#utility.yul\":24320:24329   */\n      dup2\n        /* \"#utility.yul\":24314:24318   */\n      dup2\n        /* \"#utility.yul\":24310:24330   */\n      sub\n        /* \"#utility.yul\":24306:24307   */\n      0x00\n        /* \"#utility.yul\":24295:24304   */\n      dup4\n        /* \"#utility.yul\":24291:24308   */\n      add\n        /* \"#utility.yul\":24284:24331   */\n      mstore\n        /* \"#utility.yul\":24348:24479   */\n      tag_460\n        /* \"#utility.yul\":24474:24478   */\n      dup2\n        /* \"#utility.yul\":24348:24479   */\n      tag_223\n      jump\t// in\n    tag_460:\n        /* \"#utility.yul\":24340:24479   */\n      swap1\n      pop\n        /* \"#utility.yul\":24067:24486   */\n      swap2\n      swap1\n      pop\n      jump\t// out\n        /* \"#utility.yul\":24492:25887   */\n    tag_101:\n        /* \"#utility.yul\":24609:24646   */\n      tag_462\n        /* \"#utility.yul\":24642:24645   */\n      dup3\n        /* \"#utility.yul\":24609:24646   */\n      tag_171\n      jump\t// in\n    tag_462:\n        /* \"#utility.yul\":24711:24729   */\n      0xffffffffffffffff\n        /* \"#utility.yul\":24703:24709   */\n      dup2\n        /* \"#utility.yul\":24700:24730   */\n      gt\n        /* \"#utility.yul\":24697:24753   */\n      iszero\n      tag_463\n      jumpi\n        /* \"#utility.yul\":24733:24751   */\n      tag_464\n      tag_179\n      jump\t// in\n    tag_464:\n        /* \"#utility.yul\":24697:24753   */\n    tag_463:\n        /* \"#utility.yul\":24777:24815   */\n      tag_465\n        /* \"#utility.yul\":24809:24813   */\n      dup3\n        /* \"#utility.yul\":24803:24814   */\n      sload\n        /* \"#utility.yul\":24777:24815   */\n      tag_44\n      jump\t// in\n    tag_465:\n        /* \"#utility.yul\":24862:24929   */\n      tag_466\n        /* \"#utility.yul\":24922:24928   */\n      dup3\n        /* \"#utility.yul\":24914:24920   */\n      dup3\n        /* \"#utility.yul\":24908:24912   */\n      dup6\n        /* \"#utility.yul\":24862:24929   */\n      tag_212\n      jump\t// in\n    tag_466:\n        /* \"#utility.yul\":24956:24957   */\n      0x00\n        /* \"#utility.yul\":24980:24984   */\n      0x20\n        /* \"#utility.yul\":24967:24984   */\n      swap1\n      pop\n        /* \"#utility.yul\":25012:25014   */\n      0x1f\n        /* \"#utility.yul\":25004:25010   */\n      dup4\n        /* \"#utility.yul\":25001:25015   */\n      gt\n        /* \"#utility.yul\":25029:25030   */\n      0x01\n        /* \"#utility.yul\":25024:25642   */\n      dup2\n      eq\n      tag_468\n      jumpi\n        /* \"#utility.yul\":25686:25687   */\n      0x00\n        /* \"#utility.yul\":25703:25709   */\n      dup5\n        /* \"#utility.yul\":25700:25777   */\n      iszero\n      tag_469\n      jumpi\n        /* \"#utility.yul\":25752:25761   */\n      dup3\n        /* \"#utility.yul\":25747:25750   */\n      dup8\n        /* \"#utility.yul\":25743:25762   */\n      add\n        /* \"#utility.yul\":25737:25763   */\n      mload\n        /* \"#utility.yul\":25728:25763   */\n      swap1\n      pop\n        /* \"#utility.yul\":25700:25777   */\n    tag_469:\n        /* \"#utility.yul\":25803:25870   */\n      tag_470\n        /* \"#utility.yul\":25863:25869   */\n      dup6\n        /* \"#utility.yul\":25856:25861   */\n      dup3\n        /* \"#utility.yul\":25803:25870   */\n      tag_215\n      jump\t// in\n    tag_470:\n        /* \"#utility.yul\":25797:25801   */\n      dup7\n        /* \"#utility.yul\":25790:25871   */\n      sstore\n        /* \"#utility.yul\":25659:25881   */\n      pop\n        /* \"#utility.yul\":24994:25881   */\n      jump(tag_467)\n        /* \"#utility.yul\":25024:25642   */\n    tag_468:\n        /* \"#utility.yul\":25076:25080   */\n      0x1f\n        /* \"#utility.yul\":25072:25081   */\n      not\n        /* \"#utility.yul\":25064:25070   */\n      dup5\n        /* \"#utility.yul\":25060:25082   */\n      and\n        /* \"#utility.yul\":25110:25147   */\n      tag_471\n        /* \"#utility.yul\":25142:25146   */\n      dup7\n        /* \"#utility.yul\":25110:25147   */\n      tag_201\n      jump\t// in\n    tag_471:\n        /* \"#utility.yul\":25169:25170   */\n      0x00\n        /* \"#utility.yul\":25183:25391   */\n    tag_472:\n        /* \"#utility.yul\":25197:25204   */\n      dup3\n        /* \"#utility.yul\":25194:25195   */\n      dup2\n        /* \"#utility.yul\":25191:25205   */\n      lt\n        /* \"#utility.yul\":25183:25391   */\n      iszero\n      tag_474\n      jumpi\n        /* \"#utility.yul\":25276:25285   */\n      dup5\n        /* \"#utility.yul\":25271:25274   */\n      dup10\n        /* \"#utility.yul\":25267:25286   */\n      add\n        /* \"#utility.yul\":25261:25287   */\n      mload\n        /* \"#utility.yul\":25253:25259   */\n      dup3\n        /* \"#utility.yul\":25246:25288   */\n      sstore\n        /* \"#utility.yul\":25327:25328   */\n      0x01\n        /* \"#utility.yul\":25319:25325   */\n      dup3\n        /* \"#utility.yul\":25315:25329   */\n      add\n        /* \"#utility.yul\":25305:25329   */\n      swap2\n      pop\n        /* \"#utility.yul\":25374:25376   */\n      0x20\n        /* \"#utility.yul\":25363:25372   */\n      dup6\n        /* \"#utility.yul\":25359:25377   */\n      add\n        /* \"#utility.yul\":25346:25377   */\n      swap5\n      pop\n        /* \"#utility.yul\":25220:25224   */\n      0x20\n        /* \"#utility.yul\":25217:25218   */\n      dup2\n        /* \"#utility.yul\":25213:25225   */\n      add\n        /* \"#utility.yul\":25208:25225   */\n      swap1\n      pop\n        /* \"#utility.yul\":25183:25391   */\n      jump(tag_472)\n    tag_474:\n        /* \"#utility.yul\":25419:25425   */\n      dup7\n        /* \"#utility.yul\":25410:25417   */\n      dup4\n        /* \"#utility.yul\":25407:25426   */\n      lt\n        /* \"#utility.yul\":25404:25583   */\n      iszero\n      tag_475\n      jumpi\n        /* \"#utility.yul\":25477:25486   */\n      dup5\n        /* \"#utility.yul\":25472:25475   */\n      dup10\n        /* \"#utility.yul\":25468:25487   */\n      add\n        /* \"#utility.yul\":25462:25488   */\n      mload\n        /* \"#utility.yul\":25520:25568   */\n      tag_476\n        /* \"#utility.yul\":25562:25566   */\n      0x1f\n        /* \"#utility.yul\":25554:25560   */\n      dup10\n        /* \"#utility.yul\":25550:25567   */\n      and\n        /* \"#utility.yul\":25539:25548   */\n      dup3\n        /* \"#utility.yul\":25520:25568   */\n      tag_214\n      jump\t// in\n    tag_476:\n        /* \"#utility.yul\":25512:25518   */\n      dup4\n        /* \"#utility.yul\":25505:25569   */\n      sstore\n        /* \"#utility.yul\":25427:25583   */\n      pop\n        /* \"#utility.yul\":25404:25583   */\n    tag_475:\n        /* \"#utility.yul\":25629:25630   */\n      0x01\n        /* \"#utility.yul\":25625:25626   */\n      0x02\n        /* \"#utility.yul\":25617:25623   */\n      dup9\n        /* \"#utility.yul\":25613:25627   */\n      mul\n        /* \"#utility.yul\":25609:25631   */\n      add\n        /* \"#utility.yul\":25603:25607   */\n      dup9\n        /* \"#utility.yul\":25596:25632   */\n      sstore\n        /* \"#utility.yul\":25031:25642   */\n      pop\n      pop\n      pop\n        /* \"#utility.yul\":24994:25881   */\n    tag_467:\n      pop\n        /* \"#utility.yul\":24584:25887   */\n      pop\n      pop\n      pop\n        /* \"#utility.yul\":24492:25887   */\n      pop\n      pop\n      jump\t// out\n        /* \"#utility.yul\":25893:26537   */\n    tag_104:\n        /* \"#utility.yul\":26090:26094   */\n      0x00\n        /* \"#utility.yul\":26128:26131   */\n      0x80\n        /* \"#utility.yul\":26117:26126   */\n      dup3\n        /* \"#utility.yul\":26113:26132   */\n      add\n        /* \"#utility.yul\":26105:26132   */\n      swap1\n      pop\n        /* \"#utility.yul\":26142:26213   */\n      tag_478\n        /* \"#utility.yul\":26210:26211   */\n      0x00\n        /* \"#utility.yul\":26199:26208   */\n      dup4\n        /* \"#utility.yul\":26195:26212   */\n      add\n        /* \"#utility.yul\":26186:26192   */\n      dup8\n        /* \"#utility.yul\":26142:26213   */\n      tag_176\n      jump\t// in\n    tag_478:\n        /* \"#utility.yul\":26260:26269   */\n      dup2\n        /* \"#utility.yul\":26254:26258   */\n      dup2\n        /* \"#utility.yul\":26250:26270   */\n      sub\n        /* \"#utility.yul\":26245:26247   */\n      0x20\n        /* \"#utility.yul\":26234:26243   */\n      dup4\n        /* \"#utility.yul\":26230:26248   */\n      add\n        /* \"#utility.yul\":26223:26271   */\n      mstore\n        /* \"#utility.yul\":26288:26366   */\n      tag_479\n        /* \"#utility.yul\":26361:26365   */\n      dup2\n        /* \"#utility.yul\":26352:26358   */\n      dup7\n        /* \"#utility.yul\":26288:26366   */\n      tag_175\n      jump\t// in\n    tag_479:\n        /* \"#utility.yul\":26280:26366   */\n      swap1\n      pop\n        /* \"#utility.yul\":26376:26448   */\n      tag_480\n        /* \"#utility.yul\":26444:26446   */\n      0x40\n        /* \"#utility.yul\":26433:26442   */\n      dup4\n        /* \"#utility.yul\":26429:26447   */\n      add\n        /* \"#utility.yul\":26420:26426   */\n      dup6\n        /* \"#utility.yul\":26376:26448   */\n      tag_176\n      jump\t// in\n    tag_480:\n        /* \"#utility.yul\":26458:26530   */\n      tag_481\n        /* \"#utility.yul\":26526:26528   */\n      0x60\n        /* \"#utility.yul\":26515:26524   */\n      dup4\n        /* \"#utility.yul\":26511:26529   */\n      add\n        /* \"#utility.yul\":26502:26508   */\n      dup5\n        /* \"#utility.yul\":26458:26530   */\n      tag_176\n      jump\t// in\n    tag_481:\n        /* \"#utility.yul\":25893:26537   */\n      swap6\n      swap5\n      pop\n      pop\n      pop\n      pop\n      pop\n      jump\t// out\n        /* \"#utility.yul\":26543:27076   */\n    tag_132:\n        /* \"#utility.yul\":26712:26716   */\n      0x00\n        /* \"#utility.yul\":26750:26752   */\n      0x60\n        /* \"#utility.yul\":26739:26748   */\n      dup3\n        /* \"#utility.yul\":26735:26753   */\n      add\n        /* \"#utility.yul\":26727:26753   */\n      swap1\n      pop\n        /* \"#utility.yul\":26799:26808   */\n      dup2\n        /* \"#utility.yul\":26793:26797   */\n      dup2\n        /* \"#utility.yul\":26789:26809   */\n      sub\n        /* \"#utility.yul\":26785:26786   */\n      0x00\n        /* \"#utility.yul\":26774:26783   */\n      dup4\n        /* \"#utility.yul\":26770:26787   */\n      add\n        /* \"#utility.yul\":26763:26810   */\n      mstore\n        /* \"#utility.yul\":26827:26905   */\n      tag_483\n        /* \"#utility.yul\":26900:26904   */\n      dup2\n        /* \"#utility.yul\":26891:26897   */\n      dup7\n        /* \"#utility.yul\":26827:26905   */\n      tag_175\n      jump\t// in\n    tag_483:\n        /* \"#utility.yul\":26819:26905   */\n      swap1\n      pop\n        /* \"#utility.yul\":26915:26987   */\n      tag_484\n        /* \"#utility.yul\":26983:26985   */\n      0x20\n        /* \"#utility.yul\":26972:26981   */\n      dup4\n        /* \"#utility.yul\":26968:26986   */\n      add\n        /* \"#utility.yul\":26959:26965   */\n      dup6\n        /* \"#utility.yul\":26915:26987   */\n      tag_176\n      jump\t// in\n    tag_484:\n        /* \"#utility.yul\":26997:27069   */\n      tag_485\n        /* \"#utility.yul\":27065:27067   */\n      0x40\n        /* \"#utility.yul\":27054:27063   */\n      dup4\n        /* \"#utility.yul\":27050:27068   */\n      add\n        /* \"#utility.yul\":27041:27047   */\n      dup5\n        /* \"#utility.yul\":26997:27069   */\n      tag_176\n      jump\t// in\n    tag_485:\n        /* \"#utility.yul\":26543:27076   */\n      swap5\n      swap4\n      pop\n      pop\n      pop\n      pop\n      jump\t// out\n        /* \"#utility.yul\":27082:27248   */\n    tag_224:\n        /* \"#utility.yul\":27222:27240   */\n      0x4e6f7420656e6f7567682073746f636b00000000000000000000000000000000\n        /* \"#utility.yul\":27218:27219   */\n      0x00\n        /* \"#utility.yul\":27210:27216   */\n      dup3\n        /* \"#utility.yul\":27206:27220   */\n      add\n        /* \"#utility.yul\":27199:27241   */\n      mstore\n        /* \"#utility.yul\":27082:27248   */\n      pop\n      jump\t// out\n        /* \"#utility.yul\":27254:27620   */\n    tag_225:\n        /* \"#utility.yul\":27396:27399   */\n      0x00\n        /* \"#utility.yul\":27417:27484   */\n      tag_488\n        /* \"#utility.yul\":27481:27483   */\n      0x10\n        /* \"#utility.yul\":27476:27479   */\n      dup4\n        /* \"#utility.yul\":27417:27484   */\n      tag_172\n      jump\t// in\n    tag_488:\n        /* \"#utility.yul\":27410:27484   */\n      swap2\n      pop\n        /* \"#utility.yul\":27493:27586   */\n      tag_489\n        /* \"#utility.yul\":27582:27585   */\n      dup3\n        /* \"#utility.yul\":27493:27586   */\n      tag_224\n      jump\t// in\n    tag_489:\n        /* \"#utility.yul\":27611:27613   */\n      0x20\n        /* \"#utility.yul\":27606:27609   */\n      dup3\n        /* \"#utility.yul\":27602:27614   */\n      add\n        /* \"#utility.yul\":27595:27614   */\n      swap1\n      pop\n        /* \"#utility.yul\":27254:27620   */\n      swap2\n      swap1\n      pop\n      jump\t// out\n        /* \"#utility.yul\":27626:28045   */\n    tag_143:\n        /* \"#utility.yul\":27792:27796   */\n      0x00\n        /* \"#utility.yul\":27830:27832   */\n      0x20\n        /* \"#utility.yul\":27819:27828   */\n      dup3\n        /* \"#utility.yul\":27815:27833   */\n      add\n        /* \"#utility.yul\":27807:27833   */\n      swap1\n      pop\n        /* \"#utility.yul\":27879:27888   */\n      dup2\n        /* \"#utility.yul\":27873:27877   */\n      dup2\n        /* \"#utility.yul\":27869:27889   */\n      sub\n        /* \"#utility.yul\":27865:27866   */\n      0x00\n        /* \"#utility.yul\":27854:27863   */\n      dup4\n        /* \"#utility.yul\":27850:27867   */\n      add\n        /* \"#utility.yul\":27843:27890   */\n      mstore\n        /* \"#utility.yul\":27907:28038   */\n      tag_491\n        /* \"#utility.yul\":28033:28037   */\n      dup2\n        /* \"#utility.yul\":27907:28038   */\n      tag_225\n      jump\t// in\n    tag_491:\n        /* \"#utility.yul\":27899:28038   */\n      swap1\n      pop\n        /* \"#utility.yul\":27626:28045   */\n      swap2\n      swap1\n      pop\n      jump\t// out\n        /* \"#utility.yul\":28051:28461   */\n    tag_145:\n        /* \"#utility.yul\":28091:28098   */\n      0x00\n        /* \"#utility.yul\":28114:28134   */\n      tag_493\n        /* \"#utility.yul\":28132:28133   */\n      dup3\n        /* \"#utility.yul\":28114:28134   */\n      tag_168\n      jump\t// in\n    tag_493:\n        /* \"#utility.yul\":28109:28134   */\n      swap2\n      pop\n        /* \"#utility.yul\":28148:28168   */\n      tag_494\n        /* \"#utility.yul\":28166:28167   */\n      dup4\n        /* \"#utility.yul\":28148:28168   */\n      tag_168\n      jump\t// in\n    tag_494:\n        /* \"#utility.yul\":28143:28168   */\n      swap3\n      pop\n        /* \"#utility.yul\":28203:28204   */\n      dup3\n        /* \"#utility.yul\":28200:28201   */\n      dup3\n        /* \"#utility.yul\":28196:28205   */\n      mul\n        /* \"#utility.yul\":28225:28255   */\n      tag_495\n        /* \"#utility.yul\":28243:28254   */\n      dup2\n        /* \"#utility.yul\":28225:28255   */\n      tag_168\n      jump\t// in\n    tag_495:\n        /* \"#utility.yul\":28214:28255   */\n      swap2\n      pop\n        /* \"#utility.yul\":28404:28405   */\n      dup3\n        /* \"#utility.yul\":28395:28402   */\n      dup3\n        /* \"#utility.yul\":28391:28406   */\n      div\n        /* \"#utility.yul\":28388:28389   */\n      dup5\n        /* \"#utility.yul\":28385:28407   */\n      eq\n        /* \"#utility.yul\":28365:28366   */\n      dup4\n        /* \"#utility.yul\":28358:28367   */\n      iszero\n        /* \"#utility.yul\":28338:28421   */\n      or\n        /* \"#utility.yul\":28315:28454   */\n      tag_496\n      jumpi\n        /* \"#utility.yul\":28434:28452   */\n      tag_497\n      tag_199\n      jump\t// in\n    tag_497:\n        /* \"#utility.yul\":28315:28454   */\n    tag_496:\n        /* \"#utility.yul\":28099:28461   */\n      pop\n        /* \"#utility.yul\":28051:28461   */\n      swap3\n      swap2\n      pop\n      pop\n      jump\t// out\n        /* \"#utility.yul\":28467:28641   */\n    tag_226:\n        /* \"#utility.yul\":28607:28633   */\n      0x496e636f7272656374207061796d656e7420616d6f756e740000000000000000\n        /* \"#utility.yul\":28603:28604   */\n      0x00\n        /* \"#utility.yul\":28595:28601   */\n      dup3\n        /* \"#utility.yul\":28591:28605   */\n      add\n        /* \"#utility.yul\":28584:28634   */\n      mstore\n        /* \"#utility.yul\":28467:28641   */\n      pop\n      jump\t// out\n        /* \"#utility.yul\":28647:29013   */\n    tag_227:\n        /* \"#utility.yul\":28789:28792   */\n      0x00\n        /* \"#utility.yul\":28810:28877   */\n      tag_500\n        /* \"#utility.yul\":28874:28876   */\n      0x18\n        /* \"#utility.yul\":28869:28872   */\n      dup4\n        /* \"#utility.yul\":28810:28877   */\n      tag_172\n      jump\t// in\n    tag_500:\n        /* \"#utility.yul\":28803:28877   */\n      swap2\n      pop\n        /* \"#utility.yul\":28886:28979   */\n      tag_501\n        /* \"#utility.yul\":28975:28978   */\n      dup3\n        /* \"#utility.yul\":28886:28979   */\n      tag_226\n      jump\t// in\n    tag_501:\n        /* \"#utility.yul\":29004:29006   */\n      0x20\n        /* \"#utility.yul\":28999:29002   */\n      dup3\n        /* \"#utility.yul\":28995:29007   */\n      add\n        /* \"#utility.yul\":28988:29007   */\n      swap1\n      pop\n        /* \"#utility.yul\":28647:29013   */\n      swap2\n      swap1\n      pop\n      jump\t// out\n        /* \"#utility.yul\":29019:29438   */\n    tag_148:\n        /* \"#utility.yul\":29185:29189   */\n      0x00\n        /* \"#utility.yul\":29223:29225   */\n      0x20\n        /* \"#utility.yul\":29212:29221   */\n      dup3\n        /* \"#utility.yul\":29208:29226   */\n      add\n        /* \"#utility.yul\":29200:29226   */\n      swap1\n      pop\n        /* \"#utility.yul\":29272:29281   */\n      dup2\n        /* \"#utility.yul\":29266:29270   */\n      dup2\n        /* \"#utility.yul\":29262:29282   */\n      sub\n        /* \"#utility.yul\":29258:29259   */\n      0x00\n        /* \"#utility.yul\":29247:29256   */\n      dup4\n        /* \"#utility.yul\":29243:29260   */\n      add\n        /* \"#utility.yul\":29236:29283   */\n      mstore\n        /* \"#utility.yul\":29300:29431   */\n      tag_503\n        /* \"#utility.yul\":29426:29430   */\n      dup2\n        /* \"#utility.yul\":29300:29431   */\n      tag_227\n      jump\t// in\n    tag_503:\n        /* \"#utility.yul\":29292:29431   */\n      swap1\n      pop\n        /* \"#utility.yul\":29019:29438   */\n      swap2\n      swap1\n      pop\n      jump\t// out\n        /* \"#utility.yul\":29444:29776   */\n    tag_153:\n        /* \"#utility.yul\":29565:29569   */\n      0x00\n        /* \"#utility.yul\":29603:29605   */\n      0x40\n        /* \"#utility.yul\":29592:29601   */\n      dup3\n        /* \"#utility.yul\":29588:29606   */\n      add\n        /* \"#utility.yul\":29580:29606   */\n      swap1\n      pop\n        /* \"#utility.yul\":29616:29687   */\n      tag_505\n        /* \"#utility.yul\":29684:29685   */\n      0x00\n        /* \"#utility.yul\":29673:29682   */\n      dup4\n        /* \"#utility.yul\":29669:29686   */\n      add\n        /* \"#utility.yul\":29660:29666   */\n      dup6\n        /* \"#utility.yul\":29616:29687   */\n      tag_176\n      jump\t// in\n    tag_505:\n        /* \"#utility.yul\":29697:29769   */\n      tag_506\n        /* \"#utility.yul\":29765:29767   */\n      0x20\n        /* \"#utility.yul\":29754:29763   */\n      dup4\n        /* \"#utility.yul\":29750:29768   */\n      add\n        /* \"#utility.yul\":29741:29747   */\n      dup5\n        /* \"#utility.yul\":29697:29769   */\n      tag_176\n      jump\t// in\n    tag_506:\n        /* \"#utility.yul\":29444:29776   */\n      swap4\n      swap3\n      pop\n      pop\n      pop\n      jump\t// out\n\n    auxdata: 0xa2646970667358221220ff1a3ff30f9c4163e9d6bb7255ec8d2b1060c00e9966927dc5f3c850acb644dc64736f6c634300081a0033\n}\n",
				"bytecode": {
					"linkReferences": {},
					"object": "6080604052348015600e575f80fd5b50611dca8061001c5f395ff3fe608060405260043610610054575f3560e01c80632c02338f14610058578063654fc83314610097578063ca339212146100bf578063d3cbb62b146100e7578063ec4ceeea14610123578063fe6a30ca1461014b575b5f80fd5b348015610063575f80fd5b5061007e60048036038101906100799190610f4e565b610167565b60405161008e949392919061100b565b60405180910390f35b3480156100a2575f80fd5b506100bd60048036038101906100b8919061105c565b6102b8565b005b3480156100ca575f80fd5b506100e560048036038101906100e091906111b3565b610565565b005b3480156100f2575f80fd5b5061010d60048036038101906101089190611262565b6107e0565b60405161011a9190611406565b60405180910390f35b34801561012e575f80fd5b5061014960048036038101906101449190611426565b6109ab565b005b610165600480360381019061016091906114c2565b610bd5565b005b5f602052815f5260405f20818154811061017f575f80fd5b905f5260205f2090600402015f9150915050805f01805461019f9061153f565b80601f01602080910402602001604051908101604052809291908181526020018280546101cb9061153f565b80156102165780601f106101ed57610100808354040283529160200191610216565b820191905f5260205f20905b8154815290600101906020018083116101f957829003601f168201915b50505050509080600101805461022b9061153f565b80601f01602080910402602001604051908101604052809291908181526020018280546102579061153f565b80156102a25780601f10610279576101008083540402835291602001916102a2565b820191905f5260205f20905b81548152906001019060200180831161028557829003601f168201915b5050505050908060020154908060030154905084565b805f803373ffffffffffffffffffffffffffffffffffffffff1673ffffffffffffffffffffffffffffffffffffffff1681526020019081526020015f2080549050811061033a576040517f08c379a0000000000000000000000000000000000000000000000000000000008152600401610331906115b9565b60405180910390fd5b5f60015f803373ffffffffffffffffffffffffffffffffffffffff1673ffffffffffffffffffffffffffffffffffffffff1681526020019081526020015f20805490506103879190611604565b9050808314610484575f803373ffffffffffffffffffffffffffffffffffffffff1673ffffffffffffffffffffffffffffffffffffffff1681526020019081526020015f2081815481106103de576103dd611637565b5b905f5260205f2090600402015f803373ffffffffffffffffffffffffffffffffffffffff1673ffffffffffffffffffffffffffffffffffffffff1681526020019081526020015f20848154811061043857610437611637565b5b905f5260205f2090600402015f8201815f0190816104569190611816565b506001820181600101908161046b9190611816565b5060028201548160020155600382015481600301559050505b5f803373ffffffffffffffffffffffffffffffffffffffff1673ffffffffffffffffffffffffffffffffffffffff1681526020019081526020015f208054806104d0576104cf6118fb565b5b600190038181905f5260205f2090600402015f8082015f6104f19190610e58565b600182015f6105009190610e58565b600282015f9055600382015f9055505090553373ffffffffffffffffffffffffffffffffffffffff167f21c5ff13f7a7163d7cd6a98d82517de93dcc833b527ad63a5550894be16070c8846040516105589190611928565b60405180910390a2505050565b845f803373ffffffffffffffffffffffffffffffffffffffff1673ffffffffffffffffffffffffffffffffffffffff1681526020019081526020015f208054905081106105e7576040517f08c379a00000000000000000000000000000000000000000000000000000000081526004016105de906115b9565b60405180910390fd5b5f85511161062a576040517f08c379a00000000000000000000000000000000000000000000000000000000081526004016106219061198b565b60405180910390fd5b5f84511161066d576040517f08c379a0000000000000000000000000000000000000000000000000000000008152600401610664906119f3565b60405180910390fd5b5f83116106af576040517f08c379a00000000000000000000000000000000000000000000000000000000081526004016106a690611a5b565b60405180910390fd5b5f82116106f1576040517f08c379a00000000000000000000000000000000000000000000000000000000081526004016106e890611ae9565b60405180910390fd5b5f805f3373ffffffffffffffffffffffffffffffffffffffff1673ffffffffffffffffffffffffffffffffffffffff1681526020019081526020015f2087815481106107405761073f611637565b5b905f5260205f209060040201905085815f01908161075e9190611b07565b50848160010190816107709190611b07565b508381600201819055508281600301819055503373ffffffffffffffffffffffffffffffffffffffff167f26bebd3959d815dff8c358d75d954372996041bcce5252e42dacaad92b379404888887876040516107cf9493929190611bd6565b60405180910390a250505050505050565b60605f808373ffffffffffffffffffffffffffffffffffffffff1673ffffffffffffffffffffffffffffffffffffffff1681526020019081526020015f20805480602002602001604051908101604052809291908181526020015f905b828210156109a0578382905f5260205f2090600402016040518060800160405290815f8201805461086d9061153f565b80601f01602080910402602001604051908101604052809291908181526020018280546108999061153f565b80156108e45780601f106108bb576101008083540402835291602001916108e4565b820191905f5260205f20905b8154815290600101906020018083116108c757829003601f168201915b505050505081526020016001820180546108fd9061153f565b80601f01602080910402602001604051908101604052809291908181526020018280546109299061153f565b80156109745780601f1061094b57610100808354040283529160200191610974565b820191905f5260205f20905b81548152906001019060200180831161095757829003601f168201915b50505050508152602001600282015481526020016003820154815250508152602001906001019061083d565b505050509050919050565b5f8451116109ee576040517f08c379a00000000000000000000000000000000000000000000000000000000081526004016109e59061198b565b60405180910390fd5b5f835111610a31576040517f08c379a0000000000000000000000000000000000000000000000000000000008152600401610a28906119f3565b60405180910390fd5b5f8211610a73576040517f08c379a0000000000000000000000000000000000000000000000000000000008152600401610a6a90611a5b565b60405180910390fd5b5f8111610ab5576040517f08c379a0000000000000000000000000000000000000000000000000000000008152600401610aac90611ae9565b60405180910390fd5b5f60405180608001604052808681526020018581526020018481526020018381525090505f803373ffffffffffffffffffffffffffffffffffffffff1673ffffffffffffffffffffffffffffffffffffffff1681526020019081526020015f2081908060018154018082558091505060019003905f5260205f2090600402015f909190919091505f820151815f019081610b4f9190611b07565b506020820151816001019081610b659190611b07565b50604082015181600201556060820151816003015550503373ffffffffffffffffffffffffffffffffffffffff167f35562100a34097fd1f91646348c0ceb4042d4282d31931fbc444cf12745f6b07868585604051610bc693929190611c20565b60405180910390a25050505050565b5f8111610c17576040517f08c379a0000000000000000000000000000000000000000000000000000000008152600401610c0e90611ae9565b60405180910390fd5b5f808473ffffffffffffffffffffffffffffffffffffffff1673ffffffffffffffffffffffffffffffffffffffff1681526020019081526020015f20805490508210610c98576040517f08c379a0000000000000000000000000000000000000000000000000000000008152600401610c8f906115b9565b60405180910390fd5b5f805f8573ffffffffffffffffffffffffffffffffffffffff1673ffffffffffffffffffffffffffffffffffffffff1681526020019081526020015f208381548110610ce757610ce6611637565b5b905f5260205f20906004020190508060030154821115610d3c576040517f08c379a0000000000000000000000000000000000000000000000000000000008152600401610d3390611ca6565b60405180910390fd5b818160020154610d4c9190611cc4565b3414610d8d576040517f08c379a0000000000000000000000000000000000000000000000000000000008152600401610d8490611d4f565b60405180910390fd5b8373ffffffffffffffffffffffffffffffffffffffff166108fc3490811502906040515f60405180830381858888f19350505050158015610dd0573d5f803e3d5ffd5b5081816003015f828254610de49190611604565b925050819055508373ffffffffffffffffffffffffffffffffffffffff163373ffffffffffffffffffffffffffffffffffffffff167f53d5014fa27fa078ecec13b4311f8520b2192980af8b38cf8e870ed2657604648585604051610e4a929190611d6d565b60405180910390a350505050565b508054610e649061153f565b5f825580601f10610e755750610e92565b601f0160209004905f5260205f2090810190610e919190610e95565b5b50565b5b80821115610eac575f815f905550600101610e96565b5090565b5f604051905090565b5f80fd5b5f80fd5b5f73ffffffffffffffffffffffffffffffffffffffff82169050919050565b5f610eea82610ec1565b9050919050565b610efa81610ee0565b8114610f04575f80fd5b50565b5f81359050610f1581610ef1565b92915050565b5f819050919050565b610f2d81610f1b565b8114610f37575f80fd5b50565b5f81359050610f4881610f24565b92915050565b5f8060408385031215610f6457610f63610eb9565b5b5f610f7185828601610f07565b9250506020610f8285828601610f3a565b9150509250929050565b5f81519050919050565b5f82825260208201905092915050565b8281835e5f83830152505050565b5f601f19601f8301169050919050565b5f610fce82610f8c565b610fd88185610f96565b9350610fe8818560208601610fa6565b610ff181610fb4565b840191505092915050565b61100581610f1b565b82525050565b5f6080820190508181035f8301526110238187610fc4565b905081810360208301526110378186610fc4565b90506110466040830185610ffc565b6110536060830184610ffc565b95945050505050565b5f6020828403121561107157611070610eb9565b5b5f61107e84828501610f3a565b91505092915050565b5f80fd5b5f80fd5b7f4e487b71000000000000000000000000000000000000000000000000000000005f52604160045260245ffd5b6110c582610fb4565b810181811067ffffffffffffffff821117156110e4576110e361108f565b5b80604052505050565b5f6110f6610eb0565b905061110282826110bc565b919050565b5f67ffffffffffffffff8211156111215761112061108f565b5b61112a82610fb4565b9050602081019050919050565b828183375f83830152505050565b5f61115761115284611107565b6110ed565b9050828152602081018484840111156111735761117261108b565b5b61117e848285611137565b509392505050565b5f82601f83011261119a57611199611087565b5b81356111aa848260208601611145565b91505092915050565b5f805f805f60a086880312156111cc576111cb610eb9565b5b5f6111d988828901610f3a565b955050602086013567ffffffffffffffff8111156111fa576111f9610ebd565b5b61120688828901611186565b945050604086013567ffffffffffffffff81111561122757611226610ebd565b5b61123388828901611186565b935050606061124488828901610f3a565b925050608061125588828901610f3a565b9150509295509295909350565b5f6020828403121561127757611276610eb9565b5b5f61128484828501610f07565b91505092915050565b5f81519050919050565b5f82825260208201905092915050565b5f819050602082019050919050565b5f82825260208201905092915050565b5f6112d082610f8c565b6112da81856112b6565b93506112ea818560208601610fa6565b6112f381610fb4565b840191505092915050565b61130781610f1b565b82525050565b5f608083015f8301518482035f86015261132782826112c6565b9150506020830151848203602086015261134182826112c6565b915050604083015161135660408601826112fe565b50606083015161136960608601826112fe565b508091505092915050565b5f61137f838361130d565b905092915050565b5f602082019050919050565b5f61139d8261128d565b6113a78185611297565b9350836020820285016113b9856112a7565b805f5b858110156113f457848403895281516113d58582611374565b94506113e083611387565b925060208a019950506001810190506113bc565b50829750879550505050505092915050565b5f6020820190508181035f83015261141e8184611393565b905092915050565b5f805f806080858703121561143e5761143d610eb9565b5b5f85013567ffffffffffffffff81111561145b5761145a610ebd565b5b61146787828801611186565b945050602085013567ffffffffffffffff81111561148857611487610ebd565b5b61149487828801611186565b93505060406114a587828801610f3a565b92505060606114b687828801610f3a565b91505092959194509250565b5f805f606084860312156114d9576114d8610eb9565b5b5f6114e686828701610f07565b93505060206114f786828701610f3a565b925050604061150886828701610f3a565b9150509250925092565b7f4e487b71000000000000000000000000000000000000000000000000000000005f52602260045260245ffd5b5f600282049050600182168061155657607f821691505b60208210810361156957611568611512565b5b50919050565b7f496e76616c6964206974656d20696e64657800000000000000000000000000005f82015250565b5f6115a3601283610f96565b91506115ae8261156f565b602082019050919050565b5f6020820190508181035f8301526115d081611597565b9050919050565b7f4e487b71000000000000000000000000000000000000000000000000000000005f52601160045260245ffd5b5f61160e82610f1b565b915061161983610f1b565b9250828203905081811115611631576116306115d7565b5b92915050565b7f4e487b71000000000000000000000000000000000000000000000000000000005f52603260045260245ffd5b5f815490506116728161153f565b9050919050565b5f819050815f5260205f209050919050565b5f6020601f8301049050919050565b5f82821b905092915050565b5f600883026116d57fffffffffffffffffffffffffffffffffffffffffffffffffffffffffffffffff8261169a565b6116df868361169a565b95508019841693508086168417925050509392505050565b5f819050919050565b5f61171a61171561171084610f1b565b6116f7565b610f1b565b9050919050565b5f819050919050565b61173383611700565b61174761173f82611721565b8484546116a6565b825550505050565b5f90565b61175b61174f565b61176681848461172a565b505050565b5b818110156117895761177e5f82611753565b60018101905061176c565b5050565b601f8211156117ce5761179f81611679565b6117a88461168b565b810160208510156117b7578190505b6117cb6117c38561168b565b83018261176b565b50505b505050565b5f82821c905092915050565b5f6117ee5f19846008026117d3565b1980831691505092915050565b5f61180683836117df565b9150826002028217905092915050565b8181036118245750506118f9565b61182d82611664565b67ffffffffffffffff8111156118465761184561108f565b5b611850825461153f565b61185b82828561178d565b5f601f831160018114611888575f8415611876578287015490505b61188085826117fb565b8655506118f2565b601f19841661189687611679565b96506118a186611679565b5f5b828110156118c8578489015482556001820191506001850194506020810190506118a3565b868310156118e557848901546118e1601f8916826117df565b8355505b6001600288020188555050505b5050505050505b565b7f4e487b71000000000000000000000000000000000000000000000000000000005f52603160045260245ffd5b5f60208201905061193b5f830184610ffc565b92915050565b7f4974656d206e616d652063616e6e6f7420626520656d707479000000000000005f82015250565b5f611975601983610f96565b915061198082611941565b602082019050919050565b5f6020820190508181035f8301526119a281611969565b9050919050565b7f4974656d206465736372697074696f6e2063616e6e6f7420626520656d7074795f82015250565b5f6119dd602083610f96565b91506119e8826119a9565b602082019050919050565b5f6020820190508181035f830152611a0a816119d1565b9050919050565b7f5072696365206d7573742062652067726561746572207468616e207a65726f005f82015250565b5f611a45601f83610f96565b9150611a5082611a11565b602082019050919050565b5f6020820190508181035f830152611a7281611a39565b9050919050565b7f5175616e74697479206d7573742062652067726561746572207468616e207a655f8201527f726f000000000000000000000000000000000000000000000000000000000000602082015250565b5f611ad3602283610f96565b9150611ade82611a79565b604082019050919050565b5f6020820190508181035f830152611b0081611ac7565b9050919050565b611b1082610f8c565b67ffffffffffffffff811115611b2957611b2861108f565b5b611b33825461153f565b611b3e82828561178d565b5f60209050601f831160018114611b6f575f8415611b5d578287015190505b611b6785826117fb565b865550611bce565b601f198416611b7d86611679565b5f5b82811015611ba457848901518255600182019150602085019450602081019050611b7f565b86831015611bc15784890151611bbd601f8916826117df565b8355505b6001600288020188555050505b505050505050565b5f608082019050611be95f830187610ffc565b8181036020830152611bfb8186610fc4565b9050611c0a6040830185610ffc565b611c176060830184610ffc565b95945050505050565b5f6060820190508181035f830152611c388186610fc4565b9050611c476020830185610ffc565b611c546040830184610ffc565b949350505050565b7f4e6f7420656e6f7567682073746f636b000000000000000000000000000000005f82015250565b5f611c90601083610f96565b9150611c9b82611c5c565b602082019050919050565b5f6020820190508181035f830152611cbd81611c84565b9050919050565b5f611cce82610f1b565b9150611cd983610f1b565b9250828202611ce781610f1b565b91508282048414831517611cfe57611cfd6115d7565b5b5092915050565b7f496e636f7272656374207061796d656e7420616d6f756e7400000000000000005f82015250565b5f611d39601883610f96565b9150611d4482611d05565b602082019050919050565b5f6020820190508181035f830152611d6681611d2d565b9050919050565b5f604082019050611d805f830185610ffc565b611d8d6020830184610ffc565b939250505056fea2646970667358221220ff1a3ff30f9c4163e9d6bb7255ec8d2b1060c00e9966927dc5f3c850acb644dc64736f6c634300081a0033",
					"opcodes": "PUSH1 0x80 PUSH1 0x40 MSTORE CALLVALUE DUP1 ISZERO PUSH1 0xE JUMPI PUSH0 DUP1 REVERT JUMPDEST POP PUSH2 0x1DCA DUP1 PUSH2 0x1C PUSH0 CODECOPY PUSH0 RETURN INVALID PUSH1 0x80 PUSH1 0x40 MSTORE PUSH1 0x4 CALLDATASIZE LT PUSH2 0x54 JUMPI PUSH0 CALLDATALOAD PUSH1 0xE0 SHR DUP1 PUSH4 0x2C02338F EQ PUSH2 0x58 JUMPI DUP1 PUSH4 0x654FC833 EQ PUSH2 0x97 JUMPI DUP1 PUSH4 0xCA339212 EQ PUSH2 0xBF JUMPI DUP1 PUSH4 0xD3CBB62B EQ PUSH2 0xE7 JUMPI DUP1 PUSH4 0xEC4CEEEA EQ PUSH2 0x123 JUMPI DUP1 PUSH4 0xFE6A30CA EQ PUSH2 0x14B JUMPI JUMPDEST PUSH0 DUP1 REVERT JUMPDEST CALLVALUE DUP1 ISZERO PUSH2 0x63 JUMPI PUSH0 DUP1 REVERT JUMPDEST POP PUSH2 0x7E PUSH1 0x4 DUP1 CALLDATASIZE SUB DUP2 ADD SWAP1 PUSH2 0x79 SWAP2 SWAP1 PUSH2 0xF4E JUMP JUMPDEST PUSH2 0x167 JUMP JUMPDEST PUSH1 0x40 MLOAD PUSH2 0x8E SWAP5 SWAP4 SWAP3 SWAP2 SWAP1 PUSH2 0x100B JUMP JUMPDEST PUSH1 0x40 MLOAD DUP1 SWAP2 SUB SWAP1 RETURN JUMPDEST CALLVALUE DUP1 ISZERO PUSH2 0xA2 JUMPI PUSH0 DUP1 REVERT JUMPDEST POP PUSH2 0xBD PUSH1 0x4 DUP1 CALLDATASIZE SUB DUP2 ADD SWAP1 PUSH2 0xB8 SWAP2 SWAP1 PUSH2 0x105C JUMP JUMPDEST PUSH2 0x2B8 JUMP JUMPDEST STOP JUMPDEST CALLVALUE DUP1 ISZERO PUSH2 0xCA JUMPI PUSH0 DUP1 REVERT JUMPDEST POP PUSH2 0xE5 PUSH1 0x4 DUP1 CALLDATASIZE SUB DUP2 ADD SWAP1 PUSH2 0xE0 SWAP2 SWAP1 PUSH2 0x11B3 JUMP JUMPDEST PUSH2 0x565 JUMP JUMPDEST STOP JUMPDEST CALLVALUE DUP1 ISZERO PUSH2 0xF2 JUMPI PUSH0 DUP1 REVERT JUMPDEST POP PUSH2 0x10D PUSH1 0x4 DUP1 CALLDATASIZE SUB DUP2 ADD SWAP1 PUSH2 0x108 SWAP2 SWAP1 PUSH2 0x1262 JUMP JUMPDEST PUSH2 0x7E0 JUMP JUMPDEST PUSH1 0x40 MLOAD PUSH2 0x11A SWAP2 SWAP1 PUSH2 0x1406 JUMP JUMPDEST PUSH1 0x40 MLOAD DUP1 SWAP2 SUB SWAP1 RETURN JUMPDEST CALLVALUE DUP1 ISZERO PUSH2 0x12E JUMPI PUSH0 DUP1 REVERT JUMPDEST POP PUSH2 0x149 PUSH1 0x4 DUP1 CALLDATASIZE SUB DUP2 ADD SWAP1 PUSH2 0x144 SWAP2 SWAP1 PUSH2 0x1426 JUMP JUMPDEST PUSH2 0x9AB JUMP JUMPDEST STOP JUMPDEST PUSH2 0x165 PUSH1 0x4 DUP1 CALLDATASIZE SUB DUP2 ADD SWAP1 PUSH2 0x160 SWAP2 SWAP1 PUSH2 0x14C2 JUMP JUMPDEST PUSH2 0xBD5 JUMP JUMPDEST STOP JUMPDEST PUSH0 PUSH1 0x20 MSTORE DUP2 PUSH0 MSTORE PUSH1 0x40 PUSH0 KECCAK256 DUP2 DUP2 SLOAD DUP2 LT PUSH2 0x17F JUMPI PUSH0 DUP1 REVERT JUMPDEST SWAP1 PUSH0 MSTORE PUSH1 0x20 PUSH0 KECCAK256 SWAP1 PUSH1 0x4 MUL ADD PUSH0 SWAP2 POP SWAP2 POP POP DUP1 PUSH0 ADD DUP1 SLOAD PUSH2 0x19F SWAP1 PUSH2 0x153F JUMP JUMPDEST DUP1 PUSH1 0x1F ADD PUSH1 0x20 DUP1 SWAP2 DIV MUL PUSH1 0x20 ADD PUSH1 0x40 MLOAD SWAP1 DUP2 ADD PUSH1 0x40 MSTORE DUP1 SWAP3 SWAP2 SWAP1 DUP2 DUP2 MSTORE PUSH1 0x20 ADD DUP3 DUP1 SLOAD PUSH2 0x1CB SWAP1 PUSH2 0x153F JUMP JUMPDEST DUP1 ISZERO PUSH2 0x216 JUMPI DUP1 PUSH1 0x1F LT PUSH2 0x1ED JUMPI PUSH2 0x100 DUP1 DUP4 SLOAD DIV MUL DUP4 MSTORE SWAP2 PUSH1 0x20 ADD SWAP2 PUSH2 0x216 JUMP JUMPDEST DUP3 ADD SWAP2 SWAP1 PUSH0 MSTORE PUSH1 0x20 PUSH0 KECCAK256 SWAP1 JUMPDEST DUP2 SLOAD DUP2 MSTORE SWAP1 PUSH1 0x1 ADD SWAP1 PUSH1 0x20 ADD DUP1 DUP4 GT PUSH2 0x1F9 JUMPI DUP3 SWAP1 SUB PUSH1 0x1F AND DUP3 ADD SWAP2 JUMPDEST POP POP POP POP POP SWAP1 DUP1 PUSH1 0x1 ADD DUP1 SLOAD PUSH2 0x22B SWAP1 PUSH2 0x153F JUMP JUMPDEST DUP1 PUSH1 0x1F ADD PUSH1 0x20 DUP1 SWAP2 DIV MUL PUSH1 0x20 ADD PUSH1 0x40 MLOAD SWAP1 DUP2 ADD PUSH1 0x40 MSTORE DUP1 SWAP3 SWAP2 SWAP1 DUP2 DUP2 MSTORE PUSH1 0x20 ADD DUP3 DUP1 SLOAD PUSH2 0x257 SWAP1 PUSH2 0x153F JUMP JUMPDEST DUP1 ISZERO PUSH2 0x2A2 JUMPI DUP1 PUSH1 0x1F LT PUSH2 0x279 JUMPI PUSH2 0x100 DUP1 DUP4 SLOAD DIV MUL DUP4 MSTORE SWAP2 PUSH1 0x20 ADD SWAP2 PUSH2 0x2A2 JUMP JUMPDEST DUP3 ADD SWAP2 SWAP1 PUSH0 MSTORE PUSH1 0x20 PUSH0 KECCAK256 SWAP1 JUMPDEST DUP2 SLOAD DUP2 MSTORE SWAP1 PUSH1 0x1 ADD SWAP1 PUSH1 0x20 ADD DUP1 DUP4 GT PUSH2 0x285 JUMPI DUP3 SWAP1 SUB PUSH1 0x1F AND DUP3 ADD SWAP2 JUMPDEST POP POP POP POP POP SWAP1 DUP1 PUSH1 0x2 ADD SLOAD SWAP1 DUP1 PUSH1 0x3 ADD SLOAD SWAP1 POP DUP5 JUMP JUMPDEST DUP1 PUSH0 DUP1 CALLER PUSH20 0xFFFFFFFFFFFFFFFFFFFFFFFFFFFFFFFFFFFFFFFF AND PUSH20 0xFFFFFFFFFFFFFFFFFFFFFFFFFFFFFFFFFFFFFFFF AND DUP2 MSTORE PUSH1 0x20 ADD SWAP1 DUP2 MSTORE PUSH1 0x20 ADD PUSH0 KECCAK256 DUP1 SLOAD SWAP1 POP DUP2 LT PUSH2 0x33A JUMPI PUSH1 0x40 MLOAD PUSH32 0x8C379A000000000000000000000000000000000000000000000000000000000 DUP2 MSTORE PUSH1 0x4 ADD PUSH2 0x331 SWAP1 PUSH2 0x15B9 JUMP JUMPDEST PUSH1 0x40 MLOAD DUP1 SWAP2 SUB SWAP1 REVERT JUMPDEST PUSH0 PUSH1 0x1 PUSH0 DUP1 CALLER PUSH20 0xFFFFFFFFFFFFFFFFFFFFFFFFFFFFFFFFFFFFFFFF AND PUSH20 0xFFFFFFFFFFFFFFFFFFFFFFFFFFFFFFFFFFFFFFFF AND DUP2 MSTORE PUSH1 0x20 ADD SWAP1 DUP2 MSTORE PUSH1 0x20 ADD PUSH0 KECCAK256 DUP1 SLOAD SWAP1 POP PUSH2 0x387 SWAP2 SWAP1 PUSH2 0x1604 JUMP JUMPDEST SWAP1 POP DUP1 DUP4 EQ PUSH2 0x484 JUMPI PUSH0 DUP1 CALLER PUSH20 0xFFFFFFFFFFFFFFFFFFFFFFFFFFFFFFFFFFFFFFFF AND PUSH20 0xFFFFFFFFFFFFFFFFFFFFFFFFFFFFFFFFFFFFFFFF AND DUP2 MSTORE PUSH1 0x20 ADD SWAP1 DUP2 MSTORE PUSH1 0x20 ADD PUSH0 KECCAK256 DUP2 DUP2 SLOAD DUP2 LT PUSH2 0x3DE JUMPI PUSH2 0x3DD PUSH2 0x1637 JUMP JUMPDEST JUMPDEST SWAP1 PUSH0 MSTORE PUSH1 0x20 PUSH0 KECCAK256 SWAP1 PUSH1 0x4 MUL ADD PUSH0 DUP1 CALLER PUSH20 0xFFFFFFFFFFFFFFFFFFFFFFFFFFFFFFFFFFFFFFFF AND PUSH20 0xFFFFFFFFFFFFFFFFFFFFFFFFFFFFFFFFFFFFFFFF AND DUP2 MSTORE PUSH1 0x20 ADD SWAP1 DUP2 MSTORE PUSH1 0x20 ADD PUSH0 KECCAK256 DUP5 DUP2 SLOAD DUP2 LT PUSH2 0x438 JUMPI PUSH2 0x437 PUSH2 0x1637 JUMP JUMPDEST JUMPDEST SWAP1 PUSH0 MSTORE PUSH1 0x20 PUSH0 KECCAK256 SWAP1 PUSH1 0x4 MUL ADD PUSH0 DUP3 ADD DUP2 PUSH0 ADD SWAP1 DUP2 PUSH2 0x456 SWAP2 SWAP1 PUSH2 0x1816 JUMP JUMPDEST POP PUSH1 0x1 DUP3 ADD DUP2 PUSH1 0x1 ADD SWAP1 DUP2 PUSH2 0x46B SWAP2 SWAP1 PUSH2 0x1816 JUMP JUMPDEST POP PUSH1 0x2 DUP3 ADD SLOAD DUP2 PUSH1 0x2 ADD SSTORE PUSH1 0x3 DUP3 ADD SLOAD DUP2 PUSH1 0x3 ADD SSTORE SWAP1 POP POP JUMPDEST PUSH0 DUP1 CALLER PUSH20 0xFFFFFFFFFFFFFFFFFFFFFFFFFFFFFFFFFFFFFFFF AND PUSH20 0xFFFFFFFFFFFFFFFFFFFFFFFFFFFFFFFFFFFFFFFF AND DUP2 MSTORE PUSH1 0x20 ADD SWAP1 DUP2 MSTORE PUSH1 0x20 ADD PUSH0 KECCAK256 DUP1 SLOAD DUP1 PUSH2 0x4D0 JUMPI PUSH2 0x4CF PUSH2 0x18FB JUMP JUMPDEST JUMPDEST PUSH1 0x1 SWAP1 SUB DUP2 DUP2 SWAP1 PUSH0 MSTORE PUSH1 0x20 PUSH0 KECCAK256 SWAP1 PUSH1 0x4 MUL ADD PUSH0 DUP1 DUP3 ADD PUSH0 PUSH2 0x4F1 SWAP2 SWAP1 PUSH2 0xE58 JUMP JUMPDEST PUSH1 0x1 DUP3 ADD PUSH0 PUSH2 0x500 SWAP2 SWAP1 PUSH2 0xE58 JUMP JUMPDEST PUSH1 0x2 DUP3 ADD PUSH0 SWAP1 SSTORE PUSH1 0x3 DUP3 ADD PUSH0 SWAP1 SSTORE POP POP SWAP1 SSTORE CALLER PUSH20 0xFFFFFFFFFFFFFFFFFFFFFFFFFFFFFFFFFFFFFFFF AND PUSH32 0x21C5FF13F7A7163D7CD6A98D82517DE93DCC833B527AD63A5550894BE16070C8 DUP5 PUSH1 0x40 MLOAD PUSH2 0x558 SWAP2 SWAP1 PUSH2 0x1928 JUMP JUMPDEST PUSH1 0x40 MLOAD DUP1 SWAP2 SUB SWAP1 LOG2 POP POP POP JUMP JUMPDEST DUP5 PUSH0 DUP1 CALLER PUSH20 0xFFFFFFFFFFFFFFFFFFFFFFFFFFFFFFFFFFFFFFFF AND PUSH20 0xFFFFFFFFFFFFFFFFFFFFFFFFFFFFFFFFFFFFFFFF AND DUP2 MSTORE PUSH1 0x20 ADD SWAP1 DUP2 MSTORE PUSH1 0x20 ADD PUSH0 KECCAK256 DUP1 SLOAD SWAP1 POP DUP2 LT PUSH2 0x5E7 JUMPI PUSH1 0x40 MLOAD PUSH32 0x8C379A000000000000000000000000000000000000000000000000000000000 DUP2 MSTORE PUSH1 0x4 ADD PUSH2 0x5DE SWAP1 PUSH2 0x15B9 JUMP JUMPDEST PUSH1 0x40 MLOAD DUP1 SWAP2 SUB SWAP1 REVERT JUMPDEST PUSH0 DUP6 MLOAD GT PUSH2 0x62A JUMPI PUSH1 0x40 MLOAD PUSH32 0x8C379A000000000000000000000000000000000000000000000000000000000 DUP2 MSTORE PUSH1 0x4 ADD PUSH2 0x621 SWAP1 PUSH2 0x198B JUMP JUMPDEST PUSH1 0x40 MLOAD DUP1 SWAP2 SUB SWAP1 REVERT JUMPDEST PUSH0 DUP5 MLOAD GT PUSH2 0x66D JUMPI PUSH1 0x40 MLOAD PUSH32 0x8C379A000000000000000000000000000000000000000000000000000000000 DUP2 MSTORE PUSH1 0x4 ADD PUSH2 0x664 SWAP1 PUSH2 0x19F3 JUMP JUMPDEST PUSH1 0x40 MLOAD DUP1 SWAP2 SUB SWAP1 REVERT JUMPDEST PUSH0 DUP4 GT PUSH2 0x6AF JUMPI PUSH1 0x40 MLOAD PUSH32 0x8C379A000000000000000000000000000000000000000000000000000000000 DUP2 MSTORE PUSH1 0x4 ADD PUSH2 0x6A6 SWAP1 PUSH2 0x1A5B JUMP JUMPDEST PUSH1 0x40 MLOAD DUP1 SWAP2 SUB SWAP1 REVERT JUMPDEST PUSH0 DUP3 GT PUSH2 0x6F1 JUMPI PUSH1 0x40 MLOAD PUSH32 0x8C379A000000000000000000000000000000000000000000000000000000000 DUP2 MSTORE PUSH1 0x4 ADD PUSH2 0x6E8 SWAP1 PUSH2 0x1AE9 JUMP JUMPDEST PUSH1 0x40 MLOAD DUP1 SWAP2 SUB SWAP1 REVERT JUMPDEST PUSH0 DUP1 PUSH0 CALLER PUSH20 0xFFFFFFFFFFFFFFFFFFFFFFFFFFFFFFFFFFFFFFFF AND PUSH20 0xFFFFFFFFFFFFFFFFFFFFFFFFFFFFFFFFFFFFFFFF AND DUP2 MSTORE PUSH1 0x20 ADD SWAP1 DUP2 MSTORE PUSH1 0x20 ADD PUSH0 KECCAK256 DUP8 DUP2 SLOAD DUP2 LT PUSH2 0x740 JUMPI PUSH2 0x73F PUSH2 0x1637 JUMP JUMPDEST JUMPDEST SWAP1 PUSH0 MSTORE PUSH1 0x20 PUSH0 KECCAK256 SWAP1 PUSH1 0x4 MUL ADD SWAP1 POP DUP6 DUP2 PUSH0 ADD SWAP1 DUP2 PUSH2 0x75E SWAP2 SWAP1 PUSH2 0x1B07 JUMP JUMPDEST POP DUP5 DUP2 PUSH1 0x1 ADD SWAP1 DUP2 PUSH2 0x770 SWAP2 SWAP1 PUSH2 0x1B07 JUMP JUMPDEST POP DUP4 DUP2 PUSH1 0x2 ADD DUP2 SWAP1 SSTORE POP DUP3 DUP2 PUSH1 0x3 ADD DUP2 SWAP1 SSTORE POP CALLER PUSH20 0xFFFFFFFFFFFFFFFFFFFFFFFFFFFFFFFFFFFFFFFF AND PUSH32 0x26BEBD3959D815DFF8C358D75D954372996041BCCE5252E42DACAAD92B379404 DUP9 DUP9 DUP8 DUP8 PUSH1 0x40 MLOAD PUSH2 0x7CF SWAP5 SWAP4 SWAP3 SWAP2 SWAP1 PUSH2 0x1BD6 JUMP JUMPDEST PUSH1 0x40 MLOAD DUP1 SWAP2 SUB SWAP1 LOG2 POP POP POP POP POP POP POP JUMP JUMPDEST PUSH1 0x60 PUSH0 DUP1 DUP4 PUSH20 0xFFFFFFFFFFFFFFFFFFFFFFFFFFFFFFFFFFFFFFFF AND PUSH20 0xFFFFFFFFFFFFFFFFFFFFFFFFFFFFFFFFFFFFFFFF AND DUP2 MSTORE PUSH1 0x20 ADD SWAP1 DUP2 MSTORE PUSH1 0x20 ADD PUSH0 KECCAK256 DUP1 SLOAD DUP1 PUSH1 0x20 MUL PUSH1 0x20 ADD PUSH1 0x40 MLOAD SWAP1 DUP2 ADD PUSH1 0x40 MSTORE DUP1 SWAP3 SWAP2 SWAP1 DUP2 DUP2 MSTORE PUSH1 0x20 ADD PUSH0 SWAP1 JUMPDEST DUP3 DUP3 LT ISZERO PUSH2 0x9A0 JUMPI DUP4 DUP3 SWAP1 PUSH0 MSTORE PUSH1 0x20 PUSH0 KECCAK256 SWAP1 PUSH1 0x4 MUL ADD PUSH1 0x40 MLOAD DUP1 PUSH1 0x80 ADD PUSH1 0x40 MSTORE SWAP1 DUP2 PUSH0 DUP3 ADD DUP1 SLOAD PUSH2 0x86D SWAP1 PUSH2 0x153F JUMP JUMPDEST DUP1 PUSH1 0x1F ADD PUSH1 0x20 DUP1 SWAP2 DIV MUL PUSH1 0x20 ADD PUSH1 0x40 MLOAD SWAP1 DUP2 ADD PUSH1 0x40 MSTORE DUP1 SWAP3 SWAP2 SWAP1 DUP2 DUP2 MSTORE PUSH1 0x20 ADD DUP3 DUP1 SLOAD PUSH2 0x899 SWAP1 PUSH2 0x153F JUMP JUMPDEST DUP1 ISZERO PUSH2 0x8E4 JUMPI DUP1 PUSH1 0x1F LT PUSH2 0x8BB JUMPI PUSH2 0x100 DUP1 DUP4 SLOAD DIV MUL DUP4 MSTORE SWAP2 PUSH1 0x20 ADD SWAP2 PUSH2 0x8E4 JUMP JUMPDEST DUP3 ADD SWAP2 SWAP1 PUSH0 MSTORE PUSH1 0x20 PUSH0 KECCAK256 SWAP1 JUMPDEST DUP2 SLOAD DUP2 MSTORE SWAP1 PUSH1 0x1 ADD SWAP1 PUSH1 0x20 ADD DUP1 DUP4 GT PUSH2 0x8C7 JUMPI DUP3 SWAP1 SUB PUSH1 0x1F AND DUP3 ADD SWAP2 JUMPDEST POP POP POP POP POP DUP2 MSTORE PUSH1 0x20 ADD PUSH1 0x1 DUP3 ADD DUP1 SLOAD PUSH2 0x8FD SWAP1 PUSH2 0x153F JUMP JUMPDEST DUP1 PUSH1 0x1F ADD PUSH1 0x20 DUP1 SWAP2 DIV MUL PUSH1 0x20 ADD PUSH1 0x40 MLOAD SWAP1 DUP2 ADD PUSH1 0x40 MSTORE DUP1 SWAP3 SWAP2 SWAP1 DUP2 DUP2 MSTORE PUSH1 0x20 ADD DUP3 DUP1 SLOAD PUSH2 0x929 SWAP1 PUSH2 0x153F JUMP JUMPDEST DUP1 ISZERO PUSH2 0x974 JUMPI DUP1 PUSH1 0x1F LT PUSH2 0x94B JUMPI PUSH2 0x100 DUP1 DUP4 SLOAD DIV MUL DUP4 MSTORE SWAP2 PUSH1 0x20 ADD SWAP2 PUSH2 0x974 JUMP JUMPDEST DUP3 ADD SWAP2 SWAP1 PUSH0 MSTORE PUSH1 0x20 PUSH0 KECCAK256 SWAP1 JUMPDEST DUP2 SLOAD DUP2 MSTORE SWAP1 PUSH1 0x1 ADD SWAP1 PUSH1 0x20 ADD DUP1 DUP4 GT PUSH2 0x957 JUMPI DUP3 SWAP1 SUB PUSH1 0x1F AND DUP3 ADD SWAP2 JUMPDEST POP POP POP POP POP DUP2 MSTORE PUSH1 0x20 ADD PUSH1 0x2 DUP3 ADD SLOAD DUP2 MSTORE PUSH1 0x20 ADD PUSH1 0x3 DUP3 ADD SLOAD DUP2 MSTORE POP POP DUP2 MSTORE PUSH1 0x20 ADD SWAP1 PUSH1 0x1 ADD SWAP1 PUSH2 0x83D JUMP JUMPDEST POP POP POP POP SWAP1 POP SWAP2 SWAP1 POP JUMP JUMPDEST PUSH0 DUP5 MLOAD GT PUSH2 0x9EE JUMPI PUSH1 0x40 MLOAD PUSH32 0x8C379A000000000000000000000000000000000000000000000000000000000 DUP2 MSTORE PUSH1 0x4 ADD PUSH2 0x9E5 SWAP1 PUSH2 0x198B JUMP JUMPDEST PUSH1 0x40 MLOAD DUP1 SWAP2 SUB SWAP1 REVERT JUMPDEST PUSH0 DUP4 MLOAD GT PUSH2 0xA31 JUMPI PUSH1 0x40 MLOAD PUSH32 0x8C379A000000000000000000000000000000000000000000000000000000000 DUP2 MSTORE PUSH1 0x4 ADD PUSH2 0xA28 SWAP1 PUSH2 0x19F3 JUMP JUMPDEST PUSH1 0x40 MLOAD DUP1 SWAP2 SUB SWAP1 REVERT JUMPDEST PUSH0 DUP3 GT PUSH2 0xA73 JUMPI PUSH1 0x40 MLOAD PUSH32 0x8C379A000000000000000000000000000000000000000000000000000000000 DUP2 MSTORE PUSH1 0x4 ADD PUSH2 0xA6A SWAP1 PUSH2 0x1A5B JUMP JUMPDEST PUSH1 0x40 MLOAD DUP1 SWAP2 SUB SWAP1 REVERT JUMPDEST PUSH0 DUP2 GT PUSH2 0xAB5 JUMPI PUSH1 0x40 MLOAD PUSH32 0x8C379A000000000000000000000000000000000000000000000000000000000 DUP2 MSTORE PUSH1 0x4 ADD PUSH2 0xAAC SWAP1 PUSH2 0x1AE9 JUMP JUMPDEST PUSH1 0x40 MLOAD DUP1 SWAP2 SUB SWAP1 REVERT JUMPDEST PUSH0 PUSH1 0x40 MLOAD DUP1 PUSH1 0x80 ADD PUSH1 0x40 MSTORE DUP1 DUP7 DUP2 MSTORE PUSH1 0x20 ADD DUP6 DUP2 MSTORE PUSH1 0x20 ADD DUP5 DUP2 MSTORE PUSH1 0x20 ADD DUP4 DUP2 MSTORE POP SWAP1 POP PUSH0 DUP1 CALLER PUSH20 0xFFFFFFFFFFFFFFFFFFFFFFFFFFFFFFFFFFFFFFFF AND PUSH20 0xFFFFFFFFFFFFFFFFFFFFFFFFFFFFFFFFFFFFFFFF AND DUP2 MSTORE PUSH1 0x20 ADD SWAP1 DUP2 MSTORE PUSH1 0x20 ADD PUSH0 KECCAK256 DUP2 SWAP1 DUP1 PUSH1 0x1 DUP2 SLOAD ADD DUP1 DUP3 SSTORE DUP1 SWAP2 POP POP PUSH1 0x1 SWAP1 SUB SWAP1 PUSH0 MSTORE PUSH1 0x20 PUSH0 KECCAK256 SWAP1 PUSH1 0x4 MUL ADD PUSH0 SWAP1 SWAP2 SWAP1 SWAP2 SWAP1 SWAP2 POP PUSH0 DUP3 ADD MLOAD DUP2 PUSH0 ADD SWAP1 DUP2 PUSH2 0xB4F SWAP2 SWAP1 PUSH2 0x1B07 JUMP JUMPDEST POP PUSH1 0x20 DUP3 ADD MLOAD DUP2 PUSH1 0x1 ADD SWAP1 DUP2 PUSH2 0xB65 SWAP2 SWAP1 PUSH2 0x1B07 JUMP JUMPDEST POP PUSH1 0x40 DUP3 ADD MLOAD DUP2 PUSH1 0x2 ADD SSTORE PUSH1 0x60 DUP3 ADD MLOAD DUP2 PUSH1 0x3 ADD SSTORE POP POP CALLER PUSH20 0xFFFFFFFFFFFFFFFFFFFFFFFFFFFFFFFFFFFFFFFF AND PUSH32 0x35562100A34097FD1F91646348C0CEB4042D4282D31931FBC444CF12745F6B07 DUP7 DUP6 DUP6 PUSH1 0x40 MLOAD PUSH2 0xBC6 SWAP4 SWAP3 SWAP2 SWAP1 PUSH2 0x1C20 JUMP JUMPDEST PUSH1 0x40 MLOAD DUP1 SWAP2 SUB SWAP1 LOG2 POP POP POP POP POP JUMP JUMPDEST PUSH0 DUP2 GT PUSH2 0xC17 JUMPI PUSH1 0x40 MLOAD PUSH32 0x8C379A000000000000000000000000000000000000000000000000000000000 DUP2 MSTORE PUSH1 0x4 ADD PUSH2 0xC0E SWAP1 PUSH2 0x1AE9 JUMP JUMPDEST PUSH1 0x40 MLOAD DUP1 SWAP2 SUB SWAP1 REVERT JUMPDEST PUSH0 DUP1 DUP5 PUSH20 0xFFFFFFFFFFFFFFFFFFFFFFFFFFFFFFFFFFFFFFFF AND PUSH20 0xFFFFFFFFFFFFFFFFFFFFFFFFFFFFFFFFFFFFFFFF AND DUP2 MSTORE PUSH1 0x20 ADD SWAP1 DUP2 MSTORE PUSH1 0x20 ADD PUSH0 KECCAK256 DUP1 SLOAD SWAP1 POP DUP3 LT PUSH2 0xC98 JUMPI PUSH1 0x40 MLOAD PUSH32 0x8C379A000000000000000000000000000000000000000000000000000000000 DUP2 MSTORE PUSH1 0x4 ADD PUSH2 0xC8F SWAP1 PUSH2 0x15B9 JUMP JUMPDEST PUSH1 0x40 MLOAD DUP1 SWAP2 SUB SWAP1 REVERT JUMPDEST PUSH0 DUP1 PUSH0 DUP6 PUSH20 0xFFFFFFFFFFFFFFFFFFFFFFFFFFFFFFFFFFFFFFFF AND PUSH20 0xFFFFFFFFFFFFFFFFFFFFFFFFFFFFFFFFFFFFFFFF AND DUP2 MSTORE PUSH1 0x20 ADD SWAP1 DUP2 MSTORE PUSH1 0x20 ADD PUSH0 KECCAK256 DUP4 DUP2 SLOAD DUP2 LT PUSH2 0xCE7 JUMPI PUSH2 0xCE6 PUSH2 0x1637 JUMP JUMPDEST JUMPDEST SWAP1 PUSH0 MSTORE PUSH1 0x20 PUSH0 KECCAK256 SWAP1 PUSH1 0x4 MUL ADD SWAP1 POP DUP1 PUSH1 0x3 ADD SLOAD DUP3 GT ISZERO PUSH2 0xD3C JUMPI PUSH1 0x40 MLOAD PUSH32 0x8C379A000000000000000000000000000000000000000000000000000000000 DUP2 MSTORE PUSH1 0x4 ADD PUSH2 0xD33 SWAP1 PUSH2 0x1CA6 JUMP JUMPDEST PUSH1 0x40 MLOAD DUP1 SWAP2 SUB SWAP1 REVERT JUMPDEST DUP2 DUP2 PUSH1 0x2 ADD SLOAD PUSH2 0xD4C SWAP2 SWAP1 PUSH2 0x1CC4 JUMP JUMPDEST CALLVALUE EQ PUSH2 0xD8D JUMPI PUSH1 0x40 MLOAD PUSH32 0x8C379A000000000000000000000000000000000000000000000000000000000 DUP2 MSTORE PUSH1 0x4 ADD PUSH2 0xD84 SWAP1 PUSH2 0x1D4F JUMP JUMPDEST PUSH1 0x40 MLOAD DUP1 SWAP2 SUB SWAP1 REVERT JUMPDEST DUP4 PUSH20 0xFFFFFFFFFFFFFFFFFFFFFFFFFFFFFFFFFFFFFFFF AND PUSH2 0x8FC CALLVALUE SWAP1 DUP2 ISZERO MUL SWAP1 PUSH1 0x40 MLOAD PUSH0 PUSH1 0x40 MLOAD DUP1 DUP4 SUB DUP2 DUP6 DUP9 DUP9 CALL SWAP4 POP POP POP POP ISZERO DUP1 ISZERO PUSH2 0xDD0 JUMPI RETURNDATASIZE PUSH0 DUP1 RETURNDATACOPY RETURNDATASIZE PUSH0 REVERT JUMPDEST POP DUP2 DUP2 PUSH1 0x3 ADD PUSH0 DUP3 DUP3 SLOAD PUSH2 0xDE4 SWAP2 SWAP1 PUSH2 0x1604 JUMP JUMPDEST SWAP3 POP POP DUP2 SWAP1 SSTORE POP DUP4 PUSH20 0xFFFFFFFFFFFFFFFFFFFFFFFFFFFFFFFFFFFFFFFF AND CALLER PUSH20 0xFFFFFFFFFFFFFFFFFFFFFFFFFFFFFFFFFFFFFFFF AND PUSH32 0x53D5014FA27FA078ECEC13B4311F8520B2192980AF8B38CF8E870ED265760464 DUP6 DUP6 PUSH1 0x40 MLOAD PUSH2 0xE4A SWAP3 SWAP2 SWAP1 PUSH2 0x1D6D JUMP JUMPDEST PUSH1 0x40 MLOAD DUP1 SWAP2 SUB SWAP1 LOG3 POP POP POP POP JUMP JUMPDEST POP DUP1 SLOAD PUSH2 0xE64 SWAP1 PUSH2 0x153F JUMP JUMPDEST PUSH0 DUP3 SSTORE DUP1 PUSH1 0x1F LT PUSH2 0xE75 JUMPI POP PUSH2 0xE92 JUMP JUMPDEST PUSH1 0x1F ADD PUSH1 0x20 SWAP1 DIV SWAP1 PUSH0 MSTORE PUSH1 0x20 PUSH0 KECCAK256 SWAP1 DUP2 ADD SWAP1 PUSH2 0xE91 SWAP2 SWAP1 PUSH2 0xE95 JUMP JUMPDEST JUMPDEST POP JUMP JUMPDEST JUMPDEST DUP1 DUP3 GT ISZERO PUSH2 0xEAC JUMPI PUSH0 DUP2 PUSH0 SWAP1 SSTORE POP PUSH1 0x1 ADD PUSH2 0xE96 JUMP JUMPDEST POP SWAP1 JUMP JUMPDEST PUSH0 PUSH1 0x40 MLOAD SWAP1 POP SWAP1 JUMP JUMPDEST PUSH0 DUP1 REVERT JUMPDEST PUSH0 DUP1 REVERT JUMPDEST PUSH0 PUSH20 0xFFFFFFFFFFFFFFFFFFFFFFFFFFFFFFFFFFFFFFFF DUP3 AND SWAP1 POP SWAP2 SWAP1 POP JUMP JUMPDEST PUSH0 PUSH2 0xEEA DUP3 PUSH2 0xEC1 JUMP JUMPDEST SWAP1 POP SWAP2 SWAP1 POP JUMP JUMPDEST PUSH2 0xEFA DUP2 PUSH2 0xEE0 JUMP JUMPDEST DUP2 EQ PUSH2 0xF04 JUMPI PUSH0 DUP1 REVERT JUMPDEST POP JUMP JUMPDEST PUSH0 DUP2 CALLDATALOAD SWAP1 POP PUSH2 0xF15 DUP2 PUSH2 0xEF1 JUMP JUMPDEST SWAP3 SWAP2 POP POP JUMP JUMPDEST PUSH0 DUP2 SWAP1 POP SWAP2 SWAP1 POP JUMP JUMPDEST PUSH2 0xF2D DUP2 PUSH2 0xF1B JUMP JUMPDEST DUP2 EQ PUSH2 0xF37 JUMPI PUSH0 DUP1 REVERT JUMPDEST POP JUMP JUMPDEST PUSH0 DUP2 CALLDATALOAD SWAP1 POP PUSH2 0xF48 DUP2 PUSH2 0xF24 JUMP JUMPDEST SWAP3 SWAP2 POP POP JUMP JUMPDEST PUSH0 DUP1 PUSH1 0x40 DUP4 DUP6 SUB SLT ISZERO PUSH2 0xF64 JUMPI PUSH2 0xF63 PUSH2 0xEB9 JUMP JUMPDEST JUMPDEST PUSH0 PUSH2 0xF71 DUP6 DUP3 DUP7 ADD PUSH2 0xF07 JUMP JUMPDEST SWAP3 POP POP PUSH1 0x20 PUSH2 0xF82 DUP6 DUP3 DUP7 ADD PUSH2 0xF3A JUMP JUMPDEST SWAP2 POP POP SWAP3 POP SWAP3 SWAP1 POP JUMP JUMPDEST PUSH0 DUP2 MLOAD SWAP1 POP SWAP2 SWAP1 POP JUMP JUMPDEST PUSH0 DUP3 DUP3 MSTORE PUSH1 0x20 DUP3 ADD SWAP1 POP SWAP3 SWAP2 POP POP JUMP JUMPDEST DUP3 DUP2 DUP4 MCOPY PUSH0 DUP4 DUP4 ADD MSTORE POP POP POP JUMP JUMPDEST PUSH0 PUSH1 0x1F NOT PUSH1 0x1F DUP4 ADD AND SWAP1 POP SWAP2 SWAP1 POP JUMP JUMPDEST PUSH0 PUSH2 0xFCE DUP3 PUSH2 0xF8C JUMP JUMPDEST PUSH2 0xFD8 DUP2 DUP6 PUSH2 0xF96 JUMP JUMPDEST SWAP4 POP PUSH2 0xFE8 DUP2 DUP6 PUSH1 0x20 DUP7 ADD PUSH2 0xFA6 JUMP JUMPDEST PUSH2 0xFF1 DUP2 PUSH2 0xFB4 JUMP JUMPDEST DUP5 ADD SWAP2 POP POP SWAP3 SWAP2 POP POP JUMP JUMPDEST PUSH2 0x1005 DUP2 PUSH2 0xF1B JUMP JUMPDEST DUP3 MSTORE POP POP JUMP JUMPDEST PUSH0 PUSH1 0x80 DUP3 ADD SWAP1 POP DUP2 DUP2 SUB PUSH0 DUP4 ADD MSTORE PUSH2 0x1023 DUP2 DUP8 PUSH2 0xFC4 JUMP JUMPDEST SWAP1 POP DUP2 DUP2 SUB PUSH1 0x20 DUP4 ADD MSTORE PUSH2 0x1037 DUP2 DUP7 PUSH2 0xFC4 JUMP JUMPDEST SWAP1 POP PUSH2 0x1046 PUSH1 0x40 DUP4 ADD DUP6 PUSH2 0xFFC JUMP JUMPDEST PUSH2 0x1053 PUSH1 0x60 DUP4 ADD DUP5 PUSH2 0xFFC JUMP JUMPDEST SWAP6 SWAP5 POP POP POP POP POP JUMP JUMPDEST PUSH0 PUSH1 0x20 DUP3 DUP5 SUB SLT ISZERO PUSH2 0x1071 JUMPI PUSH2 0x1070 PUSH2 0xEB9 JUMP JUMPDEST JUMPDEST PUSH0 PUSH2 0x107E DUP5 DUP3 DUP6 ADD PUSH2 0xF3A JUMP JUMPDEST SWAP2 POP POP SWAP3 SWAP2 POP POP JUMP JUMPDEST PUSH0 DUP1 REVERT JUMPDEST PUSH0 DUP1 REVERT JUMPDEST PUSH32 0x4E487B7100000000000000000000000000000000000000000000000000000000 PUSH0 MSTORE PUSH1 0x41 PUSH1 0x4 MSTORE PUSH1 0x24 PUSH0 REVERT JUMPDEST PUSH2 0x10C5 DUP3 PUSH2 0xFB4 JUMP JUMPDEST DUP2 ADD DUP2 DUP2 LT PUSH8 0xFFFFFFFFFFFFFFFF DUP3 GT OR ISZERO PUSH2 0x10E4 JUMPI PUSH2 0x10E3 PUSH2 0x108F JUMP JUMPDEST JUMPDEST DUP1 PUSH1 0x40 MSTORE POP POP POP JUMP JUMPDEST PUSH0 PUSH2 0x10F6 PUSH2 0xEB0 JUMP JUMPDEST SWAP1 POP PUSH2 0x1102 DUP3 DUP3 PUSH2 0x10BC JUMP JUMPDEST SWAP2 SWAP1 POP JUMP JUMPDEST PUSH0 PUSH8 0xFFFFFFFFFFFFFFFF DUP3 GT ISZERO PUSH2 0x1121 JUMPI PUSH2 0x1120 PUSH2 0x108F JUMP JUMPDEST JUMPDEST PUSH2 0x112A DUP3 PUSH2 0xFB4 JUMP JUMPDEST SWAP1 POP PUSH1 0x20 DUP2 ADD SWAP1 POP SWAP2 SWAP1 POP JUMP JUMPDEST DUP3 DUP2 DUP4 CALLDATACOPY PUSH0 DUP4 DUP4 ADD MSTORE POP POP POP JUMP JUMPDEST PUSH0 PUSH2 0x1157 PUSH2 0x1152 DUP5 PUSH2 0x1107 JUMP JUMPDEST PUSH2 0x10ED JUMP JUMPDEST SWAP1 POP DUP3 DUP2 MSTORE PUSH1 0x20 DUP2 ADD DUP5 DUP5 DUP5 ADD GT ISZERO PUSH2 0x1173 JUMPI PUSH2 0x1172 PUSH2 0x108B JUMP JUMPDEST JUMPDEST PUSH2 0x117E DUP5 DUP3 DUP6 PUSH2 0x1137 JUMP JUMPDEST POP SWAP4 SWAP3 POP POP POP JUMP JUMPDEST PUSH0 DUP3 PUSH1 0x1F DUP4 ADD SLT PUSH2 0x119A JUMPI PUSH2 0x1199 PUSH2 0x1087 JUMP JUMPDEST JUMPDEST DUP2 CALLDATALOAD PUSH2 0x11AA DUP5 DUP3 PUSH1 0x20 DUP7 ADD PUSH2 0x1145 JUMP JUMPDEST SWAP2 POP POP SWAP3 SWAP2 POP POP JUMP JUMPDEST PUSH0 DUP1 PUSH0 DUP1 PUSH0 PUSH1 0xA0 DUP7 DUP9 SUB SLT ISZERO PUSH2 0x11CC JUMPI PUSH2 0x11CB PUSH2 0xEB9 JUMP JUMPDEST JUMPDEST PUSH0 PUSH2 0x11D9 DUP9 DUP3 DUP10 ADD PUSH2 0xF3A JUMP JUMPDEST SWAP6 POP POP PUSH1 0x20 DUP7 ADD CALLDATALOAD PUSH8 0xFFFFFFFFFFFFFFFF DUP2 GT ISZERO PUSH2 0x11FA JUMPI PUSH2 0x11F9 PUSH2 0xEBD JUMP JUMPDEST JUMPDEST PUSH2 0x1206 DUP9 DUP3 DUP10 ADD PUSH2 0x1186 JUMP JUMPDEST SWAP5 POP POP PUSH1 0x40 DUP7 ADD CALLDATALOAD PUSH8 0xFFFFFFFFFFFFFFFF DUP2 GT ISZERO PUSH2 0x1227 JUMPI PUSH2 0x1226 PUSH2 0xEBD JUMP JUMPDEST JUMPDEST PUSH2 0x1233 DUP9 DUP3 DUP10 ADD PUSH2 0x1186 JUMP JUMPDEST SWAP4 POP POP PUSH1 0x60 PUSH2 0x1244 DUP9 DUP3 DUP10 ADD PUSH2 0xF3A JUMP JUMPDEST SWAP3 POP POP PUSH1 0x80 PUSH2 0x1255 DUP9 DUP3 DUP10 ADD PUSH2 0xF3A JUMP JUMPDEST SWAP2 POP POP SWAP3 SWAP6 POP SWAP3 SWAP6 SWAP1 SWAP4 POP JUMP JUMPDEST PUSH0 PUSH1 0x20 DUP3 DUP5 SUB SLT ISZERO PUSH2 0x1277 JUMPI PUSH2 0x1276 PUSH2 0xEB9 JUMP JUMPDEST JUMPDEST PUSH0 PUSH2 0x1284 DUP5 DUP3 DUP6 ADD PUSH2 0xF07 JUMP JUMPDEST SWAP2 POP POP SWAP3 SWAP2 POP POP JUMP JUMPDEST PUSH0 DUP2 MLOAD SWAP1 POP SWAP2 SWAP1 POP JUMP JUMPDEST PUSH0 DUP3 DUP3 MSTORE PUSH1 0x20 DUP3 ADD SWAP1 POP SWAP3 SWAP2 POP POP JUMP JUMPDEST PUSH0 DUP2 SWAP1 POP PUSH1 0x20 DUP3 ADD SWAP1 POP SWAP2 SWAP1 POP JUMP JUMPDEST PUSH0 DUP3 DUP3 MSTORE PUSH1 0x20 DUP3 ADD SWAP1 POP SWAP3 SWAP2 POP POP JUMP JUMPDEST PUSH0 PUSH2 0x12D0 DUP3 PUSH2 0xF8C JUMP JUMPDEST PUSH2 0x12DA DUP2 DUP6 PUSH2 0x12B6 JUMP JUMPDEST SWAP4 POP PUSH2 0x12EA DUP2 DUP6 PUSH1 0x20 DUP7 ADD PUSH2 0xFA6 JUMP JUMPDEST PUSH2 0x12F3 DUP2 PUSH2 0xFB4 JUMP JUMPDEST DUP5 ADD SWAP2 POP POP SWAP3 SWAP2 POP POP JUMP JUMPDEST PUSH2 0x1307 DUP2 PUSH2 0xF1B JUMP JUMPDEST DUP3 MSTORE POP POP JUMP JUMPDEST PUSH0 PUSH1 0x80 DUP4 ADD PUSH0 DUP4 ADD MLOAD DUP5 DUP3 SUB PUSH0 DUP7 ADD MSTORE PUSH2 0x1327 DUP3 DUP3 PUSH2 0x12C6 JUMP JUMPDEST SWAP2 POP POP PUSH1 0x20 DUP4 ADD MLOAD DUP5 DUP3 SUB PUSH1 0x20 DUP7 ADD MSTORE PUSH2 0x1341 DUP3 DUP3 PUSH2 0x12C6 JUMP JUMPDEST SWAP2 POP POP PUSH1 0x40 DUP4 ADD MLOAD PUSH2 0x1356 PUSH1 0x40 DUP7 ADD DUP3 PUSH2 0x12FE JUMP JUMPDEST POP PUSH1 0x60 DUP4 ADD MLOAD PUSH2 0x1369 PUSH1 0x60 DUP7 ADD DUP3 PUSH2 0x12FE JUMP JUMPDEST POP DUP1 SWAP2 POP POP SWAP3 SWAP2 POP POP JUMP JUMPDEST PUSH0 PUSH2 0x137F DUP4 DUP4 PUSH2 0x130D JUMP JUMPDEST SWAP1 POP SWAP3 SWAP2 POP POP JUMP JUMPDEST PUSH0 PUSH1 0x20 DUP3 ADD SWAP1 POP SWAP2 SWAP1 POP JUMP JUMPDEST PUSH0 PUSH2 0x139D DUP3 PUSH2 0x128D JUMP JUMPDEST PUSH2 0x13A7 DUP2 DUP6 PUSH2 0x1297 JUMP JUMPDEST SWAP4 POP DUP4 PUSH1 0x20 DUP3 MUL DUP6 ADD PUSH2 0x13B9 DUP6 PUSH2 0x12A7 JUMP JUMPDEST DUP1 PUSH0 JUMPDEST DUP6 DUP2 LT ISZERO PUSH2 0x13F4 JUMPI DUP5 DUP5 SUB DUP10 MSTORE DUP2 MLOAD PUSH2 0x13D5 DUP6 DUP3 PUSH2 0x1374 JUMP JUMPDEST SWAP5 POP PUSH2 0x13E0 DUP4 PUSH2 0x1387 JUMP JUMPDEST SWAP3 POP PUSH1 0x20 DUP11 ADD SWAP10 POP POP PUSH1 0x1 DUP2 ADD SWAP1 POP PUSH2 0x13BC JUMP JUMPDEST POP DUP3 SWAP8 POP DUP8 SWAP6 POP POP POP POP POP POP SWAP3 SWAP2 POP POP JUMP JUMPDEST PUSH0 PUSH1 0x20 DUP3 ADD SWAP1 POP DUP2 DUP2 SUB PUSH0 DUP4 ADD MSTORE PUSH2 0x141E DUP2 DUP5 PUSH2 0x1393 JUMP JUMPDEST SWAP1 POP SWAP3 SWAP2 POP POP JUMP JUMPDEST PUSH0 DUP1 PUSH0 DUP1 PUSH1 0x80 DUP6 DUP8 SUB SLT ISZERO PUSH2 0x143E JUMPI PUSH2 0x143D PUSH2 0xEB9 JUMP JUMPDEST JUMPDEST PUSH0 DUP6 ADD CALLDATALOAD PUSH8 0xFFFFFFFFFFFFFFFF DUP2 GT ISZERO PUSH2 0x145B JUMPI PUSH2 0x145A PUSH2 0xEBD JUMP JUMPDEST JUMPDEST PUSH2 0x1467 DUP8 DUP3 DUP9 ADD PUSH2 0x1186 JUMP JUMPDEST SWAP5 POP POP PUSH1 0x20 DUP6 ADD CALLDATALOAD PUSH8 0xFFFFFFFFFFFFFFFF DUP2 GT ISZERO PUSH2 0x1488 JUMPI PUSH2 0x1487 PUSH2 0xEBD JUMP JUMPDEST JUMPDEST PUSH2 0x1494 DUP8 DUP3 DUP9 ADD PUSH2 0x1186 JUMP JUMPDEST SWAP4 POP POP PUSH1 0x40 PUSH2 0x14A5 DUP8 DUP3 DUP9 ADD PUSH2 0xF3A JUMP JUMPDEST SWAP3 POP POP PUSH1 0x60 PUSH2 0x14B6 DUP8 DUP3 DUP9 ADD PUSH2 0xF3A JUMP JUMPDEST SWAP2 POP POP SWAP3 SWAP6 SWAP2 SWAP5 POP SWAP3 POP JUMP JUMPDEST PUSH0 DUP1 PUSH0 PUSH1 0x60 DUP5 DUP7 SUB SLT ISZERO PUSH2 0x14D9 JUMPI PUSH2 0x14D8 PUSH2 0xEB9 JUMP JUMPDEST JUMPDEST PUSH0 PUSH2 0x14E6 DUP7 DUP3 DUP8 ADD PUSH2 0xF07 JUMP JUMPDEST SWAP4 POP POP PUSH1 0x20 PUSH2 0x14F7 DUP7 DUP3 DUP8 ADD PUSH2 0xF3A JUMP JUMPDEST SWAP3 POP POP PUSH1 0x40 PUSH2 0x1508 DUP7 DUP3 DUP8 ADD PUSH2 0xF3A JUMP JUMPDEST SWAP2 POP POP SWAP3 POP SWAP3 POP SWAP3 JUMP JUMPDEST PUSH32 0x4E487B7100000000000000000000000000000000000000000000000000000000 PUSH0 MSTORE PUSH1 0x22 PUSH1 0x4 MSTORE PUSH1 0x24 PUSH0 REVERT JUMPDEST PUSH0 PUSH1 0x2 DUP3 DIV SWAP1 POP PUSH1 0x1 DUP3 AND DUP1 PUSH2 0x1556 JUMPI PUSH1 0x7F DUP3 AND SWAP2 POP JUMPDEST PUSH1 0x20 DUP3 LT DUP2 SUB PUSH2 0x1569 JUMPI PUSH2 0x1568 PUSH2 0x1512 JUMP JUMPDEST JUMPDEST POP SWAP2 SWAP1 POP JUMP JUMPDEST PUSH32 0x496E76616C6964206974656D20696E6465780000000000000000000000000000 PUSH0 DUP3 ADD MSTORE POP JUMP JUMPDEST PUSH0 PUSH2 0x15A3 PUSH1 0x12 DUP4 PUSH2 0xF96 JUMP JUMPDEST SWAP2 POP PUSH2 0x15AE DUP3 PUSH2 0x156F JUMP JUMPDEST PUSH1 0x20 DUP3 ADD SWAP1 POP SWAP2 SWAP1 POP JUMP JUMPDEST PUSH0 PUSH1 0x20 DUP3 ADD SWAP1 POP DUP2 DUP2 SUB PUSH0 DUP4 ADD MSTORE PUSH2 0x15D0 DUP2 PUSH2 0x1597 JUMP JUMPDEST SWAP1 POP SWAP2 SWAP1 POP JUMP JUMPDEST PUSH32 0x4E487B7100000000000000000000000000000000000000000000000000000000 PUSH0 MSTORE PUSH1 0x11 PUSH1 0x4 MSTORE PUSH1 0x24 PUSH0 REVERT JUMPDEST PUSH0 PUSH2 0x160E DUP3 PUSH2 0xF1B JUMP JUMPDEST SWAP2 POP PUSH2 0x1619 DUP4 PUSH2 0xF1B JUMP JUMPDEST SWAP3 POP DUP3 DUP3 SUB SWAP1 POP DUP2 DUP2 GT ISZERO PUSH2 0x1631 JUMPI PUSH2 0x1630 PUSH2 0x15D7 JUMP JUMPDEST JUMPDEST SWAP3 SWAP2 POP POP JUMP JUMPDEST PUSH32 0x4E487B7100000000000000000000000000000000000000000000000000000000 PUSH0 MSTORE PUSH1 0x32 PUSH1 0x4 MSTORE PUSH1 0x24 PUSH0 REVERT JUMPDEST PUSH0 DUP2 SLOAD SWAP1 POP PUSH2 0x1672 DUP2 PUSH2 0x153F JUMP JUMPDEST SWAP1 POP SWAP2 SWAP1 POP JUMP JUMPDEST PUSH0 DUP2 SWAP1 POP DUP2 PUSH0 MSTORE PUSH1 0x20 PUSH0 KECCAK256 SWAP1 POP SWAP2 SWAP1 POP JUMP JUMPDEST PUSH0 PUSH1 0x20 PUSH1 0x1F DUP4 ADD DIV SWAP1 POP SWAP2 SWAP1 POP JUMP JUMPDEST PUSH0 DUP3 DUP3 SHL SWAP1 POP SWAP3 SWAP2 POP POP JUMP JUMPDEST PUSH0 PUSH1 0x8 DUP4 MUL PUSH2 0x16D5 PUSH32 0xFFFFFFFFFFFFFFFFFFFFFFFFFFFFFFFFFFFFFFFFFFFFFFFFFFFFFFFFFFFFFFFF DUP3 PUSH2 0x169A JUMP JUMPDEST PUSH2 0x16DF DUP7 DUP4 PUSH2 0x169A JUMP JUMPDEST SWAP6 POP DUP1 NOT DUP5 AND SWAP4 POP DUP1 DUP7 AND DUP5 OR SWAP3 POP POP POP SWAP4 SWAP3 POP POP POP JUMP JUMPDEST PUSH0 DUP2 SWAP1 POP SWAP2 SWAP1 POP JUMP JUMPDEST PUSH0 PUSH2 0x171A PUSH2 0x1715 PUSH2 0x1710 DUP5 PUSH2 0xF1B JUMP JUMPDEST PUSH2 0x16F7 JUMP JUMPDEST PUSH2 0xF1B JUMP JUMPDEST SWAP1 POP SWAP2 SWAP1 POP JUMP JUMPDEST PUSH0 DUP2 SWAP1 POP SWAP2 SWAP1 POP JUMP JUMPDEST PUSH2 0x1733 DUP4 PUSH2 0x1700 JUMP JUMPDEST PUSH2 0x1747 PUSH2 0x173F DUP3 PUSH2 0x1721 JUMP JUMPDEST DUP5 DUP5 SLOAD PUSH2 0x16A6 JUMP JUMPDEST DUP3 SSTORE POP POP POP POP JUMP JUMPDEST PUSH0 SWAP1 JUMP JUMPDEST PUSH2 0x175B PUSH2 0x174F JUMP JUMPDEST PUSH2 0x1766 DUP2 DUP5 DUP5 PUSH2 0x172A JUMP JUMPDEST POP POP POP JUMP JUMPDEST JUMPDEST DUP2 DUP2 LT ISZERO PUSH2 0x1789 JUMPI PUSH2 0x177E PUSH0 DUP3 PUSH2 0x1753 JUMP JUMPDEST PUSH1 0x1 DUP2 ADD SWAP1 POP PUSH2 0x176C JUMP JUMPDEST POP POP JUMP JUMPDEST PUSH1 0x1F DUP3 GT ISZERO PUSH2 0x17CE JUMPI PUSH2 0x179F DUP2 PUSH2 0x1679 JUMP JUMPDEST PUSH2 0x17A8 DUP5 PUSH2 0x168B JUMP JUMPDEST DUP2 ADD PUSH1 0x20 DUP6 LT ISZERO PUSH2 0x17B7 JUMPI DUP2 SWAP1 POP JUMPDEST PUSH2 0x17CB PUSH2 0x17C3 DUP6 PUSH2 0x168B JUMP JUMPDEST DUP4 ADD DUP3 PUSH2 0x176B JUMP JUMPDEST POP POP JUMPDEST POP POP POP JUMP JUMPDEST PUSH0 DUP3 DUP3 SHR SWAP1 POP SWAP3 SWAP2 POP POP JUMP JUMPDEST PUSH0 PUSH2 0x17EE PUSH0 NOT DUP5 PUSH1 0x8 MUL PUSH2 0x17D3 JUMP JUMPDEST NOT DUP1 DUP4 AND SWAP2 POP POP SWAP3 SWAP2 POP POP JUMP JUMPDEST PUSH0 PUSH2 0x1806 DUP4 DUP4 PUSH2 0x17DF JUMP JUMPDEST SWAP2 POP DUP3 PUSH1 0x2 MUL DUP3 OR SWAP1 POP SWAP3 SWAP2 POP POP JUMP JUMPDEST DUP2 DUP2 SUB PUSH2 0x1824 JUMPI POP POP PUSH2 0x18F9 JUMP JUMPDEST PUSH2 0x182D DUP3 PUSH2 0x1664 JUMP JUMPDEST PUSH8 0xFFFFFFFFFFFFFFFF DUP2 GT ISZERO PUSH2 0x1846 JUMPI PUSH2 0x1845 PUSH2 0x108F JUMP JUMPDEST JUMPDEST PUSH2 0x1850 DUP3 SLOAD PUSH2 0x153F JUMP JUMPDEST PUSH2 0x185B DUP3 DUP3 DUP6 PUSH2 0x178D JUMP JUMPDEST PUSH0 PUSH1 0x1F DUP4 GT PUSH1 0x1 DUP2 EQ PUSH2 0x1888 JUMPI PUSH0 DUP5 ISZERO PUSH2 0x1876 JUMPI DUP3 DUP8 ADD SLOAD SWAP1 POP JUMPDEST PUSH2 0x1880 DUP6 DUP3 PUSH2 0x17FB JUMP JUMPDEST DUP7 SSTORE POP PUSH2 0x18F2 JUMP JUMPDEST PUSH1 0x1F NOT DUP5 AND PUSH2 0x1896 DUP8 PUSH2 0x1679 JUMP JUMPDEST SWAP7 POP PUSH2 0x18A1 DUP7 PUSH2 0x1679 JUMP JUMPDEST PUSH0 JUMPDEST DUP3 DUP2 LT ISZERO PUSH2 0x18C8 JUMPI DUP5 DUP10 ADD SLOAD DUP3 SSTORE PUSH1 0x1 DUP3 ADD SWAP2 POP PUSH1 0x1 DUP6 ADD SWAP5 POP PUSH1 0x20 DUP2 ADD SWAP1 POP PUSH2 0x18A3 JUMP JUMPDEST DUP7 DUP4 LT ISZERO PUSH2 0x18E5 JUMPI DUP5 DUP10 ADD SLOAD PUSH2 0x18E1 PUSH1 0x1F DUP10 AND DUP3 PUSH2 0x17DF JUMP JUMPDEST DUP4 SSTORE POP JUMPDEST PUSH1 0x1 PUSH1 0x2 DUP9 MUL ADD DUP9 SSTORE POP POP POP JUMPDEST POP POP POP POP POP POP JUMPDEST JUMP JUMPDEST PUSH32 0x4E487B7100000000000000000000000000000000000000000000000000000000 PUSH0 MSTORE PUSH1 0x31 PUSH1 0x4 MSTORE PUSH1 0x24 PUSH0 REVERT JUMPDEST PUSH0 PUSH1 0x20 DUP3 ADD SWAP1 POP PUSH2 0x193B PUSH0 DUP4 ADD DUP5 PUSH2 0xFFC JUMP JUMPDEST SWAP3 SWAP2 POP POP JUMP JUMPDEST PUSH32 0x4974656D206E616D652063616E6E6F7420626520656D70747900000000000000 PUSH0 DUP3 ADD MSTORE POP JUMP JUMPDEST PUSH0 PUSH2 0x1975 PUSH1 0x19 DUP4 PUSH2 0xF96 JUMP JUMPDEST SWAP2 POP PUSH2 0x1980 DUP3 PUSH2 0x1941 JUMP JUMPDEST PUSH1 0x20 DUP3 ADD SWAP1 POP SWAP2 SWAP1 POP JUMP JUMPDEST PUSH0 PUSH1 0x20 DUP3 ADD SWAP1 POP DUP2 DUP2 SUB PUSH0 DUP4 ADD MSTORE PUSH2 0x19A2 DUP2 PUSH2 0x1969 JUMP JUMPDEST SWAP1 POP SWAP2 SWAP1 POP JUMP JUMPDEST PUSH32 0x4974656D206465736372697074696F6E2063616E6E6F7420626520656D707479 PUSH0 DUP3 ADD MSTORE POP JUMP JUMPDEST PUSH0 PUSH2 0x19DD PUSH1 0x20 DUP4 PUSH2 0xF96 JUMP JUMPDEST SWAP2 POP PUSH2 0x19E8 DUP3 PUSH2 0x19A9 JUMP JUMPDEST PUSH1 0x20 DUP3 ADD SWAP1 POP SWAP2 SWAP1 POP JUMP JUMPDEST PUSH0 PUSH1 0x20 DUP3 ADD SWAP1 POP DUP2 DUP2 SUB PUSH0 DUP4 ADD MSTORE PUSH2 0x1A0A DUP2 PUSH2 0x19D1 JUMP JUMPDEST SWAP1 POP SWAP2 SWAP1 POP JUMP JUMPDEST PUSH32 0x5072696365206D7573742062652067726561746572207468616E207A65726F00 PUSH0 DUP3 ADD MSTORE POP JUMP JUMPDEST PUSH0 PUSH2 0x1A45 PUSH1 0x1F DUP4 PUSH2 0xF96 JUMP JUMPDEST SWAP2 POP PUSH2 0x1A50 DUP3 PUSH2 0x1A11 JUMP JUMPDEST PUSH1 0x20 DUP3 ADD SWAP1 POP SWAP2 SWAP1 POP JUMP JUMPDEST PUSH0 PUSH1 0x20 DUP3 ADD SWAP1 POP DUP2 DUP2 SUB PUSH0 DUP4 ADD MSTORE PUSH2 0x1A72 DUP2 PUSH2 0x1A39 JUMP JUMPDEST SWAP1 POP SWAP2 SWAP1 POP JUMP JUMPDEST PUSH32 0x5175616E74697479206D7573742062652067726561746572207468616E207A65 PUSH0 DUP3 ADD MSTORE PUSH32 0x726F000000000000000000000000000000000000000000000000000000000000 PUSH1 0x20 DUP3 ADD MSTORE POP JUMP JUMPDEST PUSH0 PUSH2 0x1AD3 PUSH1 0x22 DUP4 PUSH2 0xF96 JUMP JUMPDEST SWAP2 POP PUSH2 0x1ADE DUP3 PUSH2 0x1A79 JUMP JUMPDEST PUSH1 0x40 DUP3 ADD SWAP1 POP SWAP2 SWAP1 POP JUMP JUMPDEST PUSH0 PUSH1 0x20 DUP3 ADD SWAP1 POP DUP2 DUP2 SUB PUSH0 DUP4 ADD MSTORE PUSH2 0x1B00 DUP2 PUSH2 0x1AC7 JUMP JUMPDEST SWAP1 POP SWAP2 SWAP1 POP JUMP JUMPDEST PUSH2 0x1B10 DUP3 PUSH2 0xF8C JUMP JUMPDEST PUSH8 0xFFFFFFFFFFFFFFFF DUP2 GT ISZERO PUSH2 0x1B29 JUMPI PUSH2 0x1B28 PUSH2 0x108F JUMP JUMPDEST JUMPDEST PUSH2 0x1B33 DUP3 SLOAD PUSH2 0x153F JUMP JUMPDEST PUSH2 0x1B3E DUP3 DUP3 DUP6 PUSH2 0x178D JUMP JUMPDEST PUSH0 PUSH1 0x20 SWAP1 POP PUSH1 0x1F DUP4 GT PUSH1 0x1 DUP2 EQ PUSH2 0x1B6F JUMPI PUSH0 DUP5 ISZERO PUSH2 0x1B5D JUMPI DUP3 DUP8 ADD MLOAD SWAP1 POP JUMPDEST PUSH2 0x1B67 DUP6 DUP3 PUSH2 0x17FB JUMP JUMPDEST DUP7 SSTORE POP PUSH2 0x1BCE JUMP JUMPDEST PUSH1 0x1F NOT DUP5 AND PUSH2 0x1B7D DUP7 PUSH2 0x1679 JUMP JUMPDEST PUSH0 JUMPDEST DUP3 DUP2 LT ISZERO PUSH2 0x1BA4 JUMPI DUP5 DUP10 ADD MLOAD DUP3 SSTORE PUSH1 0x1 DUP3 ADD SWAP2 POP PUSH1 0x20 DUP6 ADD SWAP5 POP PUSH1 0x20 DUP2 ADD SWAP1 POP PUSH2 0x1B7F JUMP JUMPDEST DUP7 DUP4 LT ISZERO PUSH2 0x1BC1 JUMPI DUP5 DUP10 ADD MLOAD PUSH2 0x1BBD PUSH1 0x1F DUP10 AND DUP3 PUSH2 0x17DF JUMP JUMPDEST DUP4 SSTORE POP JUMPDEST PUSH1 0x1 PUSH1 0x2 DUP9 MUL ADD DUP9 SSTORE POP POP POP JUMPDEST POP POP POP POP POP POP JUMP JUMPDEST PUSH0 PUSH1 0x80 DUP3 ADD SWAP1 POP PUSH2 0x1BE9 PUSH0 DUP4 ADD DUP8 PUSH2 0xFFC JUMP JUMPDEST DUP2 DUP2 SUB PUSH1 0x20 DUP4 ADD MSTORE PUSH2 0x1BFB DUP2 DUP7 PUSH2 0xFC4 JUMP JUMPDEST SWAP1 POP PUSH2 0x1C0A PUSH1 0x40 DUP4 ADD DUP6 PUSH2 0xFFC JUMP JUMPDEST PUSH2 0x1C17 PUSH1 0x60 DUP4 ADD DUP5 PUSH2 0xFFC JUMP JUMPDEST SWAP6 SWAP5 POP POP POP POP POP JUMP JUMPDEST PUSH0 PUSH1 0x60 DUP3 ADD SWAP1 POP DUP2 DUP2 SUB PUSH0 DUP4 ADD MSTORE PUSH2 0x1C38 DUP2 DUP7 PUSH2 0xFC4 JUMP JUMPDEST SWAP1 POP PUSH2 0x1C47 PUSH1 0x20 DUP4 ADD DUP6 PUSH2 0xFFC JUMP JUMPDEST PUSH2 0x1C54 PUSH1 0x40 DUP4 ADD DUP5 PUSH2 0xFFC JUMP JUMPDEST SWAP5 SWAP4 POP POP POP POP JUMP JUMPDEST PUSH32 0x4E6F7420656E6F7567682073746F636B00000000000000000000000000000000 PUSH0 DUP3 ADD MSTORE POP JUMP JUMPDEST PUSH0 PUSH2 0x1C90 PUSH1 0x10 DUP4 PUSH2 0xF96 JUMP JUMPDEST SWAP2 POP PUSH2 0x1C9B DUP3 PUSH2 0x1C5C JUMP JUMPDEST PUSH1 0x20 DUP3 ADD SWAP1 POP SWAP2 SWAP1 POP JUMP JUMPDEST PUSH0 PUSH1 0x20 DUP3 ADD SWAP1 POP DUP2 DUP2 SUB PUSH0 DUP4 ADD MSTORE PUSH2 0x1CBD DUP2 PUSH2 0x1C84 JUMP JUMPDEST SWAP1 POP SWAP2 SWAP1 POP JUMP JUMPDEST PUSH0 PUSH2 0x1CCE DUP3 PUSH2 0xF1B JUMP JUMPDEST SWAP2 POP PUSH2 0x1CD9 DUP4 PUSH2 0xF1B JUMP JUMPDEST SWAP3 POP DUP3 DUP3 MUL PUSH2 0x1CE7 DUP2 PUSH2 0xF1B JUMP JUMPDEST SWAP2 POP DUP3 DUP3 DIV DUP5 EQ DUP4 ISZERO OR PUSH2 0x1CFE JUMPI PUSH2 0x1CFD PUSH2 0x15D7 JUMP JUMPDEST JUMPDEST POP SWAP3 SWAP2 POP POP JUMP JUMPDEST PUSH32 0x496E636F7272656374207061796D656E7420616D6F756E740000000000000000 PUSH0 DUP3 ADD MSTORE POP JUMP JUMPDEST PUSH0 PUSH2 0x1D39 PUSH1 0x18 DUP4 PUSH2 0xF96 JUMP JUMPDEST SWAP2 POP PUSH2 0x1D44 DUP3 PUSH2 0x1D05 JUMP JUMPDEST PUSH1 0x20 DUP3 ADD SWAP1 POP SWAP2 SWAP1 POP JUMP JUMPDEST PUSH0 PUSH1 0x20 DUP3 ADD SWAP1 POP DUP2 DUP2 SUB PUSH0 DUP4 ADD MSTORE PUSH2 0x1D66 DUP2 PUSH2 0x1D2D JUMP JUMPDEST SWAP1 POP SWAP2 SWAP1 POP JUMP JUMPDEST PUSH0 PUSH1 0x40 DUP3 ADD SWAP1 POP PUSH2 0x1D80 PUSH0 DUP4 ADD DUP6 PUSH2 0xFFC JUMP JUMPDEST PUSH2 0x1D8D PUSH1 0x20 DUP4 ADD DUP5 PUSH2 0xFFC JUMP JUMPDEST SWAP4 SWAP3 POP POP POP JUMP INVALID LOG2 PUSH5 0x6970667358 0x22 SLT KECCAK256 SELFDESTRUCT BYTE EXTCODEHASH RETURN 0xF SWAP13 COINBASE PUSH4 0xE9D6BB72 SSTORE 0xEC DUP14 0x2B LT PUSH1 0xC0 0xE SWAP10 PUSH7 0x927DC5F3C850AC 0xB6 PREVRANDAO 0xDC PUSH5 0x736F6C6343 STOP ADDMOD BYTE STOP CALLER "
				},
				"gasEstimates": {
					"creation": {
						"codeDepositCost": "1525200",
						"executionCost": "1594",
						"totalCost": "1526794"
					},
					"external": {
						"deleteItem(uint256)": "infinite",
						"editItem(uint256,string,string,uint256,uint256)": "infinite",
						"getSellerItems(address)": "infinite",
						"listItem(string,string,uint256,uint256)": "infinite",
						"purchaseItem(address,uint256,uint256)": "infinite",
						"sellerItems(address,uint256)": "infinite"
					}
				},
				"methodIdentifiers": {
					"deleteItem(uint256)": "654fc833",
					"editItem(uint256,string,string,uint256,uint256)": "ca339212",
					"getSellerItems(address)": "d3cbb62b",
					"listItem(string,string,uint256,uint256)": "ec4ceeea",
					"purchaseItem(address,uint256,uint256)": "fe6a30ca",
					"sellerItems(address,uint256)": "2c02338f"
				}
			},
			"storageLayout": {
				"storage": [
					{
						"astId": 16,
						"contract": "contracts/Decentralized_Marketplace.sol:DecentralizedMarketplace",
						"label": "sellerItems",
						"offset": 0,
						"slot": "0",
						"type": "t_mapping(t_address,t_array(t_struct(Item)10_storage)dyn_storage)"
					}
				],
				"types": {
					"t_address": {
						"encoding": "inplace",
						"label": "address",
						"numberOfBytes": "20"
					},
					"t_array(t_struct(Item)10_storage)dyn_storage": {
						"base": "t_struct(Item)10_storage",
						"encoding": "dynamic_array",
						"label": "struct MarketplaceBase.Item[]",
						"numberOfBytes": "32"
					},
					"t_mapping(t_address,t_array(t_struct(Item)10_storage)dyn_storage)": {
						"encoding": "mapping",
						"key": "t_address",
						"label": "mapping(address => struct MarketplaceBase.Item[])",
						"numberOfBytes": "32",
						"value": "t_array(t_struct(Item)10_storage)dyn_storage"
					},
					"t_string_storage": {
						"encoding": "bytes",
						"label": "string",
						"numberOfBytes": "32"
					},
					"t_struct(Item)10_storage": {
						"encoding": "inplace",
						"label": "struct MarketplaceBase.Item",
						"members": [
							{
								"astId": 3,
								"contract": "contracts/Decentralized_Marketplace.sol:DecentralizedMarketplace",
								"label": "name",
								"offset": 0,
								"slot": "0",
								"type": "t_string_storage"
							},
							{
								"astId": 5,
								"contract": "contracts/Decentralized_Marketplace.sol:DecentralizedMarketplace",
								"label": "description",
								"offset": 0,
								"slot": "1",
								"type": "t_string_storage"
							},
							{
								"astId": 7,
								"contract": "contracts/Decentralized_Marketplace.sol:DecentralizedMarketplace",
								"label": "price",
								"offset": 0,
								"slot": "2",
								"type": "t_uint256"
							},
							{
								"astId": 9,
								"contract": "contracts/Decentralized_Marketplace.sol:DecentralizedMarketplace",
								"label": "quantity",
								"offset": 0,
								"slot": "3",
								"type": "t_uint256"
							}
						],
						"numberOfBytes": "128"
					},
					"t_uint256": {
						"encoding": "inplace",
						"label": "uint256",
						"numberOfBytes": "32"
					}
				}
			},
			"userdoc": {
				"kind": "user",
				"methods": {},
				"version": 1
			}
		}
	}
}